:1000000002048D02E03001C216222202DFFD7E379B
:10001000697C2202E05D7D23023AE402E002023DB7
:10002000B622220220BF7D437F1080071B447A0B3B
:10003000B00B144D4478F5220001010000010100CD
:1000400002467C0258E902467C22FF020E1600009E
:1000500000000000000000000000FF02E4C001FFFB
:100060000000000001FFC214C2172202E76F7EB336
:100070008E912202245940332D241E18100A0A0E94
:10008000151E242B32352F28221A130A03000104CF
:100090000A121B252C310900000204080F19202721
:1000A0002B2D2E2E2E2C2C2D2E32353B434D565DD6
:1000B00062676A6D6E70DAE1FF5501020408102074
:1000C000408001020304040302010102030404034B
:1000D00002010102030405040302010102030405F5
:1000E00004030201FF00010200FF01020001FF0200
:1000F000000102FF740F7AB36F947AB36F9522FFF9
:10010000F4C00B3FBEF2410D9C866379847B1CE3F7
:10011000FFFFFFFF0BF4FFFFFFFFC639FFFFF006F5
:10012000708F00FF847B01AA486302A900000000D1
:1001300000000000000000000000000000000000BF
:100140004A32320000000000000000000000000001
:10015000000000000000000000000000000000009F
:100160005869616F6D690000000000000000000028
:100170000100010101010101010101000101010171
:1001800001010101010000000808102410240000F2
:10019000010000000000000000000000000000005E
:1001A000000000000000000000000000000000004F
:1001B00000000000000102030405060708090A0BFD
:1001C0000C0D0E0F00000120012000000000012492
:1001D00001200048009100DA01230048009100DA74
:1001E00001231A050707000804001A05070701087C
:1001F00004001A050707020604001A05070703088A
:100200000301010A1E081400640DAC00C801F401CA
:10021000900190012C09C407D007D0019001900AE9
:1002200000025801050C213C000000000000000005
:10023000000000000000000000000000190B000199
:100240008701001C01840007001801020100010160
:100250000000000000000000000000001D00000081
:100260000000FF0064000000000000000000FFFF2D
:10027000000000000000000000000000000000017D
:10028000C6A50200000000000000000000000240BF
:1002900004800438021C3C3C019A01E0010001008A
:1002A000092404924141020801A401000100100048
:1002B000B40168021C000007A800640048000201A5
:1002C0000500960BB80A05060078015E01C21F40C2
:1002D00028025800C80014001A0018001103E80191
:1002E000F407D005DC040F0F005003E8005008D4D9
:1002F000000A019A019A032000C80043001E0080F2
:10030000021C00DC003C03E80492021C003C03E8F1
:100310000020041800000924006400A000A006408A
:10032000012C0000C2D57CB430E708B2D56E24FFA2
:10033000FF0B247CB630E712B2D56E34FFFF0B34CE
:100340008D326E24FFFF0B2480028D3230D5066E75
:1003500034FFFF0B34227D51AD037D027D21AD05BD
:100360002D12AD352D21227D02AD31AD102D212272
:100370006D0074104D00780B4D2278278D317D1261
:100380006D22227D437D326D222F112D445002A516
:100390000FBF1040049F100B901478ED7F016D2269
:1003A0007D34227D417D138D247D022F004004BDCC
:1003B0000440049D040B141478F17D237D317D10DD
:1003C0006D0022C2D57CB030E708B2D59F229F20B5
:1003D0007F027CB430E713B2D59F229F217F121297
:1003E00003729F229F207F02800312037230D50682
:1003F0009F229F217F12226CAA4D11681A1E5468F9
:100400000E0B38201B18200B350B151B5478F2509F
:10041000067E39407A1940226CAABE080000682086
:100420001E540B5450167E1B807A0B800B1C0B0C39
:10043000800A0B1A401B0A400B1D0B0D1B5478F24F
:10044000226CAA4D11681E1E54500C7E1B007A1996
:100450000068120B1C0B140B1A001B18000B1D0B51
:10046000151B5478F2226CAABE080000681E1E54A8
:10047000500C7E39407A0B4068120B340B0C0B3851
:10048000201B0A200B350B0D1B5478F222758401BA
:100490007E449FFFE47A49B01B4478F97EF88EE8E9
:1004A000C227C228C231C221C222C223C219C21A23
:1004B000C21BC21C755700C224C225C226C232D23A
:1004C00033C229C22AC21DC21EC21FD220C22BC2E1
:1004D0002C755906C234C20BC20CC20DC20EC20F1B
:1004E000C210D211C212C213C218C235C22DC22EFE
:1004F000C236C237D22FC2307E0400FF7E140559A7
:100500000B0A405D44681A692000020B0E0B448000
:100510000A7E0BB07A29B00B240B0C1B4478F280B6
:10052000DF0208B4CAF87F20800A7E1BF07A2BF025
:100530000B340B5469FFFFFC7DEF1BE479EFFFFCEC
:100540004DFF78E67F10DAF8227D23BE24000048B4
:10055000037D32226D339D322200018E930500010E
:100560008E940000018E990000018E9B0300018E85
:100570009C0000018EAC0000018EBB00000159FF01
:100580000100018E130000015939FF000201000033
:10059000000001019E0000010276000001027700C8
:1005A000001459CB01010101010101010101010008
:1005B0000000000202020202001459EB03030000D3
:1005C000000303000000030300000001010101011A
:1005D00000018EE60000018E140000028E1500005E
:1005E000003C8E1800000000000000000000000029
:1005F00000000000000000000000000000000000FB
:1006000000000000000000000000000000000000EA
:1006100000000000000000000000000000000000DA
:1006200000018E540000018E551100018E5600000D
:10063000018D1700000171FBFF00017865000002C9
:1006400078B60000000278C2000000018ECE0100E2
:10065000018EDC0000018EDD0100018EDE00000154
:1006600039F800000639FA10000000000000018986
:1006700071FF000139560000013957FF0001395858
:10068000FF0001395B640001395C0000018E5D00F0
:1006900000028E60002100018E640100018E67045B
:1006A00000018E880100018E8B0000028E8C0020DC
:1006B00000018E8E0000018E8F0000018E910000DF
:1006C000018E920000018EBEFF00028EC20000006B
:1006D0000481730000C1200004817C0000C100007F
:1006E0000200128180000200148380000103E600F2
:1006F0000002858285840001894402000289450048
:10070000000001896F000004001A000000000001D1
:100710008EE20100028EE3C30000048ECF0000C50C
:100720000000047A420000D00000047A460000A0D5
:100730000000047D240000B00000048ED40000C43A
:100740000000048ED80000C2000000001400680001
:10075000AC00EF0131017401B701FA023D028002E1
:10076000C303060349038C03D00424001D00670063
:10077000AA00EB012B016C01AC01ED022D026E020F
:10078000AE02EF032F037003B003F10431047204CF
:10079000B204F30533057405B405F506350676068F
:1007A000B606F70737077807B807F90839087A084F
:1007B000BC09100014006F00AC00EF01310174019E
:1007C000B701FA023D028002C303060349038C030A
:1007D000CF042300220100230B0101020123010E9B
:1007E00023FF0F01FF0F22FF0F23F5000105002358
:1007F000F60100F90101050F01050F23F6001108AC
:10080000090110070A020F060B030E050C040D0464
:100810000D000F0708010E0609020D050A030C045E
:100820000B000000000BB80BB80BB80BB80BB80BE3
:10083000B80BB80BB80BB80BB80BB80BB80BB80BA0
:10084000B80BB80BB80BB80BB8F448F448F448F43C
:1008500048F448F448F448F448F448F448F448F4B8
:1008600048F448F448F448F448F448F448000000D8
:100870006C00B500FE012200D9009000470047003F
:100880009000D9012200FE00B5006C0000000000BD
:100890000000000000000000000000000000000058
:1008A000000000000012F363E47AB38DB07AB38ED7
:1008B000130200F41230AB124FDC1208E212575B45
:1008C000123FB11208A5120C5F12498C7EB3596217
:1008D00024FD68090BB178F4120B7780EF1228C35E
:1008E00080EA7E34020D120971120B597A73593B5A
:1008F0007E34020F120971120B6C7A73593C7E34EC
:100900000215120971120B597A73593D12096D12B1
:100910000B6C7A73593EE47AB3593F7E34021F124E
:100920000971120B597A7359407E34006ACA397EB4
:100930003402237E2400FF7E0859411205241BFD4A
:1009400074027AB3594874AA7AB3596FE47AB359E6
:100950005874037AB3595974027AB35957227E34C2
:1009600002157E2400FF0B1A307A3769827E34022A
:10097000177E2400FF0B1A3022900203E4937AB30F
:10098000697A12F3917E34020D1209717A37697C0B
:100990007E34020F1209717A37697E7E3402111299
:1009A0000971120A4E7A37698012095E7A376984B2
:1009B0007E340219120971120A4E7A3769867E3422
:1009C000021B120971120FFD120971120A4E7A37B9
:1009D000698A90024FE4937AB3698E900206E49399
:1009E0007AB3698FBEB014500674147AB3698F7EDF
:1009F0003402071209717A3769907E34021F120996
:100A0000717A37698CE47AB369927AB36993227EFA
:100A100034020D1209717A37697C7E340221120981
:100A2000717A37010012F3917E34020F1209717A44
:100A300037697E7E34021B120971120FFD12097193
:100A4000120A4E120B51120B647A73593C226E3407
:100A5000FFFF0B34227EB3598B600A120A0FE47A2F
:100A6000B38EE78034127B5C7E340211120971125E
:100A70000A4E7A3769807EB36998701D7EB38EE71F
:100A800070177E340221120971BE37676C280A7E06
:100A9000B3696E70047A37697C7EB3594760447ECF
:100AA000B359581BB1680D0478397E37697C7D13C2
:100AB0003E14800A7E37697C7E140003AD137E04E9
:100AC000000A8D109D317A37697C7D232E240032F7
:100AD0007A2701009E3400327A37697E120A4E7AF4
:100AE0003769807EB3594660577E27697C7E340023
:100AF0000AAD32120B5D7A37697C7D232E240064A7
:100B00007A2701007E57697E7E04000AAD507D255C
:100B10000E240E240E247A27697E7E176988AD1074
:100B20007D210E240E240E247A2769886D229E27AB
:100B300069887A27698A120B59120B647A73593CB7
:100B40007EB3593FBEB0AA680712095E7A3769843E
:100B5000227A37698A7E37697C1E341E341E341E21
:100B6000341E34227A73593B7E37697E0E340E343C
:100B70000E340E340E342230240F7EB359A9B40142
:100B80000874017AB36F938003125116C224D2867F
:100B9000120C5F7EB38EC9B4010280028120125014
:100BA0008A124807E412598B124FF912263F122974
:100BB0005C7E34020B120971122B2212558D122AFF
:100BC0001A129A0912509C40CA129E3D7EB3595F78
:100BD000B40102D2867EB369937006120A5512EBF5
:100BE00039129053129C2512509C40A77401120C8C
:100BF00034121778127FFA1289EC7402120C341234
:100C00001CC47403120C34126F2A7404120C3412B4
:100C1000E95C125EAF1247C912521C120FF46193C5
:100C2000D2041228A1124696020C2B7E7359627AC6
:100C3000738EC92224FD680A0BB17822E47AB36965
:100C4000772212A7CF12B1F612B2B47AB369791231
:100C5000B3821282A012A3E91267F402634122CA8E
:100C6000797EB38EACBEB0017802A19B7E1F8ED47C
:100C700069A100065EA408006802A18C6CEE120E49
:100C8000077E34F4B17E087D287E240006120D9E76
:100C90007DB3BEB4000678040BE080070BF0BEF015
:100CA0000340DEBEB4000678106CFF120FED197A17
:100CB0008EAF0BF0BEF00678F2120E077E34F31200
:100CC0007E087D287E240009120D9E7DB3BEB400EF
:100CD0000978040BE080070BF0BEF00340DEBEB4E1
:100CE000000978106CFF120FED197A8E9D0BF0BE83
:100CF000F00978F2120E077E34D2027E087D287E3B
:100D0000240002120D9E7DB3BEB4000278040BE0F5
:100D100080070BF0BEF00340DEBEB4000278106C1A
:100D2000FF120FED197A8EB70BF0BEF00278F212B7
:100D30000E077E34F39012F249BEB4000178040B22
:100D4000E080070BF0BEF00340E8BEB40001780875
:100D50007E737D287A738E9C120E077E34F3B31255
:100D6000F249BEB4000178040BE080070BF0BEF03E
:100D70000340E8BEB4000178087E737D287A738E44
:100D800094BEE005780674017AB38EAC7EB38EAC67
:100D9000B401087E738E9C7A73596CDA792212EF53
:100DA0009A804D6D337E2F8ECF7932000A12EE7B02
:100DB00012F4457AB38ED3800E12F1B05E34000186
:100DC0006805122FDC800512F00B68ED12F2577ED9
:100DD0006F8ECF693600045E34000278F27EB38EE7
:100DE000D370116936000A6C667A7B700BF41B14A1
:100DF0004D1178AF020DF76D337E2F8ECF1B2A3049
:100E0000C2CC7D329D31227E087D287E340009E4EB
:100E10001200266CFF22CA7BCA6BCA5BCA4BCA2B64
:100E2000CA1BCA0B120FB15E34004068530B0A3064
:100E30005E340040684A7E340040793000027EB360
:100E40008E62BEB0016803B404131257D2300D088D
:100E50007E738E5B7A738E59E47AB38E627E1F8EB8
:100E6000D46931000A5E340FC0120B591E347A73F4
:100E70008E5EE47AB38EBE7EB38EE8047AB38EE8DB
:100E8000120FB15E34000868110B0A305E3400089E
:100E900068087E34000879300002120FB15E340019
:100EA0001068170B0A305E340010680E7E34001094
:100EB0007930000274027AB38EBE120FB15E340034
:100EC0002068170B0A305E340020680E7E34002044
:100ED0007930000274017AB38EBE120FB15E3440D5
:100EE00000682E0B0A305E34400068257E344000D6
:100EF00079300002D20C7EB38E5ABEB0C8500504C1
:100F00007AB38E5A7EB38E5AB401031200F4125291
:100F100012120FB15E34200068160B0A305E3420C6
:100F200000680D7E34200079300002D20C1252127B
:100F3000120FB15E34100068470B0A307D235E2427
:100F40001000683C5E3408002E34FFFF920F6930B9
:100F500000067D235E240001680C5E3404002E34FC
:100F6000FFFF720F920F7E34080079300002C2300A
:100F700012E7741243F41254E77805C2081226C42B
:100F8000120FB15E34000468190B0A305E3400049D
:100F900068107E340004793000027EB3596070021C
:100FA000D212DA0BDA1BDA2BDA4BDA5BDA6BDA7B8A
:100FB000327E0F8ED469300004227E3402B91209C9
:100FC000717A37677F7E3402BB1209717A37678185
:100FD0007E3402BD12097112F1FC9002C0E4937AD2
:100FE000B36786E47AB3678A7AB3678B220AAF095C
:100FF0007A7D282212CA9312CA8C020C2B7A376986
:10100000887E34021D227C2BA5BA000302584CA511
:10101000BA5F057EB38E0F22BE205C38070A320904
:10102000B38DB022BE206A6804A5BA6B1D7E378ED0
:10103000977D230B247A278E972E378EBC7E3930EE
:10104000A5BA6B03751F6A7CB322BE206E6804A527
:10105000BA6F2D7E076F96BE078E957E378E9528C8
:10106000081211095E303F80031211097E078E9528
:101070000B047A078E95A5BA6F03751F6E7CB32299
:10108000BE2070400ABE207F38057CB2022FFDBE14
:1010900020816804A5BA82207EA38DC70A3A2E3427
:1010A00001201211117C3B7CBA047AB38DC7A5BA1A
:1010B0008203751F817CB322BE20926804A5BA9377
:1010C000137EB38E9A0A3B09338EAFA5BA9303758C
:1010D0001F92801ABE20946804A5BA95197EB38E1B
:1010E0009A0A3B09338E9DA5BA9503751F94047A1D
:1010F000B38E9A7CB322A5BAFE0D7E238E88740827
:10110000ACB209B559AB22E4222E378EB57E393008
:10111000227A71827A6183E493227C7BC423541FF8
:101120000A2B09A265DC7CB754070A3B2E3400BAAF
:101130001211115CBA22CA796CFF6CEE80317CBE50
:1011400012111A60287E340002CA39AC7E2E346532
:10115000646D227E3002AC3F2E1465646D00120572
:10116000241BFD7CBF7E70011274EB0BF00BE012B0
:10117000886638CA7AF36766DA7922CA3BC20112F6
:1011800096D26CDD4133D2007CBD127B6A7DE3BE1A
:10119000E4033408024131128F98F52809C36565CC
:1011A0000EE40EE4BEE4005058047EE40050BEC0DD
:1011B00002501E1217191212D72804C200803212D0
:1011C00017191212437DD3BED400082824C2008010
:1011D000200ACE1BC50AFCBDFC48161217191212B4
:1011E000D72804C200800A1217191212D72802C287
:1011F00000300035E528BEB00250121212CA280491
:10120000C20080251212CA2820C200801C0ACF1BEF
:10121000C5E5280AFBBDFC48101212CA2804C2000A
:1012200080071212CA2802C2002000057CBD127677
:10123000DD0BD01293CB2802218630010312113628
:10124000DA3B22CA797C937CE47CF57C8B7DF3A528
:10125000BA00357A81297A812A7C18800A12F3B67D
:10126000080A7A112A1B10BE100058F17A81297CD5
:10127000081A580B547C1B800912F3B6083D7C01F8
:101280000B10BCE118F380337AF1297AF12A7C1F24
:10129000800A12F3AC080A7A112A1B10BE100058FB
:1012A000F17AF1297C0F1A5F0B547C1B800912F331
:1012B000AC08087C010B10BC9118F3E52A0A2B0A34
:1012C000309D320B340A37DA79227D3EE5287C5C8A
:1012D0007C4F7C3E7E20011212437DD3BED4000A97
:1012E000227CB07C711290247D133E140212EF7E9A
:1012F0001F2D2E2D310B1A3022CAD8CA79C2007E7A
:10130000B3696E600261976CFF807F12F28B4CEEC6
:10131000781CBED0237817E412139C581174011264
:10132000139C580A74017E702312139F4822BEE05A
:101330000F7855BED0237850740E12139C58497400
:101340000F12139C5842740E7E702312139F58384C
:101350007CBE7C7D7E600112893D7F61129C1E7D7A
:10136000131A021A007F169F107E0800031203C38F
:101370007F71129C1E7DD31A361AC62F67BE680B6A
:10138000B858057CBF12757A0BF01275F928026106
:101390000B300003121136DA79DAD8227E7022126D
:1013A00012E5BE3400FA227F717F607C5B7E700D97
:1013B000AC7509A3679E09B3679FF5397EB3699D34
:1013C0007C7B1E700A370A4ABD43580B753A00757C
:1013D0003B01753C0280180A3B1B347CB7F53A0A86
:1013E0003B7D231B247CB5F53B1B357CB7F53C7C52
:1013F000BA7E71391212E57D137D010E047DB10EA6
:10140000B40EB42DB07DA12EA4000A6C996C006CB2
:1014100011D201D202D2037E81398045300111E51B
:101420003A1214D25808BDA108040B908002C201E0
:10143000300211E53B1214D25808BDA108040B007C
:101440008002C20230030F1214D05808BDA1080454
:101450000B108002C2032001062002033003071B89
:1014600080BE800058B6D201D202D203E5390A3BD1
:101470000B347C878045300111E53A1214D25808AC
:10148000BDA108040B908002C201300211E53B129D
:1014900014D25808BDA108040B008002C202300318
:1014A0000F1214D05808BDA108040B108002C2030B
:1014B00020010620020330030A0B807E73699EBC64
:1014C0007818B37A6B907A7B007E1D357A1B1022D8
:1014D000E53C7C781212E57D13BDB122CA3B7CC687
:1014E0007CD77CEB7C7D1212E57A3531BEC0017869
:1014F000377CFDBED00028117CBE7C7D1B7012178E
:101500000808060A3D1B347CF77E73699E0A271B78
:10151000240A3DBD3258407CBE7C7D0B70121708FA
:1015200008350A7D0B74802F7CFEBEE000280E7CFF
:10153000BE1412170608060A3E1B347CF77E736938
:101540009D0A271B240A3EBD32580C7CBE0412178C
:101550000608040A7E0B747CBFDA3B22CA3B7CD7A8
:101560007CCB7C7D1212E57A352D7A352F7E1800E2
:101570002C12F4B512176E1217127E18002B12F4EB
:10158000B512174BBEB003280AE52ABEB0032803E4
:10159000E4C1186CEEE52ABEB12950417AD12C1273
:1015A00017127CFC800C121755BEB00338090BE0F3
:1015B0001BF0BEF00058EF7AD12C1217127CFC8081
:1015C0000C121755BEB003380C0BE00BF07E73699C
:1015D0009DBC7F18EC4CEE683D1BE0803912170F64
:1015E0007CFD800C121735BEB00338090BE01BF0F0
:1015F000BEF00058EF12170F7CFD800C121735BE9D
:10160000B003380C0BE00BF07E73699EBC7F18ECC6
:101610004CEE68021BE07CBEDA3B22CA3B7A0D31FD
:101620007CD77CCB7AC13D7C7DE53D12F0485803E8
:1016300012F4AD7AC139800F121726581112F0F842
:10164000580312F2CC1539E539BEB00058EA0A5CED
:101650000B54F539800F121726581312F0F858035F
:1016600012F2CC05397E73699DBE713918E812F407
:10167000A55803753AFF12F14BBE253B480512F4FD
:101680009D0803753AFE12F071DA3B22CA3B7A0DCF
:10169000317CC77CDB7AC13D7E713D12F048580336
:1016A00012F4AD7AC13980147CBD7E713912172ACB
:1016B000581112F0F8580312F2CC1539E539BEB0C2
:1016C0000058E50A5C0B54F53980147CBD7E7139F5
:1016D00012172A581312F0F8580312F2CC05397E6B
:1016E00073699EBE713918E312F4A55803753AFF69
:1016F00012F14BBE253B480512F49D0803753AFED6
:1017000012F071DA3B227C7D1212E5BE3531227A6D
:10171000C12B7E352D7A352F227D3EE5287C5C7CE1
:101720004F7C3E6C2222E5397C7D1212E57D737E72
:10173000353EBD3722E52B7C7F6C661214DCF52B21
:101740007E18002B7A1D35E52B7C7F7E08002F123A
:10175000161BF529227CBF7E712C7E60011214DCE1
:10176000F52C7E18002C7A1D357CBF7E712C7E08EE
:10177000002F12168CF52A221298991212F912765D
:101780002812758212772C12113612780312113634
:10179000128D2F12113612767512117B12752612C8
:1017A0009A720217A5CA3B7ED367660A3D3E34CAC9
:1017B000397E1865647E087D281205241BFD6C1196
:1017C0007528006CCC0218677E4403FF7EE0FF6C36
:1017D000FF80437CBF12111A603A12F3C0BEB0FF03
:1017E000683209037D290A207402ACBC09058E19F0
:1017F0001219637D137402ACBF09057D280A207499
:1018000002ACBC09058E181219632D13BD412804C2
:101810007D417CEF0BF0BCDF38B9BEE0FF68467E4F
:101820007002AC7E09B37D2809737D291212E57D13
:10183000237402ACBE09B57D2812000EBD234825D5
:101840007E7002AC7E09037D287EA1287402A41953
:10185000057D6409037D2919057D6574FF19B37D34
:10186000280B1005280BC07E038E54BC0C280302E5
:1018700017C87CC180656D007EE0FF6CFF80337C03
:10188000BF12111A602A7E3002AC3F09B17D28BE1A
:10189000B0FF681C09717D291212E57D43BD045813
:1018A0000F12F3C0F52909B37D29F52A7D047CEFD9
:1018B0000BF0BCDF38C9BEE0FF681E7EA129128F85
:1018C0008819A17D64E52A19B17D657EA0FF7E306F
:1018D00002AC3E19A17D2805280BC012196A389662
:1018E000900204E4937CAB7402A4CA597E187D6410
:1018F0007E087D281205241BFD7ED128121FB97495
:1019000002AC7B7E088E1874FF120026BED0002821
:10191000380A3D3E34CA397E187D287E0865641237
:1019200005241BFD0A3D3E34CA397E187D287E08F9
:101930008E181205241BFD6CCC800A7CBC7E7001C5
:101940001274EB0BC0BCDC38F27AD38E547AD367B6
:1019500066900203E493BEB3676650047AB3676689
:10196000DA3B220A309D32020549900203E493BC1F
:10197000BC22CA3B7F617F707E087D4E12A12F7E04
:10198000087D58121C287E087D621267D87E94005C
:101990001E7DB97EA765609EA4001E7E8765629E3F
:1019A00084001E6CCC61540A3C2D3D7D2C7E1BB006
:1019B000B401028002418212F22DB401067403398F
:1019C000B000012D3F7D2E29B10001B40302800239
:1019D00041660A3C09638BD50A2C09728BC1BC672E
:1019E000400241627EB38E64B401777CBC7D3B7D56
:1019F0002A7D197D0812A02650680A3C2E348BD50A
:101A000012F47D74010A3C19B37D4E7EA00312F2DC
:101A1000B26CFF80467E700DAC7F09D3679BBCCD56
:101A200078372E3467977E140029740D1203F77EE1
:101A30000867977EB3696D7C7F128E8D401B7402A0
:101A40000A3C19B38BFD7E700DAC7F12A283AC3CB7
:101A50002E148C8B740D1203F70BF012A26F38B595
:101A6000613A6CAA801712A27670057EA002800DE2
:101A700012A276B402028002613A7EA00212F2B291
:101A8000613A12F22DBEB0026804600261260A2C8F
:101A900009A28D0D4CAA780874010A2C19B28BCBBF
:101AA0000A2C09228BCB09328BDFBC3250410A2C25
:101AB00009B28BF370390A2C2E248BDF7CB3047AA5
:101AC00029B0740212F48D74010A2C19B27D5819D0
:101AD000B28BE9E419B28BCB4CAA785E7E2400016C
:101AE0007CBC60053E241478FB4E278C0780317443
:101AF0000112F48DE40A2C19B28BD519B28BDF19BF
:101B0000B28BE919B28BF319B28BCB7E2400017C26
:101B1000BC60053E241478FB6E24FFFF5E278C0713
:101B20007A278C078014740312A137E40A3C19B396
:101B30008BD519B38BDF19B38BE912F41A7E0B70B6
:101B4000397000017F172D35297100010A2C197297
:101B50008D0D0BC012196A280221A76CEE6CCC8087
:101B60001A7E700DAC7C09D3679B0A2D09B27D4E9D
:101B700070072E34679712F0900BC07E73696DBCAE
:101B80007C38DE7528006CCC80470A3C09B37D5850
:101B9000603D05286CFF7E900DAC9F09D48C0DBC78
:101BA000CD782549348C0912F41A79300002493471
:101BB0008C0B7F072D15793000047E700DAC7F2EC5
:101BC000348C0912F09080070BF0BEF00A40C70B6E
:101BD000C012196A38B47CFE6CCC801B7408ACBC93
:101BE0007F172D357E1BB0B4010B7CAF0BF0740D4D
:101BF000A419C57D660BC012196A38E06CCC12F3CB
:101C0000372E148C09740D1203F712F3371266EA9B
:101C10000BC0BEC00A40E77AE3696D7EB38D17251D
:101C2000287AB38D17DA3B227E34000A020026CAD6
:101C3000F86CAA80407EF0037E9008AC9A7F102D4D
:101C4000347A1BF074037F102D3439B100017E34D7
:101C50007FFF7F702DF4793700027F702DF4793784
:101C60000004E47F102D3439B100067F102D343983
:101C7000B100070BA0121CBC38BB12F41174011286
:101C800000267E088BCB12A12F7E088BE9121C2820
:101C90007E088BF3121C287E088BD5121C287E0828
:101CA0008BDF121C287E088BFD121C287E088C09F5
:101CB0001267D86D337A378C07DAF822900203E482
:101CC00093BCBA22CA69CAF87E48691D6CAA801AF8
:101CD00012A6CF1962679B74FF0A4A19B47D3CE4CF
:101CE00019B47D2819B47D320BA0121CBC38E17EDA
:101CF00063696DA5BE003B7EB38D177002E1926CE7
:101D0000AA80287E247FFF7E3008AC3A7F742DF1B4
:101D1000792700022D197D08792000047E3002AC5D
:101D20003A59218D2C59218D180BA0121CBC38D387
:101D3000E1927EB38D177033BE6000282E6CAA80AE
:101D40002012F2BFAC3A12F0E8AC5A12F42374013C
:101D50000A4A19B47D287E500DAC5A19A2679B0B14
:101D6000A07E63696DBC6A38D8E1926CAA80197E46
:101D7000447FFF12F49559422D3259422D34594275
:101D80002D5A59422D5C0BA0121CBC38E27E638D8B
:101D900017BE63696D280ABE600240057E7001802F
:101DA000026C776CAAC1566CFFC14D7E5008AC5FC7
:101DB0007F642DD269060002BE047FFF7802C14B0A
:101DC0000A1F09B17D326002C14BA5BF01607E5080
:101DD00002AC5F49428D2CBE447FFF685149E28DC1
:101DE0002C69F600027D4F9D4E2D4F49E28D1869FA
:101DF000F600047D2F9D2E2D2FBE44000058026D4D
:101E000044BE24000058026D227EF76560BDF45880
:101E1000047E4765607EF76562BDF258047E2765E3
:101E20006212F3A2594F2D32592F2D34800F12F325
:101E3000A2590F2D3269060004590F2D340A0A19D0
:101E4000F07D3C740119B17D3280090BF0126FF006
:101E50002802A1AB0BA07E638D17BC6A2802A1A744
:101E60006CAA80207E7008AC7A7F042D1369300044
:101E7000027E5002AC5A59328D2C6930000459321E
:101E80008D180BA0121FB9BC7A38D96CAA802B0A06
:101E90002A09B27D3CB4FF206CFF80180A4F09B4B8
:101EA0007D32700E0A2A19F27D3C740119B47D321C
:101EB00080060BF0BC7F38E40BA0BC7A38D16CAA4A
:101EC000801A7E700DAC7A4943679712F495594297
:101ED0002D5A4933679959322D5C0BA07EB3696D39
:101EE000BCBA38DE7E342D327A377D487E342D5AA6
:101EF0007A377D4A7E342D827A377D4C7E738D17FA
:101F00007A737D467E73696D7A737D477E087D4660
:101F100012335E6CAA804A7E70FF6CFF80197E507F
:101F200002AC5F49122D820A2ABD2178080A3F09B6
:101F3000737D3C80070BF0126FF038E2BE70FF68D3
:101F40001E7E500DAC5A1972679B74010A4719B472
:101F50007D2812F2BFAC3712F0E8AC5712F4230B15
:101F6000A07E63696DBC6A38AE6CAA80200A3A090B
:101F7000B37D28BEB001681312A7BE7F042D13796C
:101F80004000022D397D28794100040BA0121CBCB1
:101F900038DB121FAD12A13F121FAD12A0857AB31C
:101FA0008D17121FAD121972DAF8DA69227F047EDA
:101FB000187D282274FF120026900203E4937C7B94
:101FC00022121FB9740DAC7B7E086797121FB47480
:101FD0000DAC7B7E08689B121FB4740DAC7B7E0831
:101FE000681974FF1200267E08691D121C2F7E08D6
:101FF000696D7E34000DE402002670057CB702593D
:1020000068B4A00FA5BF01047402800274017AB302
:102010008EAD22B401197E0F2D2E7D217A278EBC24
:102020006D227A278E977A738DB17CB7023804BE01
:10203000B05C383D0A2B19728DB07C6B2E60E36862
:10204000162E60F7681F2E600D78337E638DC812E0
:10205000207F7A378E95227E638DCC12207F3E348E
:102060007A378E97227E638DD512207F7A738E5CAD
:1020700022BEB0704008BEB07F3803022088227CA8
:10208000466C550A372D3222248A78197E0F8ED459
:10209000A5BF00081220B75E70FB80061220B74E65
:1020A00070041B0A30222E14000E0B0A305E60FDF5
:1020B0001B0A307E0F8ED42E14000E0B0A3022CA5B
:1020C000B8CA1BCA0B120FB15E348000681C0B0A21
:1020D000305E34800068131220B76E70401B0A30E7
:1020E0007E34800012213D1254F4120FB15E340090
:1020F0000268190B0A305E34000268101220A61222
:1021000057B47E34000212213D1254F4120FB15E16
:10211000340001681F0B0A305E340001681612207B
:10212000B74E60021220B012EDAB7E3400011221D6
:102130003D125519C2C1DA0BDA1BDAB8327E0F8EA6
:10214000D479300002221254E768191246C11220D5
:10215000B34E60021220B012EDAB1247ACE47AB37A
:102160008EC4802E120007120066E41247AE7E0F66
:102170008ED42E14000A12F0017AB38E5E7AB3590F
:10218000607AB38EC47E0F8ED41220A61257B4127A
:1021900047931271FF124BB802219B7401122EE873
:1021A0006CAA7E638E887E7008AC6709B359AB0A4F
:1021B0002B7E3002AC3A2E1402D71281E9BD23786F
:1021C000047AA339617E501EAC5A197239650BA08E
:1021D000BEA00378CD7E733961BE70034005E47AFA
:1021E000B339617EB3396112CDB27E7339617A73CE
:1021F00039F7227CABD20512E7B91BA068341BA0CB
:1022000068461BA0780241931BA068590BA2680284
:1022100041A2D2081226C47E348D4012231612F336
:102220000B1254CC1243D61220B31254CC1246DEF9
:10223000802ED20612269A12F1951222A712F1953B
:1022400012233E12232280541254E77807D2081238
:1022500026C48005D20612269A7E348D5612231685
:102260001257D2803F7E34000BCA397E638E8FAC0A
:10227000672E348D406D227E0880001205241BFDE0
:102280007E3400017A3780007E3480001223167479
:102290000480097E348D6112231674037AB38E6232
:1022A0008002C205A205221227F4793000121247DB
:1022B000580B0A305E607F1B0A30E540541F0A2B22
:1022C00012232DE54112237A12232DE542540312E5
:1022D000237C3E2412232D7E353EBE340002783509
:1022E0001247580B0A304E60801B0A30E543541FDA
:1022F0007C4B6C5512232DE54454010A5BC42354D6
:10230000E07CABE412F1871B0A30E545125EED126A
:10231000F1871B0A30227E14003E740B1203F71261
:1023200022A774017AB38D6FD230D22F227E0F8E06
:10233000D42E1400120B0A304D321B0A302212EE3A
:10234000335E70F812EE304E70031B0A301227F421
:1023500079300024E546541F0A2B122691122335AA
:10236000E54712237A122691122335E548540312C9
:10237000237C3E2412269102233554010A2B3E244D
:102380003E243E243E243E24227A1F025E74017EB7
:102390001F025E6D227E14005A7E10817F717D3196
:1023A0006D222F171B1C70527E1400017E2F81732B
:1023B0007912000612261D1B2A106D117E2F8173C3
:1023C000791200087E2F817312F1D57E2F817C1245
:1023D000EF7F7E2F817C12262112F4357E2F817CA7
:1023E00012F10F7E2F817C12EEF97E2F817C12EF8D
:1023F000B41223807E0F817C8053B4015B7E140075
:10240000017E2F817C791200067E2F817C1226218D
:102410001B2A106D117E2F817C791200087E2F817E
:102420007C12F1D57E2F817312EF7F12261D12F4DC
:10243000357E2F817312F10F7E2F817312EEF97E9C
:102440002F817312EFB41223807E0F81730B0A3039
:102450005E70EF4D321B0A3022CA7BCA79CA2BCA82
:102460001BCA0BA921A202C10B75A7F774017AB38D
:102470008E91E5A4B43F028002A1B27EB38E1244D5
:10248000027AB38E1220E002A1A0743F7AB3818059
:102490007EF381777CBF20E708E4CAB8125A7AA19C
:1024A000967CBF20E702C1057EE38EAE7CBE30E0A5
:1024B0002A7CBE54FE122616CAB87E378E972E3757
:1024C0008EBC12262ADAB812239C7E1D16693100B2
:1024D000032E378E977A378E97C1057CBE30E12365
:1024E0007CBE54FD122616CAB87E378E952E378EC6
:1024F000B512262ADAB81226892E378E957A378EAB
:1025000095C1057CBE30E3237CBE54F7122616CA63
:10251000B87E378EB92E378EA812262ADAB8122640
:10252000892E378EB97A378EB9C1057CBE30E42941
:102530007CBE54EF7AB38EAE301C067E1801AA80A2
:10254000047E1802047A1F025E7401CAB87E1F025C
:102550005E6D227E14005A803D7CBE30E5157CBE47
:1025600054DF122616CAB87E348EAF6D227E1781D4
:102570007980237CBE30E60F7CBE54BF122616CA7B
:10258000B87E348E9D80097401CAB87E35140B3430
:102590006D227E178179122630DAB812239C80656D
:1025A000301C067E1801AA80047E180204122389BA
:1025B0008053E5A4B4C01B7EB38E1244017AB38E5F
:1025C0001274C07AB38180125A797E100112239C52
:1025D0008033E5A4B4050E74057AB381807EB3819F
:1025E00072F5A480237EB38E1244087AB38E12E56E
:1025F000A424C67813301C067E1801AA80047E1815
:102600000204122389125EBDA9C1A3DA0BDA1BDA18
:102610002BDA79DA7B327AB38EAE7401227E2F8187
:10262000730B560B2A105E20FC226D227E178179D7
:102630007CBF232354010354807C1B4E1001227E57
:1026400034593B302142C2217E39500A2512237E63
:102650007A27697C095300010A2512237E7A2769AB
:102660007E095300020A2512237E7A2769820953C4
:1026700000030A2512237E7A276984097300051254
:10268000F0853E347A37698C2212239C7E3781791B
:10269000227E0F8ED42E14002422A2069209124606
:1026A000FD12F3EE12ED3612F3E512ED3612EEB333
:1026B00012F0B30226B67D123E342E34A0006D22F5
:1026C0001B1A1022A20892091246FDA208920912B2
:1026D000F3EE12ECFCA208920912F3E512ECFC12E4
:1026E000EEB312F0B30226B6CAF86CFF74EEACBFBC
:1026F0007DD52ED401001257F60AC73EC43EC43E13
:10270000C40BC6097559AC0AB73EB43EB43EB40B0F
:10271000B67EA4002C7AA52C7EA400087AA52E12E1
:10272000F2F37D3C7D2B12EEC77D3C7D2B12EDF745
:102730007D3C7D2B742A12ECE412F1781226B6123D
:10274000F1691226B612F15A1226B612F178122742
:102750006712F16912276712F15A1227670BF0BE50
:10276000F0044088DAF8227D123E342E34B0006D39
:10277000221B1A102212E4FB7E349D027A37792044
:102780007E3769E17A3779227E3443217A3779249A
:102790007E3412347A3779267E3452057A37792896
:1027A000C2081226C41254E76805D20612269A7E81
:1027B00034001E7E0878DC7E240022123B8B12EE51
:1027C000BE1227677E3400217E2779221227677E7A
:1027D0003400397E0879247E2400030227DE7D53ED
:1027E0003E542E54B0006D446D33800312EF1BBD78
:1027F0003240F9226D337E0F8ED422E47AB35960D1
:102800006D337A378EB97AB38E9A12F42CC20012D5
:102810002ECD7E340520CA397E1F2D2A7E0F2D2E07
:102820001205241BFD12282E12CF6C020C5FE47AD5
:10283000B38D6F12F31712EF63C20412284E12E821
:102840000F400674037AB38D6FD20402284EA2ACF7
:10285000920512F37930040A0B160B0A304E7003FE
:1028600080080B160B0A305E70FC1B0A30A2059222
:10287000AC221229A0C20412284EC20C300B18D26E
:10288000041228A1C20B122146122F20122FCD7440
:1028900001122EE81200F4D20402284E12282ED281
:1028A000041251BA80111257CA4003125212300B4F
:1028B000031252121229A012F46568EA30040302CE
:1028C00044A1221227FB7EB38EC9B40302800221E9
:1028D0004F740412598B12295C122B1E7EB38DB0DB
:1028E00020E7077EB38DC1B40160122B0B6805C2CF
:1028F000041228A1122872300E0AC20ED200122E23
:10290000CD12282E122B0B6805125676800E12550A
:102910008D7EB38DDC7E738E8E12569F7EB38E8F2E
:10292000B4010A122B0B6805C2041228A17EB36FF2
:1029300093B4010C129E3D12EB39129C25121778AC
:102940007EB38DB0547F7AB38DB0123FBA01C6D238
:1029500024D2041228A112000A020C2B1228727E23
:10296000B36F94600D8006122B1E122872124AE576
:1029700050F57EB36F95600D8006122B1E122872E3
:10298000124E7550F5022988301D147E340008CA95
:10299000397E638E8812F27E1205241BFDC21D2231
:1029A00030313912308F7834C2317E342800122B06
:1029B000137E341000122B137E34F700745A122940
:1029C000DD7E34F70174A51229DD7E34F70274959B
:1029D0001229DD7E34F70374270229DD2212F01854
:1029E0000A3B7E0F8ECF79300008125EF9E47AB38D
:1029F0008ED3800E12F1BE5E3400016805122FDC0A
:102A0000800512F26468ED12E49D12E49078FB02F6
:102A10002A126D331B0A30C2CC221254E7780241CD
:102A2000D17E738EE8BE7008500241D1E47AB38E35
:102A3000E830340241D17E34AC00122AD27C9B7E35
:102A4000340A00122AD27AB37D287E340B00122A6F
:102A5000D27AB37D297E340D00122AD27AB37D2A30
:102A60007E34F801122AD27AB37D2B7E34F802121A
:102A70002AD27AB37D2C5E900178137EB37D28B480
:102A80009C0C7EB37D2970067EB37D2A60114C9923
:102A900068097E34AC0074011229DDD23480127EC4
:102AA000B37D2BB487097EB37D2CBEB0196802D2EA
:102AB0003430341D7E342800E41229DD7E341000C9
:102AC000E41229DDA9C0947E34000212465BA9D02D
:102AD000942212F0186D337E0F8ECF7930000A12D7
:102AE0005EF9E47AB38ED3800E12F1BE5E3400013B
:102AF0006805122FDC800512F26468ED12E49D1265
:102B0000E49078FB6950000A022A127EB38DC1BEA0
:102B1000B00122E41229DD7E34004602465B7E3499
:102B200009C46D227A278EC57A378EC722CA3B7CAC
:102B3000DB7E3403E87A352D7E343E807A352F7E75
:102B4000376F960B367A35297E9003AC9D09A459D0
:102B5000E10ADA6DCC7E1405DC7F161203677F0173
:102B6000097459DF7CB7600C1E141E0450034E20FC
:102B7000801478F47D217A252B7EF400047CB760E4
:102B8000053EF41478FB0AEABDEF68167E143E8019
:102B900012F3597DE37AE52F7E1403E812F3597A94
:102BA000352D122EA47E3402D8E41200267E087D34
:102BB000287E3402D874FF1200267E081386124F36
:102BC000D47EC005122B1EBEC00758137E340001F0
:102BD0007CBC60053E341478FB7CB7F52880037517
:102BE00028C0BEC006581D6D7780110A2D12E93E1F
:102BF0002D3712E94E45287A39B00B747E376F961F
:102C0000BD3738E7122EA2122CBD12289C7E181355
:102C1000867A1D317E352D7A35377E352F7A3539D6
:102C20007CBC7E352B7E087D287E51287C4D12E8A9
:102C3000B9200B06200C03202F07202F7DD22E80D9
:102C4000791BC0BEC000480261C47EB38DD0B40100
:102C5000107EB38DD1B401097EB38EADBEB00268D3
:102C6000346D7780287D273E2449321386BE352D6A
:102C70002819BE352F501409777D28BE70FF680BC8
:102C80000A0D122FEB2D2719725A000B747E376F25
:102C900096BD3738D0122EA2122CBD7CBD1274778F
:102CA00050157E0862887E3529740C120026740344
:102CB0007E086288122CBD122FCDDA3B22CA3B7FE0
:102CC000607CAB6DEEBEA0044002A1CE7408A409E6
:102CD000B559AFF5317403123D9E7EA769D97EB711
:102CE00069D72DBA7E087A4A7E34016D74FF1200CE
:102CF000267E087BB77E34016D1200266D77801129
:102D00007D373E34492369F3122FE319727BB70BE9
:102D100074BDA738EB7D7A80117DA73EA4492A694E
:102D2000F3122FE319727A4A0B74BDB738EB6D3387
:102D30007DF37DE37D737D271E241E247CAF7E07FB
:102D400079127CBA60051E041478FB5E04000F7EC5
:102D5000177916122FF478027DF27E0779247CBA57
:102D600060051E041478FB5E04000F7E177928129C
:102D70002FF478027DE20B76BE74000F40B812F19A
:102D80001E7D737D372D3F09737A4A19777B6E7DDF
:102D9000372D3E09737BB719777CDB0B74BE74004B
:102DA0002478E07ED13174EEACDB2E6401002E6419
:102DB00000357E0880007E187A4A122E94123B8BD2
:102DC0007E0880007E187BB7122E941227DEDA3B35
:102DD00022CA797F717EA0256C776C666C556C4435
:102DE000C1707C97AC9A0AD42D4D7EF049ACF77D2A
:102DF000D7A5BC000B7EC40124122E827DC7802A79
:102E0000A5BC12127EC40147122E827DB77EC4017A
:102E10004812F2D38014A5BC24157EC4016B122E77
:102E2000827DB77EC4016C12F2D3122EBE803FBEEB
:102E30004012501E7EB401259DBD0AC62DCB122E18
:102E4000847DB77EA401269DAD0AC6122EB30B6108
:102E5000801C7EB401499DBD0AC52DCB122E847DF8
:102E6000B77EA4014A9DAD0AC5122EB30B510B408B
:102E7000BCA42802A1E20B70BE70055002A1DADAF0
:102E800079229DCD7F572DBC7E5BB00ABB7D7B7CBC
:102E9000EF6CFF22122DD17D367E0880007E24004B
:102EA000B9227CBD0A0D7E1402D8AD102E145A0032
:102EB0006D00222DCA7F472D9C7E4BB00ACB2DCBB7
:102EC0007EF002ACF97F502DB71B5AC0226D337AC9
:102ED000378E97D2041228A1123835124BB8122F10
:102EE00020A200E433022EE87CABE47AB339627AA4
:102EF000B339636C776D227E901EAC975924396785
:102F000059243969E419B439660B70A5BF03E6E4A6
:102F10007AB339BF7AB339644CAA68031200F42239
:102F20007E1F2D2E7A378EBC7E638E880A06122F66
:102F3000EB2E245A007A278EB56D227A278E957E45
:102F40002469F37A278EA87E240008CA297E700897
:102F500012F27E1205241BFD7E340005CA397E6301
:102F60008E88AC672E3459CB6D227E088DF0120509
:102F7000241BFD7EB38E88123B36122FC50975596E
:102F8000EB7A738DD0122FC5097559EC7A738DD1F8
:102F9000122FC5097559ED7A738DD2122FC5097597
:102FA00059EE7A738DD3122FC5097559EF7A738D47
:102FB000D47E738E887A738DE0022FBC7E738E8FE1
:102FC0007A738DBC227EA38E887405A422E47AB322
:102FD0008E90022FD56D337A378EC02274017AB36A
:102FE0008ED3227F062D177E0B70227E1402D8AD61
:102FF000107D21220A125E14000FBD01227C7B7E0F
:10300000A0FF7CB7248C682424FB683014684C141F
:10301000683A14684B146848240778707E1F8ED471
:103020006951000E5E5400047CAB80607E1F8ED41C
:10303000695100065E5400017CAB80507E1F8ED427
:10304000693100065E3404000A56800712308F0A88
:10305000561E541E541E547CAB80317EA1EF802C32
:103060007E638E5C7CB6047AB38E5C0A2609A28EDF
:10307000687EB38DD6047AB38DD670097EB38DD5B4
:10308000047AB38DD5A5BF7D03751F7C7CBA227EE3
:103090001F8ED4693100065E3408002212308F780A
:1030A000097E34B480740A0229DD2275A400E4127A
:1030B000315112E70E12E3D512E4B112E463122B80
:1030C0001E12E4AA12E0C912E45E12E0CE12E0D5AC
:1030D00012E3F312E3FD12E40D12313612309C12AA
:1030E000599312E41F12E71B12E60CD2AF90018A2B
:1030F000E493CAB812312E7E244331DAB812316C0F
:1031000090018AE493CAB812312E7E244121DAB8A4
:10311000123184023116A927C11312308F780E7E26
:1031200034F31E122AD27E34F4C10229DD2290012A
:103130008BE4937C7B2212EE3FE47E3401F4023177
:10314000417CAB7402A47E0F8ED82D15793000100F
:1031500022D2CFA9C7CBF5CC75E600C20002316000
:10316000A9D5C31246DEA200A997C122543F5E70C2
:103170003F12EF47593100327E378EE35923001456
:10318000A9C6CB2212EF475931003E7E378EE35954
:1031900023003C1231A94E70101B2830A9C6CB2247
:1031A0000A5B030354C07CABE47E278EE32E24002D
:1031B000380B28302212331F1231A91237FDA20515
:1031C000E4331231A04D351B28301232D60231D0F3
:1031D0006930000A1231F7A9C6CB227A377D307EDA
:1031E000087D28A9D6CBC23812332212354C12F3EF
:1031F000801232DC0231D07D037EA1CD75CD00C2BC
:10320000AF8002D2AF7EB38E1220E2F77D204E5007
:103210000112360A4D121B38106C99000B90BE90AB
:103220000878F8D2AF80427E178EE30B18105E1438
:103230000008BE1400087831C2AF8002D2AF7EB35E
:103240008E1220E2F7BE0400D078077E340002120E
:1032500046E212360A4E30041B3810D2386C990000
:103260000B90BE900878F8D2AF12F1CC5E3480009B
:1032700068B50B28304E60401B28306D221232E0BA
:103280007AA1CD227F7112EE4312F1A21233537C48
:103290004B6C55E5280A3B4D321236122977000255
:1032A00012F0857E7B406C554D23297700047C64A9
:1032B0004C75123552297700017C47297700037C31
:1032C0006412367A1231A91237FD6D221232E07E75
:1032D0003400300231D429B0000354077C4B6C55C4
:1032E0007E378EE31B38202212331F6930000C1208
:1032F00035526930000E1236121232D60231D0A980
:10330000D6CB693000021236716930000412F271B6
:1033100012333E6D221232E07E3400600231D4A9B5
:10332000D6CB693000047E278EE359320004693021
:1033300000067E278EE359320006693000087E279A
:103340008EE3593200087E0B707C476C5529700063
:10335000010A372D327E278EE35932000C22CAF83B
:103360007F707E7BF029770001BC7F28027CF769A3
:103370001700066D007E3400F274FF1200267F07EE
:103380001232FFA9D6CB6CAA802D6C77801F7E10DD
:103390000BAC1A0A172D013E04691700062D106D9B
:1033A000000B0A206E24FFFF1B0A200B7029670008
:1033B00001BC6738D90BA07E7B60BC6A38CC69370A
:1033C00000061236717C4F6C550A3F1233536D2242
:1033D0001232E012F37912F3D31B0A30D2AC7E34EE
:1033E00000D01231F712EFFB6CAABEA00450157E7C
:1033F0007004AC7A1234564944002660341E4414DA
:1034000078FB802DBEA00850140A3A1B36123452A5
:1034100049440028601B1E441478FB80140A3A9E1D
:103420003400081234524944002A60051E441478BE
:10343000FB5E44000F7E5002AC5A693700062D3205
:103440006D221B1A400BA0BEA00B409EA9C6CBDA72
:10345000F8223E343E347CB77E478EE322A9D6CB99
:10346000692000047E578EE3592500046920000876
:103470007E578EE3592500087E0B500A557CABE43D
:10348000295000010A252D257E578EE35925000C71
:10349000295000020A2512F3DC12367A6D2212320C
:1034A000E07E3400400231D47F7112F43D12367157
:1034B0006930000812F27112EE62297000017C4737
:1034C0006C557E0B70123351297000020A371B3481
:1034D00012367A6930000A1235526930000C123601
:1034E000126930000E7E278EE359320012693000D7
:1034F000107E278EE359320030297000037C47127A
:1035000032DE7E3400A01236694923001A7A7B50DD
:103510004923001C3957000149230016792700026E
:10352000492300187927000449230022792700063F
:1035300049230024792700084923001E7927000A1F
:10354000493300207937000CA9C6CB22297000022C
:103550000A377E278EE35932000E22CAF87C8B7E12
:10356000681DC67E93699C7A937D297E93699B7AB8
:10357000937D2812CEC4BE800278067E682806801D
:10358000047E681DC66CFF7E701EAC7F09B3397265
:10359000606EBE8002780649F33981800449F339B0
:1035A000797D3F7A377D2C7D3D7A377D2E7D3F12A8
:1035B00031DB7EB38E88127477400D7EB38E5F70E0
:1035C0001C7EB38E8FB4011512368C7A377D2C7E1B
:1035D0003422E67A377D2E12368C1231DB302D15EF
:1035E0001236837A377D2C7E3428067A377D2E1268
:1035F00036831231DB6CAA7E701EAC7F19A3397240
:103600000BF0BEF0034080DAF8227E378EE30B38F1
:1036100010227E278EE359320010227F20A9D6CBBC
:10362000691200047E078EE3591000046912000835
:103630007E078EE3591000087E2B307C036C112925
:103640003200010A132D107E078EE35910000C1270
:10365000F3DC1236126D221232E07E3480401236D4
:10366000694933003AA9C6CB221231F77E378EE37F
:10367000227E278EE359320004227E278EE35932C0
:10368000000A22741EACBF4935398122741EACBFBA
:103690004935397D227DF17DE27DD312CED412F100
:1036A000E77E087D287D3E7D2F02361B7F617F707F
:1036B00012CED412F1E37D3F7A377D307E34002084
:1036C0001257DB0231E3CA3BF5347F317A0D2C12FD
:1036D000282E753500803D300B031252121254DA39
:1036E000E535701B7E180E667A1D367E0D2C7E1811
:1036F0000E661236AC7E0D2C123733053580157EE2
:103700001813867A1D3A7F037E1813861236AC7F13
:103710000312373312F46568BE1244A17E1818A64E
:103720007E0D301236AC7E0D307EB359C012373D5F
:10373000DA3B227EA1347408A409B559B07F600A2F
:10374000FB1272B07C7B0A572E54000B7E180001CE
:1037500060052F111478FB2F112F117D1F1203709C
:10376000BEF4000468387E33699B7A337D287E334B
:10377000699C7A337D29740B7AB37D2A7DED7AE7D3
:103780007D2C7AE77D30BEF40002380BE47AB37DFD
:103790002A7E3400048D3F7E087D2802345D22CAD3
:1037A000F87CFB7A1D307A0D2C7E180E667A1D345B
:1037B00012289C7E0D2C7E1D341236AC20030D7E0B
:1037C000B38E5F70117EB38E8FB4010A7E1813869C
:1037D0007E0D301236AC7E0D2C7408ACBF1237391A
:1037E00020030D7EB38E5F70117EB38E8FB4010AFD
:1037F0007E0D307408ACBF123739DAF8225E60BF34
:103800001B2830222452680A0478296D337A378EB7
:1038100097227E63699B7E73699CAC763E347A37CF
:103820008E971E340A367A738DCC7E378E971E346F
:103830007A738DCD221254E77807E47AB38E8880AC
:10384000127EB38E88B4020874027AB38E88800325
:10385000123B077AB38E8F74021238957EB38E882E
:103860002400680E24FD68070BB1780C0246C102E3
:103870003B07E4123895800002387B12F02E780660
:10388000E47AB38E8F221220B71257BB12EE0912C0
:1038900047610246E2CA3B7CEBBEE004400241E1E4
:1038A0007408ACBE09F559AFBEF004400241E1090D
:1038B0007559AB0A47126EF90B467A4528097559B6
:1038C000AC0A673E643E643E640B667E503CAC5F6F
:1038D0002E2479520B28304E70011B28307408AC0E
:1038E000BE097559B22E70FF920112E76312ED9A6C
:1038F0007E9008AC9E09B459AEF52A7E703CAC7F30
:103900007D13123B002E3479846D2209B459AD1217
:10391000ED477E303CAC3F123B007E3528123AF436
:1039200012F2FF7D36123AFA7E303CAC3F2E14790B
:103930005E6D007408ACBE09B559B012ECC312F24A
:10394000FF7403ACBE09B559DF12EDBA12E8AD6DD4
:10395000331200167E303CAC3F123B2F7E7005AC1C
:103960007E123F897E303CAC3F123B2F7405ACBECB
:10397000123F53123BA1ACBE123F6C123BA1ACBE36
:10398000123F0F12E88C120016D20112EDFD12ED5B
:10399000847E303CAC3F2E1479686D00123B206D64
:1039A00022123B1712EDB212F2E7123B20123B1724
:1039B00012EDD17E503CAC5F2E2479660B28307E10
:1039C000340002743CACBF5935796E743CACBF59BD
:1039D0003579706D33743CACBF593579727E3422C1
:1039E00005743CACBF593579747E340006743CAC28
:1039F000BF593579767E340012743CACBF593579A5
:103A000078743CACBF5935797A743CACBF59357980
:103A10007C7E340808743CACBF5935797E6D3374B4
:103A20003CACBF593579867E340001743CACBF593B
:103A30003579807E340C1C743CACBF593579827E5C
:103A4000503CAC5F2E2479840B28304E3441961BB9
:103A500028307E341F00743CACBF59357988BEE0F5
:103A60000378197E340351743CACBF593579627EBA
:103A7000340404123B0E7E34042980077E340A1974
:103A8000123B0E743CACBF5935798C7E34002C7AD5
:103A9000352C7E3400087A352E12F2F37E35287DDF
:103AA0002612EEC77E35287D2612EDF77E35287D5D
:103AB00026742A12ECE47403123D9E74EEACBF7DB2
:103AC000B52EB401007D3B12E7637E24001E123B3D
:103AD0008B7D3B2E34000B12F2E77E24000312276D
:103AE000DEDA3B220B0A305E34FC001B0A304D321A
:103AF0001B0A3022123FDD023AEB123FDD023AEBA5
:103B00002E1479546D002274017AB38E8822743C8D
:103B1000ACBF5935798A227408ACBE09B559B122B7
:103B20007E7005AC7E2E3459CB227E303CAC392ED3
:103B30001479646D00227C8B7408ACB8099559AF78
:103B4000123B2A7E7005AC78123F89123B2A74051D
:103B5000ACB8123F537E303CAC39123BA6ACB81225
:103B60003F6C7E303CAC39123BA6ACB8123F0F74B0
:103B700003123D9E7E70EEAC792E3401002E34008F
:103B800009123B2A7E240002023B8B7D533E542EB9
:103B900054A0006D446D33800312EF1BBD3240F919
:103BA000227E303CAC3F2E1479666D00740522CA2B
:103BB000796DEE7403123D9E7EC769D97ED769D7B1
:103BC0002DDC7E087D287E34005CE41200266DAA80
:103BD000801E7DBA3EB449BB69F3123D977E140046
:103BE0000160053E141478FB7D2B123D8E12F0A26D
:103BF000BDCA38DE7DAC802B7DCA3EC449BC69F3AA
:103C0000123D977E24000160053E241478FB7D3B25
:103C1000120B5B3E342E347D280B38C04DC21B384E
:103C2000C00BA4BDDA38D16DAA80287D3A3E342E6F
:103C3000340192123DF87D525E54000F7E34000133
:103C400060053E341478FB123D883E242E247D28E6
:103C5000123FF2900191E4930A3BBD3A38CD6DAA30
:103C600080287D3A3E342E3401A3123DF87D525E09
:103C700054000F7E34000160053E341478FB123D81
:103C8000883E242E247D56123FF29001A2E4930A2E
:103C90003BBD3A38CD6D337DF37DE37DA37DBA1E08
:103CA000B41EB47D2A7CB57E17791260051E1414EB
:103CB00078FB5E14000F7E277916123FD478027DC0
:103CC000FB7D2A7CB57E17792460051E141478FBD1
:103CD0005E14000F7E277928123FD478027DEB0B0B
:103CE000A6BEA4000F40B612F11E7DA37DBA2EB46D
:103CF00001247D5A2D5F123FE73E4449747D285EC2
:103D000054000F60051E741478FB123D970A1F6063
:103D1000053E141478FB7D2B123D8E3E242E247D0F
:103D2000280B28304D311B28307D5A2D5E123FE77D
:103D30003E4449747D565E54000F60051E7414782D
:103D4000FB123D970A1F60053E141478FB7D2B1271
:103D50003D8E12F0A2BEA4002478916DAA7E94003C
:103D6000EEAD9A2E94011E7D397E087D287E2400BA
:103D700017123B8B7D397E087D561227DE0BA4BEC1
:103D8000A4000440D8DA79227D136E14FFFF1E24AC
:103D90001E241E241E24227D5B5E54000F227CAB59
:103DA0007E0878E07CBA123F227E087920123F22FA
:103DB00012EEB30227677EB769D77EA769D9E412EE
:103DC0003D9E7E3401007E0869E36D22123EFF7E37
:103DD0000869F37D2A123EFF7D1A3E142E1469F302
:103DE0006D007D2B123B8B7D3B2E3401007E0869DC
:103DF000E37E240004023B8B7E2400FF0B1A20226A
:103E0000CAD8CA797CF67D927CE77CDB12F46D1906
:103E1000A08989E419B0898B19B0898C19B0898A75
:103E20007E8402A07D387E2400FF0B1A001E041E33
:103E300004BD014008123EF87E500180257D3812F5
:103E40003DF87E340003AD327D031E041E04BD0127
:103E500038137E3402A0123F07BD814008123EF89D
:103E60006C5512D00B7E340292123F071E841E84C2
:103E7000BD892808123EF87E500180277E340292C8
:103E8000123DF87E340003AD327D831E841E84BD56
:103E90008950137E340292120971BD394008123ED6
:103EA000F86C551296DB1287EF680DBEB0026808F9
:103EB000BEB0036803B404247439ACBF09758989A2
:103EC0000965898B196589891975898B0975898CAB
:103ED0000965898A1965898C1975898A7E5039AC7A
:103EE0005F0962898C1E602E24898A7E29702C7657
:103EF0007A2970DA79DAD8227CBD7C7E7C6F221236
:103F000027DE7E340100227E2400FF0B1A80220966
:103F1000B559EF0B0A305E60F31B0A3012F1000254
:103F200023350B0A305E7003B403054E700C800617
:103F3000B404034E70101B0A3022CAF812E749126B
:103F40003BAF6CFF7CBF1238950BF0BEF00440F421
:103F5000DAF82209B559ED0B0A305E603F1B0A30D2
:103F6000125EED0B0A304D351B0A302209B559EEB1
:103F70000B0A305E60CF1B0A3054030A5B12437198
:103F80000B0A304D351B0A302209B359EB0973591E
:103F9000EC0B0A205E40C31B0A2054030A5B124349
:103FA000710B0A204D251B0A207CB712F100022359
:103FB0003512277512001E023F3A122FBC7E738EF7
:103FC0005E7A738DB712F42CE47AB3696E7AB369B2
:103FD0006D020C2B0A245E24000FBD12227D230BE0
:103FE0000A305E34F800227D451E441E441E441EE5
:103FF00044220B28305D311B28300BA422123FDFF6
:104000001B0A304E352E1B0A30227C6B6C777EB338
:104010008DB0C47C5B5E5007A5BD0402800201DA4E
:104020007CB62496BEB02C400201F17EA003A49081
:104030004033730240B70240B70240BE0240BE02A6
:1040400040C50240C50240F10240F10240F1024089
:10405000F10240F10240F10240F10240F10240F170
:104060000240F10240F10240F10240F10240F1024F
:1040700040F10240F10240F10240F10240F1024001
:10408000F10240F10240F10240F10240F10240F140
:104090000240F10240F10240F10240F10240F1021F
:1040A00040F10240F10240F10240F10240CC0240F6
:1040B000CC0240D30240D31240F44401802F12407E
:1040C000F4440880281240F4440280211240F44451
:1040D00020801A1240F444408013A5BD0013BE6036
:1040E00001400EBE606E38091240F444107AB38E5F
:1040F000AE7CB7227E70017EB38EAE22CAF86DFF11
:104100007EB38E1230E00330E3071242B3F5A441D0
:104110007E1243007DE3BEE40002500241647E1D36
:10412000167E1BB0BEB0C06803B43F0C74807AB377
:1041300081727E70801242937E6D167E6BF0BEF0AF
:10414000C0680221E629A600017CBA30E60F7E1F76
:10415000817C6931000A4D3368031242A87EB38125
:104160007230E202417429B60002F51F7AB38178F9
:104170007AA381777CBAC4037C7B5E70017CB70331
:104180000354C07C7B7CBA54BF4CB77AB381777C34
:10419000BA540FBEB003400469F600037AF7817980
:1041A000BEF4000038024174740112428A20E70212
:1041B00041746D447EB5140BB46DAAE51F7D3F7F3D
:1041C0000512400A600241748012E51F1242D97D37
:1041D000340B442D3B7D2A7A1BB0051F7D5F1BF4F9
:1041E0004D5578E641747E6BB0B43F6A7EB3817BF7
:1041F000B40163E412428A20E77A30E50F7E1F8122
:104200007C6951000A4D5568031242A87EB3817241
:1042100020E2616D447ED5120BD46DCC7D5E1B54C3
:10422000BE57817928087E5781797DF580047DFE0F
:104230001BF47EB38178F51F8012E51F7DE40B44EB
:104240007F162D3E7E1B701242C4051F7D5F1BF43E
:104250004D5578E6801EBEF00568194CFF681512B2
:10426000429D80107E1D167E1BB0BEB005680560A5
:104270000312429D1242B37E738172124293E47A1A
:10428000B381807AB38181DAF8227AB3817B7EB3FD
:104290008177227A71A47E55147A5970227EB38177
:1042A0007244087AB38172227EB3817244047AB375
:1042B0008172227EB38172547F7AB3817244017A13
:1042C000B38172227C6B1242F878057CB60245C538
:1042D000B404057CB6021FFA227C7B6CAA1242F859
:1042E00078097CB71258647CAB800AB404077CB7A9
:1042F0001210067CAB7CBA227EB38DB0C454072268
:1043000075A6007E61A65E603F75A6407EA1A65E92
:10431000A03F75A6807E71A65E703F0A2A12237E9A
:104320003E240A561243714D257C644C75227C9BB9
:10433000298100020AE87D5E7CABE47DE5298100ED
:10434000030A58C454F07CABE42DE5298100010A2E
:10435000F83EF43EF43EF43EF42DFE7E1B800A58F7
:104360002D5F1B0A50298100040A38793000020AA7
:1043700059C454F07CABE4227C347C257CA67C17A9
:104380007C0B1245BB5E80037CBA125EED4D457C12
:10439000B054030A5B1243714D457CB154037C0B4E
:1043A0006C113E043E044D401B1A407E34A0140B99
:1043B0001A405E80C37CB254030A5B12437102430D
:1043C000C14D457CB354030A5B7CABE43E543E5480
:1043D0004D451B1A40227EB38E887E70027E60029D
:1043E0007C367CB71245BB5E80C354030A5B124324
:1043F000710243C17EB38D6FB40102800281937E4E
:10440000738D6CBE738D6E286C7E638D6E7E7009AD
:10441000AC6749538D7A7CAB7E438D777E5002AC7E
:10442000452D3249338D7C7A35554D336847D23529
:104430001BA068101BA0680C1BA0681A1BA06804B6
:104440000BA27831E41244C4300F04740280027469
:1044500001124497801F74011244C4300F04740287
:104460008002740112449774037E70036C666C556D
:104470006C4412437812E82D381C74027AB38D6FA5
:104480007EB38E8F70101243D61220B35E70EF1B76
:104490000A30220244A1227EA38D770A3A19B38DF5
:1044A00070A2AC920A7E0F8ED40B0A305E341000DC
:1044B00068087E34100079300002C2AC12EFFBA213
:1044C0000A92AC22CA797C3B7EF5556DEE7EA38DB7
:1044D000774C3368047E7818A6203502A1AAA9D7A4
:1044E000EA7E076F967E240009A5BB00236D337D0D
:1044F000D33ED47E5F7A422DBD694500067EF0141E
:10450000ACFA2DD7594D79340B34BE34000578DF21
:104510007D323E347E5F7A422DB37F472E94000079
:104520006D447D34800C0B5AD01B4AD00BB50B95D3
:104530000B347ED76F96BDD338EC2D2D7D347CB7F0
:104540007EC4000160053EC41478FB7E23699F0A87
:10455000D25DDC68147DB20B243EB47E6F7A422DAE
:10456000DB0B6AB01245AD80076DBB1245AD0B2465
:104570000B34BE34000478C6A5BB00297D347D43CE
:104580002D423E447E0F7A422D14694000067E3053
:1045900014AC3A7D033E042D105941792A0B34BEE8
:1045A00034000578D9A9C7EAC235DA79227DA00B93
:1045B000043EA47F672DDA1B6AB0227E34A0126D00
:1045C000220B1A40227CA77C3BA5BB9A0A7AA30344
:1045D000DE1277D51277DFA5BB00077CBA125968C7
:1045E0008013BE3080400EBE30EF38097CB324808B
:1045F0007C7A125FD3A5BBFC057CBA024611A5BB31
:10460000FD08BEA05A7809D2312274017AB359FF4D
:104610002224AB681024EF681C24DE682624DE7890
:104620002F7405802D7EB359FFB4052A1246571208
:10463000E0D90200467EB359FFB4051A12465775F9
:10464000E9FF227EB359FFB4050C12465702004021
:1046500074017AB359FF227E3400017D0380147EF9
:10466000A00480077E3400FA1246E27C7A1BA0A5E3
:10467000BF00F17D101B044D1178E42275E76BE457
:104680007E3401047E2400FE7A1BB07E3401057A5C
:104690001BB075E9FF22E47AB359601200071200DB
:1046A000661246B0C2187EB3595FB40102D28622A8
:1046B000123B077AB38E8F1246C17EB38E8F024BA8
:1046C000BC12F02E7806E47AB38E8F221220B75EE9
:1046D00070FB1B0A301247491247610246E27E34E2
:1046E000006480107E2400028001007D121B244D96
:1046F0001178F7007D131B344D1178E822A2133096
:104700000901B35043A209921330092AA9D5C3A9BC
:10471000D4C3A9D3C77E3400601246E2A9D4C7A986
:10472000D5C77E3400801246E2A9D7C3A9D6C37E7E
:104730003401A00246E2A9C7C3A9C6C3A9C4C7A938
:10474000C5C7A9C5C3A9C3C7221220B34E60801B29
:104750000A30124758025F167E0F8ED42E140014B2
:1047600022D201124770D20612269A7E34000A2203
:10477000A20192027E0878EE12ECD212F0B6022666
:10478000B61254E768061246C10247ACE41247AEBF
:104790000247931220B35E607F12EE1F5E700F1B04
:1047A0000A30C201124770D2080226C474017AB3DB
:1047B0008E8F7AB38E88227EB38D78B4010A12462A
:1047C000577E3400780246E2227E73677B7A7367F5
:1047D0007C7E738BC00A177E73696D0A272D217C3E
:1047E000657A63696E7E63019E0A260A379D327E72
:1047F0005302779D327A730276E47AB369717E73DD
:104800008E5E7A735966227E54004E7E4400FF12FB
:104810004AD130225BC2227E1400A57E34FFB01242
:1048200048717E14FF5A7E34FFB21B1A107E1400AA
:10483000AA7E34FFB41B1A106D331249FBBE34003C
:104840000378F7124A157D137E34FFB61248717E45
:1048500033597B7E34FFB87A1B307E33597C7E34EB
:10486000FFBA7A1B307E3359467E34FFBC7A1B3048
:10487000227E2400FE1B1A10227E34088D7E240026
:10488000FF7E147D34124AB5124ABD1B0A307E24C5
:1048900000A57E14FFD01B0A207E24FF5A7E14FF41
:1048A000D21B0A207E2400AA7E14FFD41B0A207E7D
:1048B0002400557E14FFD61B0A207E2400667E1439
:1048C000FFD81B0A207E2400997E14FFDA1B0A20E1
:1048D000124AC66D442E4400FE0B2A2059217D3415
:1048E0000B34BE34000640E87E087D3412497B7DDF
:1048F000137E34FFDC0248717E3408997E2400FF69
:104900007E147D28124AB5124AC6124A05BE3400EA
:104910000678F47E087D2812497B7D237E14FFDC17
:10492000124982784A7E34FFD21249737D236E2465
:10493000FFFF7E14FFD012498278347E34FFD412F8
:104940004973BE3400AA78277E34FFD6124973BE5D
:10495000340055781A7E34FFD8124973BE3400668D
:10496000780D7E34FFDA124973BE34009968030271
:104970004879227E2400FE0B1A30227E34000C027D
:104980004A1D7E0400FE0B0A30BD32227E540054C4
:104990007E4400FF124AD16D331249FBBE3400033E
:1049A00078F7124A157D237E14FFB6124982784AA1
:1049B0007E34FFB21249737D236E24FFFF7E14FF05
:1049C000B012498278347E34FFB4124973BE340089
:1049D000AA78277E34FFB87E2400FE7E1B707A738F
:1049E000597B7E34FFBA7E1B707A73597C7E34FF0C
:1049F000BC7E1B707A735946D221227D133E147DF2
:104A0000512E54FFB06D442E4400FE0B2A20592134
:104A10007D280B34227E087D287E3400067D237E8F
:104A200034FFFF6D55802B7F702DF57E7B806C9958
:104A30006DFF7DE46DE35EE4800068083E346E3413
:104A4000102180023E343E440BF4BEF4000878E2AC
:104A50000B54BD2538D1221248F87EB38EC9B4015B
:104A6000537E538E88A5BD014B6D117D3180190A8F
:104A7000457E5402D8AD547D052D0109405A00BE33
:104A8000400550020B340B147E43699C7EB3699B36
:104A9000ACB4BD5138D9BE3400502815124ABD0BF4
:104AA0000A30BE340005500C0B341B0A3075E9FF88
:104AB0002202487922740C1204416D33227E14FFC5
:104AC000DE7E0400FE227D133E147D512E54FFD065
:104AD0002269320004692200020B2A107A1F7D2A03
:104AE0007A177D2822CAF87EF38E88200B03300CBB
:104AF00003C36178C22E124B7B60053E341478FBF1
:104B00007E536F946C445C574D22686B4E736F9567
:104B10007A736F95124FA4124B824003C3805920C1
:104B20000B06200C03302E03C3804D124A57124B44
:104B30007B60053E341478FB6E70FF5E736F947A71
:104B4000736F94BEF00178297E3402D8CA397E187A
:104B50005CD87E085FB01205241BFD74027E085FDE
:104B6000B0122CBD7EB36F9454FB7AB36F94124F86
:104B7000EE124FF9D38001D3DAF8227E3400017CA3
:104B8000BF22CAF87CFBC200D2016D337A378E5740
:104B90007EB38E8FB40107D2007404124BBC7CBF6D
:104BA000124CD592013001057CBF122B2D30000331
:104BB000124BB8A201DAF8227EB38E8F7CAB124C76
:104BC000C11BA068111BA068151BA168160BA27859
:104BD00017124C108012124C3C124C58800A124C86
:104BE0002980057401124CAA024BEBE47AB38D794B
:104BF0006CAA80137E7009AC7A09B38D822EB38DB6
:104C0000797AB38D790BA07EB38D6CBCBA38E5226E
:104C10006D33124C4F7E578D40124C6DE4024C2088
:104C20007AB38D737AB38D74227E340002124C4FA6
:104C30007E578D56124C6D7402024C207E3400015A
:104C4000124C4F7E578D4B124C6D7401024C207EDE
:104C5000240E667E141386227E340003124C4F7E8F
:104C6000578D61124C6D74037AB38D75227C1B7D58
:104C7000437EA38D6CBEA006502E7E7009AC7A597F
:104C8000438D7A59238D7C59138D7EBE4400017863
:104C9000067E2418A6800059238D8019138D827CEE
:104CA000BA047AB38D6CC322D3227E340004124C32
:104CB0004F124C6D7E738E887A738D737A738D74F8
:104CC00022E47AB38D6C12F3177AB38D6F12EF630F
:104CD0007AB38D79227C2BC2027E333961741EAC8B
:104CE000B3093539657CB2124D0B6C226CAA7E106B
:104CF0001EAC1A192039710BA0BEA00378F0300247
:104D0000087CB3124DA31226E8D3227CAB6C777ECD
:104D10006339F7BC6778086C66124D42E48017125D
:104D20004D4C60053E441478FB124D9A680C7E6031
:104D300001124D42740119B439720B70BE700340F8
:104D4000CE227E901EAC9719643971227E440001F8
:104D50007CBA227CAB6C777E6339F7BC6778046CD5
:104D6000668022124D4C60053E441478FB124D9A29
:104D700068067E6001124D907E636F950A265D2461
:104D800068067E6001124D900B70BE700340C82211
:104D90007E501EAC5719623972227E636F940A26C8
:104DA0005D2422CAF87CAB6CFF7E7008AC7F19A32F
:104DB00059AB0BF0BEF00478F06CFF7408ACBF097F
:104DC000A559AB12EFE4123B007D3F123AF47D3E51
:104DD0000B34743CACBF4925795412E88912EFCDED
:104DE000BEF00440D6DAF8227CBF7E733961D21F50
:104DF000741EACB709B53965124DA30226E8CA790D
:104E00007CFBC2027CBF124D536CEEBEF002741EDE
:104E10007805124F92800AACBE4935397949253957
:104E2000777A1D28741EACBE09B53972602D124FF9
:104E3000A47C7E124DEED202302D13741E124F92BE
:104E40007A1D30124F7F124F871236C6800D124FD7
:104E50007F741EACBE124F8712379F200B03300C9D
:104E600009300203124DE8C380080BE0BEE00340A6
:104E70009AD3DA7922CAF8C2007EF38E88200B0317
:104E8000300C03C3E17C124FCD60053E241478FB47
:104E9000124FAC7802E17B7CBF1274775002D200D3
:104EA000D2041228A130001F7E736F950A375E343A
:104EB000000468137E736F940A375E340004780729
:104EC000D22D124FC68002C22DA20092017CBF12C9
:104ED0004DFE400B302D05124F9DC22DC3E17C7C51
:104EE000BF7E7339F7124DEEE47C7F12569F302D52
:104EF0000F7E1828067A1D30124FB71236C680066C
:104F0000124FB712379F302D03124F9D124DE820DC
:104F10000B03300C05C22DC3806212282E7CBF12F9
:104F2000355BE4122EE8124B7B60053E341478FBAF
:104F30006E70FF5E736F957A736F95122FCD302D63
:104F400034C22D7E3428067E240BB87E142328120A
:104F50003695BE340258500C7EB36F9444047AB335
:104F60006F94800A7EB36F9554FB7AB36F957E0879
:104F700018A6124FD4124FF9D38001D3DAF822A227
:104F80000192037E0D28224935397D4925397B7CE4
:104F9000BF22ACBE493539814925397F2274037A55
:104FA000B38D5522D2041228A17CBF227E736F9547
:104FB0006C665C754D3322A20092037E0F2D2A7E13
:104FC0001822E67CBF2274027AB38D55227E24001B
:104FD000017CBF227E340520E4020026E5E920E7BB
:104FE00003024879227EB38E887C7F024DEE7EB329
:104FF0006F9544047AB36F95227E7359457EB359F9
:1050000060702A7EB38E8F704B7E635943BE6014EE
:1050100028057E60148007A5BE00037E60010A2675
:105020007E3400641203247C67804580277E0F8EC7
:10503000D4692000065E240001780E7E635944BEC8
:10504000607F282C7E607F80277EB38EBFBEB03C01
:10505000680270100A277E3401F48D329E340005F8
:105060007C67800C0A277E3403E88D321B367C6710
:105070007E735967AC677E2400181203247A738EFE
:1050800059C2126D337A378E57227EB38EE5047A79
:10509000B38EE57E738EE57A73594C227EB32E74FF
:1050A00070147EB35960BEB003680B12BBF7120CCC
:1050B0002B1250B8D322C322301642301711125689
:1050C0006A68091246B07EB38EBE70FA12282E7E30
:1050D000B38E8FB402277EB38E887E2400016005D4
:1050E0003E241478FB7E736F94124FB07805124FF4
:1050F000AC680774017AB38D702202282E22201228
:10510000061251611200211250B812517840061255
:10511000516A02002122E47AB35960123B077AB344
:105120006F93122146122F2012575412CF6C740124
:10513000122EE812B2FA1200F412BB6502513F902F
:1051400001B3E493601A6CAA0A3A2E3400061211D5
:10515000110A3B2E3401B41211110A3A19B38EDD33
:105160002280031251993012FA221251BA8003128E
:10517000519912517B50F8221251BA1257CA40036A
:10518000125212300B031252127EB38D7070067ED3
:10519000B38D716002D322C322800B12520B1251C5
:1051A00078401620121312006E70F012520B125437
:1051B000D374027E70950252D522E47AB38E922285
:1051C0001251BA12517B400612516A120021C208D4
:1051D0001226C4C20012528C80167EB3598B600D09
:1051E0007EB38E6370071252A18005800012519920
:1051F0003012E77EB38E63BEB0002805147AB38EFA
:1052000063D20012528CD2080226C474817AB38E03
:105210005D2230300612550E02553C221253857E17
:10522000B38E8F70051251C080031250FE025230AF
:105230007EA03B7EB35960B4010F7EB38E8F6009B0
:105240007EB38EC470031254AA7EB35960B4013B7E
:105250007EB38E8F60297E738EC4BC7A7806201848
:10526000031254727EB38EC47AB38EBF047AB38EA7
:10527000C47E738EC4BE703C2805E47AB38EC47EAF
:10528000B35962BEB001680302546522A200A99519
:10529000CBA200A992CBA200A992CAA200A991CB4D
:1052A0002212006E702E12520B7EB38E8BB4010D43
:1052B0007E340FA07A378EC2E47AB38E8B7E378E1F
:1052C000C24D337804740180051254D374027E7089
:1052D000810252D5227C6B7EB38E5DB48145A5BE22
:1052E00000028039A5BE011CC2AF0A275E2400025D
:1052F0006802D2957A71CDA9D0CEA9C6C9A9D187A5
:10530000D2AF8019A5BE021BC2AF12006E700C7A1C
:1053100071CDA9D0CEA9D6C9A9D187D2AF0000003E
:10532000000000E47AB38E5D227E378EC50B347A9E
:10533000378EC57E378EC7BE378EC528030257C24B
:105340002212520B12E84A12387BC201124770C275
:10535000081226C412F30B5E70EF1220B01254CC68
:10536000A9C4C3C20012537774016C771252D5D20C
:1053700000125377022146A9D0CE300004A9D5C926
:1053800022A9C5C922302324C2237E7359397A73D6
:10539000596074FF7AB359397EA359604CAA7805D5
:1053A0001254658007BEA0017802D2153015031291
:1053B00054837E378945BE340078280312547C7E9E
:1053C000B3596014685B1BB1687224036802816181
:1053D0001254C4380A1254BC68051254B428181266
:1053E0002FD57EB3594130E07B7EB3598B600320CB
:1053F000102C30186F80277EB3594130E0667E371D
:105400008EC07E2403E88D327E5359420A25BD3278
:10541000500C7EB3598B604CBE34000140460254A0
:10542000831254C438107EB35941600A1254BC68C8
:10543000051254B42803025527C210227E34020BF1
:10544000120971122B2212534112570E1254657E0B
:10545000B38E8F700312282E7EB38E8F6006025596
:105460005812547C22E47AB35960D212122FD5021A
:1054700054721254E76804D217C2142274017AB32A
:105480005960227EB38E8FB4010C7EB32E756006F8
:10549000E47AB3596022C21512547C122FD5E47AF3
:1054A000B38EC47AB38EBF0254AA1254E76804D2F2
:1054B00014C217227E738BC0BE7000227EB303D746
:1054C000BEB001227E73696DBE7000224E70101B4B
:1054D0000A3022A9D5EAA9C5EA221251BA12517B93
:1054E00050FB22D20BD20E7E1F8ED4693100065E95
:1054F000340001221254E378030254FD22125507AE
:10550000202F0302553C2230300312550E22A9D21F
:10551000EAA9C2EAC230C22F221254E36808E47A30
:10552000B38E5A0254FD227EB3598B700330180893
:10553000201008201805800002546522200D031257
:1055400044A1E47AB38E6274037AB38D6F74027AE5
:10555000B38D707AB38D7122301407D216C2140243
:10556000E83630171B12566A680E1246B0800320C8
:105570000B067EB38EBE70F7300B0E1228728009B8
:105580003016067EB38E8F700302282E22CA79D27F
:10559000001254DA7EE38D780A3E09B38D70603CC8
:1055A0000A3B1B347CA77AA38DDBB4010474018011
:1055B00001E47AB32E74E40A3E19B38D7009F38DB9
:1055C000737AF38E647CBE7C7F12569F7CBE7C7F98
:1055D00012CF177EB38D78047AB38D787EB32E7494
:1055E000BEB00168077EB38EC9B4033B7403ACBF81
:1055F00009B559E17E0F2D2612373D7CBE7C7F1206
:10560000748392003000207AE32E757AE38DDC12E9
:1056100057F67A7339DC7AF38E8E1256D47CBE7CC0
:105620007F12CE4E1277F81256967E738D780A3717
:10563000BD324818125660D2041228A112287212E4
:10564000CAF57E34080012213D1255587CBE7C7F7D
:105650001272C97CBF7C7E12CB7312E3BCDA792252
:105660003014061220B31257BB22C217C2167EB3E3
:105670008E88BEB00122CAF86CFF12558D0BF01255
:1056800056960A3FBD3248F27EB38DDC7E738E881B
:1056900012569FDAF8227E738D790A271B24221472
:1056A000682114682E0BB1781A7E080E667A0F2DC9
:1056B000267E081DC67A0F2D2AA5BF02167E182841
:1056C00006800C7E1813867A1F2D267E1822E67A15
:1056D0001F2D2A2212CEE0E47AB37D2A7E1F2D26CA
:1056E0007A377D2C1257E47EB36F93700BE47AB354
:1056F0007D2B7E340020801074017AB37D2B7E1FB9
:105700002D2A7A377D2E6D331257DB0231E37E343A
:105710000209120971122B221230AB12575B12F0E0
:105720002E681A7F2012574C4E60021B2A307E2FA3
:105730008ED412574C5E70FD1B2A3080061220A6B4
:105740001257B412F3631257540200F42E54000E91
:105750000B2A30227E340DAC022B22126FF812700D
:10576000E81270B6127192120FBA12097912579795
:10577000121FC112C87112478112219B02577FD29A
:1057800025D226129EEB7E182E7A7A1F03F17E1800
:10579000339A7A1F03F5227E0865647E340219125B
:1057A00057ED7C7B740DAC7B7E0865E074FF0200D6
:1057B000260253294E70021B0A30224E70041B0A27
:1057C0003022E59A6003A9D6DF227E738E92BE70E6
:1057D00064221247580B0A300257B47A377D327E62
:1057E000087D28227E1F2D2E7A377D3022E412007C
:1057F0002690020493227408ACBF097559AB227E2F
:10580000A3896F7E7004AC7A0B34BE378E1040399A
:105810007E378E100B347A378E10BE340001780537
:105820007EB3598E22BE34000278037CBA22BE3485
:10583000000250097D231B2509B239FA229E34004B
:10584000032E3785827E39B02274FF227E738DB09D
:105850007CA75EA00F7CB72354010354804EB38E07
:10586000134CBA22700302584CBEB0033813301CDC
:10587000067E1801AA80047E1802047A1F025E8048
:1058800005BEB06E380E0A1B7E1F025E2D311B3422
:105890007E1BB022BEB0D36803B4D412B4D30A6D59
:1058A000337A378E10C2198002151F0257FFB48059
:1058B000057EB3593B22BEB080280CBEB0EF38073E
:1058C0000A3B09B358BB22B4FC057EB3596222B42B
:1058D000FD05A231E43322B4FE0C7EA38E88740849
:1058E000A409B559AB2274FF22CA7BCA6BCA5BCA32
:1058F0002BCA1BCA0BC083C082A9C093A9D3A7120D
:1059000040FC7EA38E127CBA30E105E47AB38E911E
:105910007CBA30E30A7CBA20E005E47AB38E917554
:10592000A7FFA9D1A37CBA54FB7AB38E1230E30649
:1059300054F77AB38E127EB38E1230E10C54FD7A96
:10594000B38E1254FE7AB38E127E738E9ABE700698
:105950004005E47AB38E9AD082D083DA0BDA1BDA70
:105960002BDA5BDA6BDA7B327AB38DB0C45407B4CE
:10597000040474038004700774017AB359622274BA
:10598000017AB35962E47AB38DB022C454F07AB389
:105990008E1322E47AB38DB07EB38E1254FB7AB3A9
:1059A0008E127E0801AA125A867E0802047E3400F6
:1059B0003E1200267E1801AA7A1F025E751E00752F
:1059C0001F007EB38DB0F5910259CB0259CEA9D7F5
:1059D000CA75A7FF75F30175A30A75A5E075A60042
:1059E000C2CEA9D6EA43EB3C43EC3C75A40174015A
:1059F0007AB381721259FCD2EED2E8227E1480B0C2
:105A00007E1F817C1B1A106D337E0F817C793000E4
:105A1000027E0F817C7930000A125ED77E0F817C76
:105A20000B0A304E70081B0A306D117E1F81731BEC
:105A30001A106D337E0F81737930000A7E34000FA7
:105A4000125EB47E0F81730B0A305E70F71B0A3052
:105A50007E35126D227A1D167E5381727E35147A40
:105A60003950125A797E108112239C74017E3514AC
:105A7000125A7D7E100102239CE47E35120B346D98
:105A8000227E1401FF227E34003E74FF020026CAEB
:105A90003B7CDB7528006CCC752900752A006CEE08
:105AA0007531037E18691D7A1F7D287532007E4886
:105AB00001AA7EB3598B7004C2198009301906748B
:105AC000017AB36973E47AB3019E7AB302777EB345
:105AD0006976700E7EB3697270087EB36973700266
:105AE000A160301C067E48020480047E4801AA7F23
:105AF00004125A867F042E14003E7E34001C120EBF
:105B00000F8197740DACBF493568197A352B740D28
:105B1000ACBF4935681B125D9DF52F900203E493DD
:105B2000BEB12F380281957EA12F5EA00F7408A40C
:105B30007E1F7D282D357E1BB0F5317E18002B7A17
:105B40001D347E18002D7A1D38E52F7E0800317E29
:105B5000352B7E252D12601C7E352DBE3408FC5061
:105B6000247E112F2E1008A5E7701A7E700DAC7FD1
:105B700009B36820097368217E612F7E5131125F5D
:105B80002040028195E531BEB00378028195E53170
:105B9000B4014275300080337E7130740DAC7B09E6
:105BA000B30107540FBEB12F781F493301037A3573
:105BB0002B7EA130740DA4493501057A352D7E1157
:105BC0002F2E1008E4A5F7800C0530900203E49313
:105BD000BEB13038C38528347E0800297E18002ADB
:105BE0007CBF125DBB301B08C21B752928752A0AB1
:105BF0007533008015E5330A3B09737022BE712F9F
:105C00007806752928752A0A05337E736FE5BE71FB
:105C10003338E27E352B5E600F7A352B7E352D5E74
:105C2000600F7A352D740DACBF0975681D0A5712C7
:105C300043717D352E352D125D9DBEB0FF6817E591
:105C400031BEB001680205280BE0E531125EEF7D40
:105C5000352E352B80077E352B2E34C0007A352B20
:105C60007E252B7E7006AC7C7F042D1379200002EC
:105C70007E252D7F042D1379200004E5292D397D03
:105C80002839B100067EA12A7E7006AC7C2D3939F8
:105C9000A100070BC00BF07E73697ABC7F280261FC
:105CA000037EB3598BB40149740139B4003E7E734D
:105CB000598E397400407EB36973B401397E73899B
:105CC0006F397400416CFF801E7404ACBF49458578
:105CD000847F142D3579410042493585867F042D16
:105CE00015793000440BF07E73896FBC7F38DA8001
:105CF00005E439B4003EE52839B400017E73696FCC
:105D00007A4B707E4BB0540F7A4BB024907A4BB0E4
:105D10007EB3598BB401247EB36973B40133D219B5
:105D200074647AB38E637532014CDD6804B21CC2B0
:105D300086125DA9124657D2868016BEE000281151
:105D40007532014CDD6807B21C1247B7C286125D7E
:105D5000A9E47AB369767AB369727AB36973800613
:105D60004CDD6802D2866CFF80167E300DAC3F7D24
:105D7000312E3468192E140103740D1203F70BF041
:105D8000121FB9BC7F38E34CEE780D740DAC7B7EEE
:105D900008010374FF120026E532DA3B227A352D22
:105DA000740DACBF09B5681D227EB3028C047AB3B2
:105DB000028C7E73028C7A73594A22CA797CFB7FEB
:105DC000617F50740DACBF09B5681EF535740DAC1C
:105DD000BF09B5681F1EB0BEB00F2802740FC454AF
:105DE000F0F536740DACBF09E5681D7E73697ABCA9
:105DF0007E28557EB36974702A75370F7E0800358A
:105E00000A3E2E3401946D227401125E6D753720A6
:105E10007E0800360A3E2E3401A06D227410125EF8
:105E20006D800E0A3E09B30194F53509B301A0F562
:105E300036125EE4B40111E40A3E19B3019419B3B9
:105E400001A07535007536007EB3698EB4FF1185EB
:105E50003435753500125DA0BEB0FF68037535019D
:105E6000E5357A5BB0E5367A6BB0DA79227C9B7FD8
:105E7000717E7B804C8878077E0B907A7B90220A1B
:105E8000287E0B800A389D32120549E5370A2BBD62
:105E90003208157E7BA07E0BB0BCBA7CBA28042CDD
:105EA000B980029CB97A7BB07E7B707A0B702274C9
:105EB00001025A8F7E0F81737930000C2275A7FF83
:105EC000125ED7125EB47EB38E1244047AB38E1281
:105ED0007E0F817C025F167E34000F7E0F817C79FD
:105EE00030000C227408ACBE09B5691D2254030AA7
:105EF0005B030354C07CABE4227E0F8ED80B0A30C8
:105F00005E70FD1B0A307E3400017E0F8ED8793022
:105F100000047E0F8ED80B0A304E70011B0A30220F
:105F20007C167C077C9BBE100A4002C322A5BD00E4
:105F30001474010A1119B101896D117402ACB159BF
:105F4000150262805FBE50016804A5BD03120A31CC
:105F500009B301896002C322740119B30189D322F4
:105F6000A5BD0240125FCC7402ACB149250262BDEE
:105F700023581E59350262492502620E2459250212
:105F800078BE240190081D7E140190591502788076
:105F90001349150278BD13080B7EB30277047AB358
:105FA0000277C3220A1109B10189601E125FCCBEBB
:105FB000370100580E201B0B7EB3019E047AB301FB
:105FC0009EC322E40A3119B30189D3227CB97C70C3
:105FD0000212E57C6B24DD684224FD683E1BB1683B
:105FE0003A24FA68361468338000A5BE2507D22308
:105FF0007A73593922BE60406809BE60416804A5C1
:10600000BE0B02D222A5BE500AA5BF010674057AB6
:10601000B38E630A261972593BD22122CAF87D42F7
:106020007DF37F607CFB6D007DB07D307DE07EB3D5
:106030008E8860067EB38E8F7004C21A41C07EA720
:1060400065607E176562201A02413C7EA3696DBEC1
:10605000A00128187EB30102BCBF680241C07E6B5C
:10606000B0B40204E47A6BB0C21A41C04CAA7839C9
:106070007E530102BC5F680241C07E6BB0B4012553
:10608000E47A6BB012631FD21B7AB3697212633762
:106090001267777CBF7E1701857E07018712661A1B
:1060A0007CBF126781C21A41C07E530102BC5F6887
:1060B0000241C01262DF6805BEA00278227E6BB08A
:1060C000B4021AE47A6BB005577D349E370187120B
:1060D00062E7183AE557BEB0045033802A802FBEDD
:1060E000A0036805BEA00478337E6BB0B4021FE441
:1060F0007A6BB005577D3F9E3701851262E7180E17
:10610000E557BEB004500774037A6BB041C07DBF41
:106110009EB701857D349E3701878004E47A6BB099
:106120001262DF783DBE340000180241307D233E0C
:10613000247EE701879DE2BEE4000058046DEE80F6
:106140000EBE3400050808BEE4003258026DEE129F
:10615000630E58046D008050BDA0504C7D0A8048ED
:106160004130BEA002784BBE340000480241307D71
:10617000033E047EE701879DE0BD1E50047DE18063
:10618000187D042E040005BE070187500C7D019E7A
:10619000040032BD0E50027DE112630E58046D0002
:1061A0008006BDA050027D0A7E1D341B1A004133BB
:1061B000807EBEA003783CBEB4000058731262FE1D
:1061C000BDA050047D0A80187DBF2EB40005BEB767
:1061D0000185500C7DBA9EB4001EBDB050027D0AF0
:1061E0001262EF58046DEE803FBD1E503B7DE18092
:1061F00037803DBEA004783BBEB400000832126276
:10620000FEBE04000058046D00800EBEB4000508F8
:1062100008BEE4001E58026D001262EF58046DEED5
:106220008006BD1E50027DE17E1D381B1AE08003F2
:1062300012631FC21AE47AB3019341C07E6BB0703F
:10624000217EB3696DB4011ABE4400C85014BEF477
:10625000003B280EBEF403FC50081262C374011206
:1062600062D77E6BA04CAA78287EB3696DB40121F9
:10627000BE44085B281BBEF4003B2815BEF403FC9B
:10628000500F1262C374021262D77C1F1266E28042
:106290002F4CAA78127EB3696DB4010BBEF403E7EC
:1062A00028051262C380164CAA78157EB3696DB4B6
:1062B000010EBEF4005050081262C374041262D77B
:1062C000DAF82274037A6BB07AF301027AF7018567
:1062D0007A470187D21A227AB30193755700227E3A
:1062E000A30193BEA00122120549BE340002227E02
:1062F0001D341B1A007EE70187BEE40000227E24C5
:1063000000027D3B1203247E0701859D03227E1D32
:10631000381B1AE07E0701859D0BBE040000227E1B
:106320001701857E1D341B1A107E1701877E1D38CC
:106330001B1A102212661A7EB3696D047AB3696D56
:1063400022CA796DDD1267D028047ED4012CE47A4C
:10635000B36FE56CFF7E300DAC3F09E1679BBEE09B
:106360000A4002A1AF125EE4F528701E494167970A
:106370007404ACBE59456FFA4901679959056FFC21
:1063800059456FBD59056FBFA1AFE528B4024E74E2
:1063900004ACBE49056FFA492167977D329D30599B
:1063A0003571D349C56FFC493167997D439D4C597F
:1063B0004571D559256FFA59356FFC49256FBF9D39
:1063C000321205497DC37404ACBE49256FBD126508
:1063D000FF2DC37402ACBE59C56FE6A1AFE528B46A
:1063E00001028002A1AF7C1E1266E27E7004AC7EC8
:1063F000492371D3BE247FFF7802A1827402ACBE10
:1064000049256FE6BE247FFF7802A182493371D50A
:106410001205497DC31265DD2DC3BEC4000F1802ED
:10642000A1827402ACBE49C56FE6BDCD5002A18207
:106430007404ACBE49C571D349256FFA2DC24935E4
:1064400071D549B56FFC2DB3C200C2017EA765604E
:106450007E976562BEC4000018066DCCD20080082D
:10646000BDAC18047DCAD200BEB4000018066DBBD6
:10647000D2018008BD9B18047DB9D20130002030C4
:10648000011D7D3C9D321205491265C449256FFCF2
:106490007D3B1265F7BDFE4004C2018002C20030A0
:1064A00000572001541265CB7404ACBE49256FFA25
:1064B0001265FF1265C4493571D51205491A261AAD
:1064C000247D1E1265E8493371D312660C7DF37486
:1064D00004ACBE494571D5BE44000049B56FFC0807
:1064E000042DBF80029DBFBEB4000018046DBB80A8
:1064F00062BD9B185E7DB9805A3001542000511254
:1065000065D47404ACBE49256FFC740DACBF126534
:10651000F31265DD1A261A247D1F1265E8493371CE
:10652000D512660C1265C4494571D3BE44000049BA
:10653000C56FFA08042DCE80029DCEBEC40000189F
:10654000046DCC8006BDAC18027DCA1265CB8006F6
:106550001265CB1265D4754801E5280A3B7E2400FC
:10656000027CBE7E100DAC1F4910679749006799E9
:106570001263347EB36FE50A8B19E87022047AB394
:106580006FE57E24FFFF7E7004AC7E59236FFA59BD
:10659000236FFC59236FBD59236FBF7402ACBE59E2
:1065A000256FE67E847FFF598371D3598371D50BA4
:1065B000F0BEF00A680261557EB36FE560031266B3
:1065C000F3DA79227DE37404ACBE22740DACBF59BA
:1065D000C5679722740DACBF59B56799227404AC96
:1065E000BE493571D30205491203677F217E7004CD
:1065F000AC7E22493567999D321205497DF322749C
:106600000DACBF493567979D320205491205497D9A
:10661000131A021A007F120203727CABC206BD235A
:106620007802C322BE340001782BBE240002680425
:106630004D2278427EB38D17047AB38D17E54860FA
:10664000107E3400017CBA60053E341478FB12677A
:10665000E1D2068021BE340002781B4D227804D29C
:10666000068013BE240001780D7EB38D17600514DB
:106670007AB38D17D20630060B7D327CBA7D217D30
:106680001012A771A20622CAF87CFB6C1180477E0B
:10669000300DAC310901679BBC0F78381267EA12E4
:1066A00066EA740DACB10905679E0995679F12C62D
:1066B000B2ACB00A4912C6BF1267777CBF7E900D9C
:1066C000AC9149146797490467991263347CBF12EF
:1066D0006781800B0B10900203E493BCB138B0DAF1
:1066E000F8222E10087401A5F7222E146797740D56
:1066F0000203F7CA3B6CFF6CEE6C117E300DAC31BF
:106700007D312E3467972E147F071267C8A5B90A0A
:10671000EA7E0867971267D86C117E900DAC9109DC
:10672000D47F0BBED0FF68457408ACBD09C5691D98
:10673000BEC00268044CCC78127D342E347F077EB4
:10674000300DAC3F1266EA0BF08022BEC001781D0E
:106750007D342E347F070A2E7E03696D0A402D4258
:106760007E54000DAD547D151266EA0BE00B10BE91
:10677000100A40A6DA3B227548017E3400016D22E2
:10678000227CAB74010A3A19B38BF322CAF87F70EA
:106790006CFF1267BEB404057CBF1266870BF0BEA7
:1067A000F00A78EE6CFF1267BEB408057CBF12D504
:1067B0000B0BF0BEF00A40EE1266F3DAF8220A3F45
:1067C0002D3F7D2E7E1BB022740D1203F70B10227D
:1067D0007E73696DBE7001227E34008274FF0200F8
:1067E000264E378C077A378C07227E7039AC7F2E85
:1067F0003489B022CA3B7ED765607EC765626CDD96
:10680000810B740DACBD09C5679B7CAC5EA00F12FB
:106810006C58F528705E74010A3C19B303CDE41975
:10682000B303A56D337402ACBC593503AFE40A3C25
:1068300019B303C36CFF6D337E3002AC3F7E50084A
:10684000AC5C2D21593202DD5932032D0BF0BEF024
:106850000478E37E900DAC9D492467977402ACBC2C
:10686000592502B549346799593502C95925028D10
:10687000593502A17EF0037E7002AC7F7E3008ACF9
:106880003C2D31492302DB592302DD4903032B59F7
:1068900003032D1BF0BEF00038DD126C4C593102A1
:1068A000DD492567995921032D7402ACBC491502B5
:1068B0008D490502A112CF827A352A7E1002AC1CC6
:1068C000491003AFBE152A50077E152A591003AF91
:1068D000491003AF7D313E343E347E2400058D32B5
:1068E000BE352A280EBE1400C8280874010A1C19D7
:1068F000B103C3126C4C49256799491002B5490090
:1069000002C912CF827A352C7E2400148D327CE7A6
:10691000BEE00428037EE0040A3C09B303C3B401CB
:10692000037EE0067E900DAC9D49E467974934678D
:10693000997DF3126FD2126C3D126FA7BE340028FE
:106940000807E40A3C19B303CD0A3C09B303CDB4EC
:106950000115126FD2126FB7126C3D126FA7BE34C1
:10696000001E5803126FAF1267D02803126FAF0AD0
:106970003C09B303A5BEB004500A0A3C2E3403A55B
:10698000047A39B07E5002AC5C490202B57E300D0B
:10699000AC3D49316797BD03782C495202C9490182
:1069A0006799BD507820E528700261F04902037DA7
:1069B000590167977402ACBC49050391740DACBDD5
:1069C0005905679961F0593202B5126FB77402AC7C
:1069D000BC593502C96DAA7DBA0A3C097303A5BE2C
:1069E0007002380261D46CFF80267E5002AC5F7E5C
:1069F0007008AC7C2D32491302DD492302DF9D2152
:106A00002DB24923032D4933032F9D322DA30BF0C3
:106A10000A3C097303A50A871B840A9FBD9848CACC
:106A20007E14000B7D3BAD317E94000A7D2912035C
:106A3000247DB37D3AAD317D291203247DA37D3BB6
:106A40007D281203247D937D3A7D281203247D83C3
:106A5000752900126FC97D439D49BE440000580B43
:106A60006D22592502DD75290180139D39BD3D2810
:106A70000959D502DD7529028004594502DD4945D1
:106A8000032F9D48BE44000058226D445945032DF4
:106A9000490502E1126C244945032F7D34126FE150
:106AA0007408ACBC491503319D14802A126C349DC6
:106AB00038BD3C2839126FC0126C187408ACBC4940
:106AC00025032F7E5402A0126F9F126F91126DD971
:106AD0004915032F9D101A021A001203C37D2312B9
:106AE0006FC92D327408ACBC593502DD8069E529C7
:106AF000B4012C126DD94915032F126C287408ACFF
:106B0000BC494502DF7D34126FE17408ACBC491505
:106B100002E19D141A021A00126C2F2D328030E50A
:106B200029B40226126DD94915032F126C28740856
:106B3000ACBC492502DF7E540292126F9F126F9106
:106B4000126C18126C2F2D328005126C349D387423
:106B500008ACBC5935032D7408ACBC493502DDBE08
:106B6000340000580C6D227408ACBC592502DD803D
:106B70000CBD3D28087408ACBC59D502DD7408ACC6
:106B8000BC4935032DBE340000580C6D227408AC8E
:106B9000BC5925032D8007BD3C2803126FC0740823
:106BA000ACBC495502DD0A0EAD507E34000A9D3062
:106BB000AD3E2D35126F987DE37408ACBC491503CA
:106BC0002DAD100A2E7E34000A9D32AD3F2D3112BC
:106BD0006F987DF37408ACBC59E502DD59F5032DBF
:106BE000740DACBD59E56797740DACBD59F5679947
:106BF0007E900DAC9D493467977402ACBC59350347
:106C00007D49346799593503910BD07E73696DBC0A
:106C10007D28020102DA3B227408ACBC490502E17E
:106C20007408ACBC491502DF9D101A021A0022122A
:106C300003C37D237408ACBC4935032F229D321257
:106C400005497D137402ACBC4925028D740DACBDA1
:106C500049356797227EA1547408A409B5691D229D
:106C6000CA3B7CD67CCB7E3402A0126FE81ED46C6B
:106C7000EE6CFF755300755200A1A2BEC15278029E
:106C8000A1A0126DD2126DEA7DC3126DD2126E7D7B
:106C90007DB3126DD209B5679BF554C2004CDD7807
:106CA00008126C55B40202C200BED0036805BED003
:106CB000047808126C55B40202D200BDDB285F4C88
:106CC000EE6802A1A0BEB400C82824BEC4002D38BE
:106CD00002A1A0126F143802A1A0126C5570037E9D
:106CE000E0014CEE6802A1A0200002A1A0802ABE13
:106CF000B4002D3802A1A0BEC400C83802A1A01261
:106D00006F093802A1A0126C5570037EE0014CEEB1
:106D10006802A1A0200002A1A07EE001A1A04CFF7A
:106D200078287EA765629EA400C8BDAB2872BEC449
:106D3000002D286C126F142867126C5570037EF0BA
:106D4000014CFF785B30005880537EA765629EA49B
:106D5000002DBDAB284ABED0036805BED004782301
:106D6000BEC40104283A7EA765609EA40104BDACA0
:106D7000282E126C5570037EF0014CFF78223000F3
:106D80001F801ABEC400C82817126F092812126C7F
:106D90005570037EF0014CFF78063000037EF00151
:106DA00005527E73696DBE71522802817BBED0028E
:106DB0006805BED004780B0A4F126EF93E440A5E95
:106DC00080090A4E126EF93E440A5F2D54F553DADB
:106DD0003B227EA152740DA4227408ACBC49050369
:106DE000317408ACBC22740DACBF493567977E5432
:106DF00002927E4400FF0B2A407EE7656090029677
:106E0000E4930A2BBD2328267D029D037E3402983D
:106E10007E2400FF0B1A10126F000A3B6D22BF0187
:106E200040047F011B0C1B1C9F107F0180399002C6
:106E300097E4930A2B7DFE9DF2BDF350287D039DC0
:106E40000F7EF4029A7EE400FF0B7A10126F000AA4
:106E5000FB6DEEBF0740047F071B0C7D349D326D38
:106E6000222F0180027D137D31227EA039ACAF49F3
:106E70003589B2126E817DD37EA00DACAE493567E7
:106E8000997D139F117E5402A07E4400FF0B2AE0DF
:106E90007D4E9002A4E4930A0BBD01281F7D209D26
:106EA000217E1402A61281E9126F1F0A1B6D00BF1A
:106EB0001048047F101B1C9F017F10229002A5E444
:106EC000930A0B7DFE9DF0BDF1502BBDE140297D65
:106ED000219D2F7EF402A87EE400FF0B7A30126F12
:106EE0001F0AFB6DEEBF1748047F171B1C7D149D06
:106EF000106D002F10227D31223E443E443E44223C
:106F0000AD106D007C327C21227EA765609EA400BE
:106F1000C8BDAC227EA765609EA4002DBDAC22AD8D
:106F2000326D227C767C651A2422CAF87EB3696DA4
:106F30007017E47AB3697612BC3A281F74017AB3E9
:106F40006972E47AB36975801274017AB369767EE6
:106F5000B3696E700674017AB3697112A6D8CA5902
:106F60007E1867977E0868191205241BFD6CFF8048
:106F700018126DE6740DACBF59356819126E7D7428
:106F80000DACBF5935681B0BF0126FF038E3DAF81F
:106F9000229D326D220203567E24000A0203247EC3
:106FA0004400FF0B2A30229D321205492D3122E484
:106FB0000A3C19B303A522740DACBD49356799226B
:106FC0007408ACBC59C5032D227408ACBC49350209
:106FD000DF227402ACBC492502A1221A021A007DEC
:106FE0003D1A261A240203567E2400FF0B1AD022D3
:106FF000900203E493BCBF2274017AB38E0FE47A4B
:10700000B38DB090018A937AB38DB290018BE493E3
:107010007AB38DB3900203E4937AB38DB5E47AB377
:107020008DB6122FBC7AB38DBE7AB38DC490018E0B
:10703000937AB38DCE90018FE4937AB38DCF7E7324
:1070400059F07A738DD07E7359F17A738DD17E7336
:1070500059F27A738DD27E7359F37A738DD37E731E
:1070600059F47A738DD474017AB38DE07E3402E3DF
:107070001209717A378DED7E340005CA397E1859B0
:10708000D07E088DF01205241BFD74027AB38DB9F1
:10709000E47AB38DC174647AB38DC27E34029212E5
:1070A00009711B347A3765607E3402A01209711BA6
:1070B000347A376562227E181DC67A1F2D2A7E1803
:1070C00004267A1F2D2E7E0F2D2A124FD47E0F2DCF
:1070D0002E7E3405201200267E0804007E34002611
:1070E0001200267AB32E74227E34005ACA397E34B6
:1070F00001887E2400FF7E0869991205241BFD1279
:10710000713A7E3769D92E3769D77A376F969002F0
:1071100004E4937AB38EE190018EE493CAB89001AF
:107120008FE4937C7BDAB81200227E63699C7E70C8
:1071300040AC671B347A376F98227E3469F36CAAAF
:1071400012717F127174B424FA0BA0800F12717F38
:107150007D421B24127178B424F60BA0BEA00F4010
:10716000EC800B12717F127174B424FA0BA0BEA0D4
:107170001040F0227D420B241B38400B3504220ABC
:107180001A6D002F002E0400FF2E08086D0B0A2038
:10719000E4227E340008CA397E3401E27E2400FFF6
:1071A0007E0859AB1205241BFD7E340008CA397EC7
:1071B0003401EA7E2400FF7E0859B31205241BFD2A
:1071C0007E340008CA397E3401F27E2400FF7E0836
:1071D00059BB1205241BFD7E340008CA397E3401D8
:1071E000FA7E2400FF7E0859C31205241BFD6C3370
:1071F0007CB31272810B30BE300440F40271FF7E0A
:10720000088D407E34002CE41200267E3400017A82
:10721000378D407AB38D427AB38D437AB38D447AF9
:10722000378D5674017AB38D58E47AB38D59740250
:107230007AB38D5A7A378D61740B7AB38D63E47AA1
:10724000B38D6474037AB38D657E3400027A378D12
:107250004B74017AB38D4D7AB38D4E7AB38D4F74E2
:10726000077AB38D5074017AB38D517AB38D52740D
:107270000B7AB38D53E47AB38D5474037AB38D557E
:10728000227C5B12746D7403ACB5194559E17CB472
:107290001272B07C4B7403ACB5194559DF7408AC5D
:1072A000B509B559B01272B01272C119A359E022D2
:1072B0007CABE40A3A80031E3404BE34000438F781
:1072C000227CAB7E7003AC7522CA3B7C571272C124
:1072D00009B359E0F52A12746D0A146D337EB3595F
:1072E000C9F5297CB5127477920120010A6D227AC2
:1072F0002739DD7A2739DF20010281194CAA68027B
:1073000081197EA3699E7EB3699DF5287E51297EF1
:107310006818A67CE5BEE00428037EE0047E4001F8
:107320008028127432801612744B5002800312743B
:107330002ABDBE2802800312743D127423BCEF38AC
:10734000E612741C50027D3F0B40BCA438D4E529E2
:107350000ADB7E4369990AC412745B802812743276
:10736000801612744B5002800312742ABDBE28028C
:10737000800312743D127423BC5F38E612741C50F3
:10738000027D3F0B40BCA438D40ADEE5280ACB12AC
:10739000745B8028127432801612744B5002800382
:1073A00012742ABDBE2802800312743D127423BCDD
:1073B000EF38E612741C50027D3F0B40BCA438D459
:1073C0007ED36999ACDA7DD612746180281274324A
:1073D000801612744B5002800312742ABDBE28021C
:1073E000800312743D127423BC5F38E612741C5083
:1073F000027D3F0B40BCA438D47E2739DD7A273983
:10740000DF6D22E52A60052F111478FB2F112F1153
:107410001203707DE37AE739DDDA3B227DF49DFECD
:10742000BD3F220ABA2D0B0BF0222D9D7D8C0B4AFD
:1074300040226D447D047EE47FFF6CFF220AE42D30
:10744000E03EE47F562DBE0B5AE0220A942D903E7A
:10745000947F562DB90B5AB0BDB4229DCD0ADAAD3A
:10746000DC3ED42ED418A66DCC7E4001227E70085E
:10747000AC75094359B022D2026003B40202C202C1
:10748000A202227C677C7BD2017EB38EC9B4034BFF
:107490007CB612747750447EA38DB9BEA0024031F1
:1074A000122B0B68287E638EE60A262E24003812E3
:1074B00074DE24FF92017CB6047AB38EE67E638E7E
:1074C000E6BE60084015E47AB38EE6800ED20180F5
:1074D0000ABCA77804D2018002C201A201227A511B
:1074E000827A4183E493227CB36C777C677C7BC493
:1074F00023541F7CAB7CB754070A2B2E2400BA12EE
:1075000074DE7C7B4C66680B0A2A1277CD4CB77A06
:1075100029B0227CB764FF0A2A2E2465DC7E2970FC
:107520005C7B7A297022CA3BC2001276E508217E74
:10753000C4022612760B8011127600780A12761891
:1075400008057CBF12757A0BF01275F938EA801FB6
:107550007EC4015E12760B8011127600780A1276D4
:107560001808057CBF12757A0BF01275F938EA30ED
:107570000003121136DA3B227CB16C771274EBD225
:107580000022CAF8C2007E63699E7E736772AC7681
:107590007E5367730A252D323E34494309466C11E8
:1075A00080291276EE09F565657CB07C7F1212E5C4
:1075B000BE34038458137E176770BE14FF38580911
:1075C000BE44FF3858031275780B107E736766BC93
:1075D0007138CF7E57676CBE54001E58137E5767B4
:1075E00070BE54FE705809BE44FE70580312757880
:1075F000300003121136DAF8227E736766BC7F22F0
:107600007402ACBF09E56565BCCE227E73699C0A35
:10761000371B347CC76CFF2209D565647CBD7C7E3A
:107620001212E57DD3BDCD22C2007EB3598B6044DA
:107630007E33699D7E23699E6C11802A1276EEBE90
:107640000001401D0A300A431B44BD3418130905CC
:107650006565BE0001400A0A200A321B34BD2308BA
:10766000031275780B107E036766BC0138CE3000BC
:107670000302113622CAF8C200C2017EB38E14BEC4
:10768000B0002805147AB38E147E37676CBE3403BD
:10769000B60803E4800A1287FF92003000067428BF
:1076A0007AB38E147E738E14BE700028227E3767E4
:1076B00068BE340028501874017AB38E176CFF80AE
:1076C000077CBF1276DD0BF01275F938F48005E403
:1076D0007AB38E17300103121136DAF8226C771262
:1076E00074EBD201227E37676CBE3405DC22740253
:1076F000ACB109056564226C3380281277EB7E03F8
:1077000003E4BC02381B7E0303E5BC0240137E0386
:1077100003E2BC01380B7E0303E3BC014003127497
:10772000E70B307E036766BC0338D022C200C2017B
:107730006D337A378E1512C82E7EB36766700302DA
:1077400077967EB3598B704D7EB3597DBEB001687C
:10775000441293D29200C2013000157E3402D51239
:1077600009717A3703DC74011277C412C85480059A
:10777000D2011277967EB303D9601A2001146C33BC
:1077800080051274E70B307E236766BC2338F30252
:10779000C88D0276F7227E3703DCBE34000028074E
:1077A0001B347A3703DC22E47AB303D81277C47E21
:1077B000B303DE600E7EB303DF60051277D5C286A9
:1077C0001277DF227AB303D97AB303D7222E246546
:1077D000DC7E29B022E47AB303DF7AB359562274EF
:1077E0000A7AB303E0E47AB303E1227402ACB3098A
:1077F00025656409156565227E0809467E1F2D2EC4
:107800000236ACC2007EB303D7700A7E378E15BE37
:1078100034002340161278437E140384123695BE3A
:107820003400642804D2008002C200300006D2185E
:10783000740F80077EB38E566006147AB38E56227C
:10784000C218227E1F2D2E7E24006422CA79C20314
:107850007EB7676C7EE367669002C6E4937CABBC40
:10786000AE9002C52807E493A47DC58006E493ACDE
:10787000BE7DC57E1F2D2E7E1402C1127B62127941
:107880003B1236957A3703F912784312793B123658
:10789000957A3703FE6CFF6C1180227CB1127B6AF3
:1078A0007D437D543E54BD5B480F7E3402CA7E2426
:1078B00000FF0B1A50BD5408020BF00B107E03673B
:1078C00066BC0138D67ED703F9BDDC28397E340288
:1078D000CC126FE8BDDB5805BEE001380C7402AC79
:1078E000BF0A4E1B44BD54480474018001E47AB3BE
:1078F00003FD12793238067EB303FD60197E34022F
:10790000C8126FE8800CE47AB303FD1279322806BE
:107910001BD47AD703FB1279322802D2037E3402B9
:10792000CE126FE8BDDB5805E47AB36766A203DACE
:1079300079227ED703FBBED40000227E1402C37ED0
:107940000400FF0B0A1022CA797EF064C200C20153
:1079500074017AB38EE7127B337A73697B7E3400CD
:10796000FA7A37697C7E3400C87A37697E7EE38E86
:10797000E274017AB38EE212EB557AE38EE27E7303
:107980006766BE70043807D202128F0D7CFB129D11
:1079900070380241C07EB38E8F700241C06CEE80A1
:1079A0001412F38709736565127B7D5004D2018040
:1079B00002D2000BE07EA36766BCAE38E4BEA0082E
:1079C000280C7E37676CBE3402BC5802803FBEA0D4
:1079D00005281B7E37676CBE3403205811127B0EBE
:1079E0007E24012C7E1400E67E0400C841A6BEA0C1
:1079F00003282E7E37676CBE3403845824BEF00102
:107A0000281F30000D30010A127B2A2805127B1630
:107A100041A6127B0E7E24015E7E0400FA7D104199
:107A2000A6BEA002282E7E37676CBE34044C5824B4
:107A3000BEF001281F30000D30010A127B2A2805F4
:107A4000127B168061127B0E7E2401907E04012C35
:107A50007D108052BEA001282B1276E55826BEF07C
:107A600001282130000D30010A127B2A2805127BE3
:107A7000168033127B0E7E2401C27E14015E7E04CA
:107A8000012C8022BEA0065024BEA001281F300079
:107A90001C3001197E73696EBE736979280F127BE1
:107AA000330A37127B1F127B3D80078000E47AB3D4
:107AB0008EE77E37697C2E3400327A3701008005EC
:107AC000E47AB38EE77EB38EE7703E127B0E7E14AF
:107AD000020D127B627E14020F12793F7E54021B4C
:107AE0007E4400FF0B2A00127B3D1276E57E3402B5
:107AF000217E2400FF08090B1A302E340064800315
:107B00000B1A307A3701008002D221DA79229002F2
:107B100005E4930A3B22900205E4931EB00A3B7EE3
:107B20002400FA7E0400C87D10227EB3696EBEB3C5
:107B3000697922900205E4937C7B1E70227A736936
:107B40007B7A27697C7A17697E7A0769886D339D0D
:107B500030120B51120B647A73593C2212DAED0287
:107B600079477E0400FF0B0A202212CEBC09B365C0
:107B700064097365650212E5E52A7E712B7CAB4CC6
:107B80007768187EB3699E14BCB7680F4CAA680B5F
:107B90007EB3699D14BCBA6802D322C322CA3B7566
:107BA0002E006CEE12CA1C7CDBC200C2016CFF7E90
:107BB000B3699DF52C7EB3699EF52DE47AB32E79D9
:107BC0007EB32E74B401028002A12F7E736766BE5D
:107BD000700A38077EE001C200800CBED003380F67
:107BE000BED001400AD200752F0675300680026CA7
:107BF000EE6CCCA11B129261F52A09B36565F52BD9
:107C0000300011E52A7E712B12CA4D50057EE0012D
:107C100080026CEEE52BBEB0004019E52BBEB00132
:107C20003812E52ABEB000400BE52ABEB002380487
:107C30006CEED201BEE001780EE52F7E71307C6CD7
:107C40007C5F12DCE0A10275280375290330010571
:107C50007EE001C2017E636766BE6006401D127B46
:107C6000785037BED00178028020BED00238028022
:107C700021752802752902807D801FBE6004402284
:107C8000127B785015BED001780875280575290536
:107C90008064752803752903805C752801752901A6
:107CA0008054E52ABEB001280EE52C0A2B1B25E5E1
:107CB0002A0A3BBD324803752802E52BBEB00128D5
:107CC0000EE52D0A2B1B25E52B0A3BBD324803751B
:107CD0002902C202E52A7E712B7C6C12D48EBEB0C2
:107CE000FF68067528027529027CBC7E0800287E84
:107CF000180029129FF6E5287E71297C6C7C5F12A2
:107D00007D327E700DAC7F09B365E6BEB12E2802D0
:107D1000F52E0BF0BEF00A500C0BC07E736766BCEC
:107D20007C280261F57AF36766E52E7AB32E79DA5C
:107D30003B22CA797C057C967CF77C1B7CB9127F40
:107D4000FD12DEB908047A177D377402ACB90985D3
:107D500065647A837D287402ACB9098565657A8388
:107D60007D297A937D2A12DEB07AF37D2D12DE779B
:107D70007C6F12DE5312DEA87EF37D2E80197EE327
:107D80007D3080097CBF7C7E127DA50BE07E737DFB
:107D900031BC7E38EF0BF07E737D2FBC7F38DF1255
:107DA000E12EDA7922CA797CF77CEB7EB3699CAC50
:107DB000BE0ACF2DC57DDC3ED449DD04267E736925
:107DC0007B0A379DD3BED400001802C1917E1D1AD4
:107DD0006911000FBD1D180B2E34000A7E1BB00464
:107DE0007A1BB0E47E1D1A7E1BA00A2A0A3E9D3231
:107DF0001205497C377E1D1A292100010A220A3FFB
:107E00009D321205497CA7BE30013805BEA001286D
:107E1000377E5D1A29750004BE7003400D29750078
:107E200005BE70034004D2028002C2027CBE7C7F89
:107E30002965000212D48EBEB0026803B403040E9A
:107E4000D48005B401026DDD7D5D1A4A1A487E0DAD
:107E50001A2E14001312E11D3025187DFC3EF47E0D
:107E60001F03F12D3F0B1AE07E1F03F52D3F0B1A68
:107E7000F080040AEE0AFF7D1E126FDB7F2112E301
:107E8000AC12E11D7D1F126FDB7F2112E3A412E112
:107E90001DDA7922CAD8CA797CF77CEB7E73699C9B
:107EA0000A27127FD97F212D517E2BB06002E1D0AD
:107EB000740112F2DF7C7F127DA512E3B40A571A17
:107EC0004E1B44BD45483212F34E12EEA67E2BB037
:107ED0007027127FED080A7CBE147C7F127E94808E
:107EE0001874021A2E1B240A3D127FDB12F2DF14D3
:107EF00012F45D147C7F12E2B47E0D1A2970000822
:107F00000A371A5F7D451B44BD43483812EE9C1B5F
:107F1000547E2BB0702E3E3449230424127FF30884
:107F20000B7C7F1B707CBE127E948018127FD52D37
:107F3000311B347A1BB07CBE7C7F1B7012F4551B46
:107F40007012E2B47E0D1A297000070A571A4E0B00
:107F500044BD45583212F34E12EEA67E2BB0702768
:107F6000127FED080A7CBE047C7F127E9480187418
:107F7000021A2E0B240A3D127FDB12F2DF0412F4E8
:107F80005D047C7F12E2B47E0D1A297000090A3765
:107F90001A5F7D450B44BD43583612EE9C29B20052
:107FA00001702D3E3449230428127FF3080B7C7F97
:107FB0000B707CBE127E948017127FD52D3139B1A3
:107FC00000017CBE7C7F0B7012F4550B7012E2B482
:107FD000DA79DAD82274020A2D1A3EAD321A1F2D30
:107FE000137E7D1A6937000D6927000B223E344944
:107FF00023042669300011BD2322027B9D127B6A77
:108000007E2400030203247CAB7EB35947703A7E82
:108010009039AC9A09B48993BEB0345002D3224946
:1080200014899549348997BE140000082ABE34008B
:108030000008243E34128000BD31081B0974898970
:10804000BE701E5002C322D3227439A409758994CC
:10805000BE70285002D322C322CA3B7CEB6CFF7E49
:10806000D039ACDE09A68988BEA0017802212EBED7
:10807000A0057802212EBEA0026805BEA0067842A7
:1080800009768987BE703C4002212E493689B0129C
:108090006DEE7D23BE24001E400B1281E59E340050
:1080A0001FBD3250127CBE1280075002212E128159
:1080B000C9700221A880771281C9700221A8806E40
:1080C000806C09B68988BEB00368061281D1B407F6
:1080D000091281C9700221A880541281D1B408020A
:1080E000804C1281D1B4040280441281D1B409437E
:1080F0001281C960037EF0087439ACBE09758987A6
:10810000BE703C400221A87439ACBE493589B0121A
:108110006DEE7D23BE24000F400D1281E59E3400DC
:1081200010BD32400221A87CBE128007507A7EF03A
:108130000880757EA35947BEA000286CBEA00168C8
:1081400005BEA00378297E7039AC7E493389ACBE68
:108150003400FA280280487E7039AC7E492389AE0B
:10816000BE2400FA283C1281DA503780328033BEB8
:10817000A0026805BEA004782F7439ACBE492589D9
:10818000AC7E3765601281DE500280137439ACBE5C
:10819000492589AEBE2400FA28081281DA5003E48A
:1081A000800274FF7AB389716CAA7E7039AC7E1933
:1081B000A38987E419B389AB19B3898819B3899363
:1081C00019B389947CBFDA3B227EF0047EB303D7D7
:1081D000227439ACBE09B58988227E3765629E3427
:1081E00000FABD23227E1402927E0400FF0B0A30A7
:1081F000227E4767707E0769807E340006AD307E40
:1082000014000412829808057EA004801D7D303E73
:108210003412829608057EA003800F7D301282966C
:1082200008057EA00280037EA0017EB3678D6003F7
:108230007EA004302C037EA0041287E360037EA09E
:10824000010A2A7E1402BD1281E9AD3212F1FC7ED0
:10825000B36766BEB00028287EB3678770227E377A
:108260006783BE34000248091287E87A3767838043
:108270000F7E6367857E7002AC677CB77AB36785D3
:108280007EB35960B4010E7E2767837E340005AD4E
:10829000327A376783223E347D21120324BD342293
:1082A000CA3BE47AB38BC01287F7780261AFE47AF5
:1082B000B389707EB38971BEB0FF5005047AB3896B
:1082C0007112CFED6CDD616B6CCC7E700DAC7D09F5
:1082D000F3679B5EF00F1286BC49336797126DEE11
:1082E000CA39740DACBD126E7D7D137E100DAC1DB0
:1082F00009B0679E0970679F7C6FDA29123E004CB7
:10830000EE78187CBD7C7F1283B97CCB4CCC783A5C
:108310007CBD7C7F12D31F7CCB802FBEE002782AED
:108320007439ACBF09B58988B40A097CBD7C7F1259
:10833000C36380167CBD7C7F1284BE7CCB4CCC7822
:10834000097CBD7C7F12D2A77CCB7C1D2E10287CA3
:10835000BCA5F77E7039AC7F09B38987BEB0FF50EA
:10836000082E348987047A39B00BD07E73696DBCCE
:108370007D280241C87E08002812C1A36CFFE412C8
:1083800083B21286BCBEE00178177CBF12805912FE
:1083900083B270087CBF12DAC51283B27CBF12DAD6
:1083A000B20BF0BEF00A78D67E087D2812678CDA10
:1083B0003B220A3F19B37D2822CA3B7CE77CCB6C69
:1083C000FF7CBC7C7E12D6587CDB7E700DAC7C2E94
:1083D0003467977E3039AC3E2E1489B0740D120389
:1083E000F77E700DAC7C12D6101212E57439ACBE5B
:1083F000593589BD4CDD780281AF7CBE12D5867CB3
:10840000BE12C61B50057EA004807DBED00178053B
:108410007EA001802ABED00278057EA0028020BE08
:10842000D00378137CBE1286CF400281AF7EA003BA
:108430001284B474028071BED00478087EA0051244
:1084400084B48068BED00578257EA0061284B47EF0
:10845000F0017E535947BE500028547E538971BEA7
:10846000501E504B740819B3898874018043BED0E4
:1084700006783C7E735947BE700028137E7389715D
:10848000BE701E500A7EA0081284B4740180227C43
:10849000BE1286CF7EA0077E703950071284B77453
:1084A0000480051284B7740219B3898D7EF0017CB3
:1084B000BFDA3B227E7039AC7E19A3898822CA3B81
:1084C0007CD77CCB6CEE1286B314BEB009507D7E97
:1084D000A003A49084D7730284F20284F70284FC80
:1084E00002850102852002852A02853402853E022A
:1084F00085431286A4802C1286A480311286A48023
:10850000367439ACBD09B58986BEB0066803B405BA
:108510000D12D12E50281286987EE002802E801EE9
:108520001286AB12C57C7CEB80221286AB12C55141
:108530007CEB80181286AB12C5B27CEB800E7EE01D
:108540000180097CBC7C7D12C6CD7CEB7E7039AC91
:108550007D09B3898EBEB0016807B402028002C1F2
:108560005A09A38988BEA008680609B389906007E4
:10857000BEA0096802C15A740119B38990BEA00651
:1085800078057EF03C800C7EF0307EB35947600366
:108590007EF03009738987BC7F4002C1227CBC7C9D
:1085A0007D7E635947126C607CAB7EB35947701C6B
:1085B000BEA00178057EA008806312D12E5008125B
:1085C00086987EE002C15A7EA00980511287EF682A
:1085D000197EB35947BEB00268107EB35947BEB08A
:1085E0000368077EB35947B404707C4A5E40F05E6E
:1085F000A00F7E7039AC7D0953898EA5BD01064C54
:108600004468028008A5BD020C4CAA6808740819C9
:10861000B38988804212D12E40407EA00912869AEA
:1086200080351286B3B409327439ACBD09A5898688
:10863000BEA006780A6C771286C57EE003801BBE5A
:10864000A00578087E70061286C5800BBEA004784F
:10865000097EA00512869A7EE0011286B360167C20
:10866000BD12D5867CBC7C7D12D0F6502612869831
:108670007EE002801E740DACBC126DEA7439ACBD94
:10868000593589AC740DACBC126E7D7439ACBD59D2
:108690003589AE7CBEDA3B226CAA7E7039AC7D197E
:1086A000A38988227CBC7C7D6C66227CBC7C7D7E20
:1086B0006001227439ACBD09B58988227408ACBF49
:1086C00009E5691D227E5039AC5D19728988227CCA
:1086D0003B12C7194002C3227E5039AC5309B289FC
:1086E0008EBEB0016803B40202C32209728989BE3A
:1086F00070552802D3220922898ABE20072802D376
:1087000022BE70372807BE20052802D322BE702D56
:108710002807BE20062802D3220962898BBE605535
:108720002802D3220972898CBE70072802D322BE88
:1087300060372807BE70052802D322BE602D2807A7
:10874000BE70062802D322C32212BC0612BC4212FB
:1087500081F1028755C2007EA32E75BEA002502E65
:108760007EB3679060210A4A09B48ECBBEB3678698
:10877000500C7D342E348ECB047A39B08010E4193D
:10878000B48ECBD2008007E40A3A19B38ECB200016
:108790002A7EB36790B4011EE47AB367967E73674E
:1087A00086BE738ECA280CE47AB367907EB38ECAF5
:1087B000048004E48001E47AB38ECA7EB36796B481
:1087C000011A7E736785BE738ECE280CE47AB36778
:1087D000967EB38ECE0480067401800274017AB353
:1087E0008ECE227EB339BF227E2400020203247E75
:1087F000B35947BEB001227EB3598BBEB00122CA25
:108800003BC2027EF007128F9040037EF00B6CEEAD
:10881000804A7402ACBE09D5656409C56565BED0E1
:108820000140377E73699D0A271B250A3DBD32181A
:1088300029BEC00140247E73699E0A271B250A3C7D
:10884000BD3218167CBD7C7C7C6E12155CF528BE92
:10885000F1285006D202A20280090BE01288663885
:10886000B1A202DA3B227E736766BC7E22CA796CB3
:10887000FFC2007EB3699360067ED402BC80047E92
:10888000D403E87EB36998B401047ED400F07EC7B7
:10889000676C6CEE8071C2007CBE127B6A7DB37423
:1088A00002ACBE09B5656412000EBD3B5804D2008F
:1088B00080267E73696EBE736766781C7EA78EDF26
:1088C0001EA4BDAC50127CBE7E700112891B7D1DA2
:1088D0006D00BF100802D20030002A7CBE12111AAF
:1088E00060237EA4000DCAA97E700DAC7E2E346577
:1088F000E06D227E300DAC3F2E1467976D0012059F
:10890000241BFD0BF00BE0128866388A7A73677BB4
:108910007AF3696D7AC78EDFDA79227C677C7B7E99
:108920005002AC5709A26564097265659002AEE415
:1089300093BCBA78039F11227CBA02893D7C167CD5
:10894000077C9B7E83699D7A837D287E83699E7ADE
:10895000837D299F770A310A199D137C83807C7A55
:108960008129BE8000580C1A581A199D150A592DD4
:1089700051F5297E737D28BC78180C1A591A189D58
:10898000150A599D51F5290A110A509D51F5288063
:108990003A85282AE528BEB000580EE5281A5B1A49
:1089A000109D150A502D51F52A7E737D29BE712820
:1089B000180E1A30E5281A1B9D130A509D51F52AEE
:1089C0001289EF1A261A242F7105280A210A302D40
:1089D00032E5281A1BBD1308B80B800A110A592D5D
:1089E000511A18BD151802215F7F172202886DE504
:1089F000297E712A0212E5CA3B7F707E80FF7EE3EA
:108A000067666C996CDD6CCC800D0A1C128E33BCD1
:108A10007D40027CD70BC0BCEC38EF7EC00141B377
:108A2000752B006DDD7528008069128F8809B1658E
:108A300064F52909B16565F52AE5280A1B128E330C
:108A4000BC7C784D052BE52BB40103128AD8BED02F
:108A50000178307EB33958BEB0FF68277E7339572E
:108A60000A27E52A128ADF7D137E7339580A27E523
:108A700029128ADF2D137CF3BCF85015128AD87C9A
:108A80008F800E1289EF7DC3BDDC58057DDC128A14
:108A9000D80528BEE1283892E52BBEB00028127414
:108AA00002ACB9190538BD7402ACB9191538BE0B42
:108AB000900BC0BCDC40024120BE900178127E8346
:108AC00038BD7A8339587E8338BE7A83395780031C
:108AD000128E3B7CB9DA3B227E01297E112A220AC2
:108AE0003B9D32020549CA3B7CFBC202C203C20461
:108AF0007EE36766E47AB338FA7AB338FB7AB33840
:108B0000BC7E0838FC900204930A3B1257ED0A3BE6
:108B10003E347E0838BDE4120026BEE0025002A1B9
:108B20002512DF176CDDA11F128F98F52909B36597
:108B300065F52A4CDD6805128D28700A0A3D0B3454
:108B40000ABD197B38FC0ABD0BB47D3B7CC7A1175D
:108B50007E7002AC7C09A365647AA12B09B36565BC
:108B6000F52C0A2AE529128ADF7CB7F52DE52C0AB7
:108B70002BE52A128ADF7CB7F52EE559BEB12D38D8
:108B800002A115E559BEB12E3802A1157EA4004AF6
:108B90001289EF7D93E52B7E712C1212E57D83BD4A
:108BA0009808047DB880027DB97AB530BD98580424
:108BB0007DB880027DB97AB532752F00E52DBEB043
:108BC000013823E52EBEB001381C7CBF30E0177E93
:108BD000B338BC047AB338BC752F017EB338FA04BD
:108BE0007AB338FA81BFE559BEB12D380281BFE5AD
:108BF00059BEB12E380281BF7CBF20E10281BFC2C5
:108C000003E52DBEB0033809E52EBEB0023802D20E
:108C1000037E18003F7A1D41E5297E712A7E612B73
:108C20007E512C7E08003E12DAFA1A261A247A1D8A
:108C30003A7DB82DB90EB47AB534C202BE187FFFA2
:108C400078059F117A1D3A7CBD7C7C7E0D3A7E258D
:108C500034128E46920412DEC692013001057E3532
:108C60003280037E3530128E2B7E3530128E2B30C3
:108C700003167E736766BE73696E38067EB3395617
:108C800060067EA40041C2047EB3598BB401047E09
:108C9000A4003C7D1A1A021A007E1D361203567E6D
:108CA0000800641203C37F017E1D3ABF104802D240
:108CB00002300405200302C202300203752F02E5D0
:108CC0002FBEB000284F0ABC09AB38FC4CAA780B69
:108CD000128D280A4C19B438FC803A128D28F540C0
:108CE000BCBA28037AA14075280080240ABC097BFD
:108CF00038FCE5280ABB096B38FCBC67680A0A2DFA
:108D0000097238FCBC677806E54019BB38FC0528B9
:108D1000BEE12838D70BC0BCEC280261500BD0BC98
:108D2000ED28026128DA3B220ABD09BB38FC22CAC1
:108D3000D8CA79C2007EE003E47AB338F97ED369F9
:108D4000797559061292777EF36766BEF001380294
:108D5000C1197CBE128AE64CDD7804C2008065BE73
:108D6000D001280D7E73395BBE71592804C2008082
:108D700053C2007EB33956704B7E536766BC5D7834
:108D800011128FA250057EE00380037EE001D20025
:108D900080327E4338FA0A340A257D129D130B1463
:108DA0000A3DBD3178077EE001D20080177E73381E
:108DB000BC0A379D230B247E73395CBD3278057E57
:108DC000E003D2003000057CBE128AE67E0838FC43
:108DD0001289F77AB338F97EA338F9BEA3676650D3
:108DE00004740580077EB339566005147AB339568A
:108DF0007AA367667402A4CA597E1838BD7E0865D6
:108E0000641205241BFD7E7367667A73395CC202A7
:108E1000128F0D7AB3395B800D74647AB3395B7A43
:108E2000F3395C128E3BDA79DAD8221A261A247AC0
:108E30001D36227F172D317E1B702274FF7AB339C5
:108E4000587AB33957227D427F707CAB7402AC7B79
:108E50004923391AA44935391A2D321287E87D235E
:108E6000128E867D137D2F128E867D037E34000444
:108E7000AD31BD30580EBE0400640808BE14006455
:108E80000802D322C3227D349D32020549CAD8CAC2
:108E9000797CA77C9B7E81307EF1316CEE805ABC60
:108EA000EA6854128F0329B10007F53C29B1000884
:108EB000F53D0A28E53C128ADF7CB7F53E0A2FE52E
:108EC0003D128ADF7CD7E53EBEB0043808BED00331
:108ED0003803D38029E53EBEB005381BBED0033829
:108EE00016128F03296100047E7008AC6709B3690C
:108EF0001EB40303D380070BE0BC9E38A2C3DA790B
:108F0000DAD8227E700DAC7E2D317D20227EA064C9
:108F10006C336C22805A0A020B04804A7E7002ACC9
:108F200071090365640A207E7002AC7209036564EE
:108F30001219637C077E7002AC7109B365650A2B58
:108F40007E7002AC7209B36565128ADF7C97BC90B3
:108F500050047C8080027C89BCA828027CA8BC3894
:108F600050027C380B107EB36766BCB138AE0B2064
:108F70007E036766BC02389EBEA06478026CAA308D
:108F800002037CB3227CBA227E31287402AC3B22DD
:108F90007E736766BE7003227E7002AC7D09B36586
:108FA00064226CAA80127E700DAC7A09B365E6BEAD
:108FB000B0102802D3220BA07EB3677CBCBA38E67F
:108FC000C3227F707CA67C6B7EB3699D7E13699EF5
:108FD0007E6F2D2E0A467D241B247C050B446DBB21
:108FE0006D110AA76C888035BC081804BC985827F6
:108FF0001A382D3F7D2E7E1B70BC7A781A7D3A3E42
:10900000342D3D7D2C0B1A907D391205497D83BD91
:10901000B850047DB87D190A312DA30B80BCB81857
:10902000C77D31227CA77E73699CAC7B0A2A2D32D6
:10903000227C4B7402ACB409556564096565657E94
:1090400073676EBC75780A7E73676FBC767802D3DF
:1090500022C322CA3BC2027EF367667E87676CBE6C
:109060008400C85802C22C12784C92004CFF78023F
:10907000213F2000187E8703F9BE84003238022188
:10908000397E8703FEBE840064380221397E73690D
:109090009D0A871B847D387CE77E73699E0A671B67
:1090A000643000157E37676C1280007D93BE940398
:1090B00020580A7E94032080047E9401906CCC801A
:1090C000747CBC12111A606B12926112926B7D83D8
:1090D000E528BEB0002850BEE128284BE529BEB0E7
:1090E000022844BED129283FBD89583BE5287E711E
:1090F000297E08002A12914224FF92012001028059
:109100001DBEF0022821E529BEB01E281A7E376751
:109110006C1287E8BD381806BE84015E58097CBC15
:109120006C771274EBD2027CBC1290315005300285
:1091300002D22C0BC0BCFC3888300203121136DA84
:109140003B22CA3B7F707C177C0B752C017E7369B8
:109150009D7CC77E73699E7CD76D227DC27DD212B5
:1091600012E17DA30A501B557CFB21FF7AF12DBE35
:10917000F000580C1A3F1A409D430A502D54F52D0B
:10918000BCCF180C1A301A4F9D430A509D54F52D30
:109190000A511B557CEB80607AE12EBEE000580C32
:1091A0001A3E1A419D430A512D54F52EBCDE180C6F
:1091B0001A311A4E9D430A519D54F52EE52D7E71AC
:1091C0002E1212E57DB37CB024FEBCBF6812129251
:1091D0004F680D7CB124FEBCBE6805129258780819
:1091E0007D3B2D3D7DD3800EBC0F7804BC1E6806F0
:1091F0007D3B2D3C7DC30BE0129258089B0BF01277
:10920000924F1802216C7D3C120B707DC37D3D1284
:109210000B6E7DD37D3C9D3D120549BE3400500848
:1092200002801A129248BE340046480C302B0E12AF
:109230009248BE3400645805752C008003752C01DB
:109240001B7AC0E52CDA3B227D3A9D3C0205490A97
:10925000200B251A3FBD32220A210B251A3EBD32B2
:10926000227E7002AC7C09B3656422F5280973651F
:10927000657A71290212E5CA3B7E80FF6CFF7EC0D1
:10928000FF6CEE752A006C997EF47FFF6CDD8056D2
:10929000128F9812926B7D03BD0F58027DF0E52866
:1092A000BCB850037E8128E528BCBF28037EF12886
:1092B000E529BCBC50037EC129E529BCBE28037E3C
:1092C000E1290A580A1F9D15BE140007180C0A5CF4
:1092D0000A1E9D15BE140007080A7E1401F47A17B1
:1092E000395961B00BD01293CB38A57D3F3E341273
:1092F00080007D03BCEC7812BEC00028021BC012A7
:10930000960C0A1EBD1558020BE0BCF87817BE80FB
:109310000028021B807E73699D0A571B540A1FBDDB
:109320001558020BF07CDC801B7CC880117CBC7C57
:109330007D1212E5BD300802052A0B900BC0BCFC63
:1093400050EB0BD0BCED50E17E83696EBE800340D4
:109350000D1293B950280B147A1739598020BE800A
:1093600001381B7E173959BE14000228061B157AD6
:109370001739591293C250060B147A1738BA7E83E4
:109380006766BE8001402F7E3002AC397EA12A7410
:1093900003A4BD51080F6D117A1739591293C250A9
:1093A000150B14800D1293B950060B157A17395905
:1093B0006D117A1738BADA3B227E173959BE140379
:1093C000E8227E1738BABE1401F4227E736766BCA9
:1093D0007D22CA3B1296D2C2027EA7676C0EA46C95
:1093E000DD819F128F98F52A09C365657C7C121276
:1093F000E57D93BDA90802819DBEF12A3802819DB9
:10940000BCEC3802819D7D390E347D890E840E843A
:109410002D837EB38EE7B401197E276768BE2400D2
:1094200032280F7D837E3402D1120971BD3850027B
:109430007D83E52A7C7C7D287D191294AB7A3528C2
:109440007E378E15BE352850077E35287A378E1523
:109450007EB303DE6025BE9400C80808BE94019068
:109460005802800F7E376768BE340064280D128F63
:109470009028087EB4000A800980009002D0E4930E
:109480000ABB7EB303D960021EB4BEB528380ED223
:1094900002E52A7AB303DA7AC303DB80090BD01220
:1094A00093CB280261E3A202DA3B22CA797CAB7A31
:1094B000A12B7A712C7DE27DD17EB3699BF5307E44
:1094C000B3699CF5316DFF0A5A1295E3852C2F8004
:1094D0002A6C997EF12B80187CBF1295C85809BD63
:1094E000D048051295DB8006E52EBCBF58071BF05F
:1094F000BEF00058E34C996809152FE52FBEB00067
:1095000058CF1295FF5835852C2F80291295F4805D
:10951000187CB81295C85809BDD048051295D3805B
:1095200006E52DBCB828080B80E530BCB838E24C05
:10953000996809152FE52FBEB00058D0E52B0A5BBE
:109540001295E3E5310ACB1BC4E52C0A1BBD1C5860
:10955000721295EB802C6C997EF12B801A7CBF7C6B
:109560007E1295CB5809BDD048051295DB8006E5E3
:109570002EBCBF58071BF0BEF00058E14C9968089C
:109580000BE0E531BCBE38CE1295FF58361295EB94
:10959000802B1295F4801A7CB87C7E1295CB5809EA
:1095A000BDD048051295D38006E52DBCB828080B20
:1095B00080E530BCB838E04C9968080BE0E531BC78
:1095C000BE38CF7D3FDA79227E712F1212E57D03FE
:1095D000BDE0220BF40B907A812D220BF40B907AD4
:1095E000F12E220B54F52D852B2E22E52C0A1B0B78
:1095F000147CE3226C99E52B0A1B0B147C8322E577
:10960000300ACB1BC4E52B0A1BBD1C227E73699E4E
:109610000A571B5422CA3B7CF47C957CC77CEB6DBB
:10962000DD12960CF53A7CB67C791212E51287E8C9
:109630007DC37A91397ED1398026BED000081F12B1
:1096400096B81B701296A75815BEF40010080F129A
:1096500096AF2F111478FB1296C450027DD01BD008
:10966000BCED08D67CEC7ED1398027E53ABCBD083C
:109670001F1296B80B701296A75815BEF40010086A
:109680000F1296AF2F111478FB1296C450027DD0A2
:109690000BD0BCED58D5BED400FF28047ED400FF0B
:1096A0007D3D7CB7DA3B221212E57DF3BDCE227DF3
:1096B0003E1A261A247404227CBF7C7D1212E57D9A
:1096C000E37C7D227D1F1A021A001203727D03BD06
:1096D000D0227EF3699B7EE3699C22CA3B7CD67CC8
:1096E000C77C1B6DAA7D9A7E4400644C5568076C4C
:1096F000FF75330180127E03699D0A507D851B84AE
:109700007D387CF71B55F5337AC1327AC1347E013E
:109710003280111297DD58117A013412E394080255
:109720002DAB1B00BE000058EA7AC1327CECE5325A
:109730001A5B0B547C0B80101297DD58137CE012DF
:10974000E39408022DAB0B007E73699EBC7018E891
:10975000E5347C7E7C617C5C7C4F1296157C7B744E
:1097600039ACBD197589910965899309758991BCD1
:10977000762804197589937CBC7E71347C6E6C5597
:109780007E43699E0A841B847D181297E919A38978
:109790008ABDA950147D396D2274042F111478FBF1
:1097A0007D1A0B1412037080029F117A1D354D999A
:1097B00078049F1180174DAA78067E1800FF800D4F
:1097C0007E1D35BE1800FF28077E1800FF7A1D3564
:1097D0007E2D351297EE19A38989DA3B227CBF7C56
:1097E000701212E57D83BD48227C431297F67CAB54
:1097F0007E7039AC7D227C147C467CAB1A1A2D110C
:109800001AF77D419D4F7C69BC1658047CB68002D6
:109810007CB41A049D107C63BC5608047CA68002AC
:109820007CA79CBA0422CA3B7E9365649001B3E492
:109830009360197E3401B47E2400FF7EA365654CDD
:10984000AA78090A497F712DF47E7B900AF92DF1DF
:109850007DE07E7B807EF00180337ED002ACDF092C
:109860009665649001B3E493601109A665654CAAFE
:1098700078090AF92DF37DE27E7B900AF92DF17DBE
:10988000E07E7BE0BC8E6803C3800B0BF07EB36789
:1098900066BCBF38C5D3DA3B22CA3B7EB36766706D
:1098A00002212E7EB3677C6002212E7EB3699DB4B7
:1098B000120A7E7400D27E6400FF800BB4106F7EAB
:1098C0007400C27E6400FF7F0312982650607EB34E
:1098D000699BF52B7EB3699CF52C752D00752800CE
:1098E00080257E71287402AC7B09B36564F5290973
:1098F0007365657A712A7E612B7E512C7F031299E4
:10990000395002052D052812993138D60A271E2410
:10991000E52D0A3BBD3208167528008009E5286C44
:10992000771274EB052812993138F2121136DA3BAE
:10993000227E736766BE712822CA3B7F707C967C4C
:10994000177C0BC2001212E17DD37E64004BBE0077
:1099500000280D7CB0147C711212E57A352E80033C
:109960007AD52E0AC91BC40A10BD1C580C7CB00441
:109970007C711212E57D7380027D7DA5B900469051
:109980000190E493600C9001A2E493F53090019172
:10999000800A900191E493F5309001A2E493F531AF
:1099A0000A391E347D231B24E5300A1B9D210AC081
:1099B000BDC278047D7D800DE5310A1B2D13BDC12C
:1099C00078037AD52EBE652E0808BD670804D2003C
:1099D0008032BE652E1804BD6708290A107F172D36
:1099E000317E1B60BE60016809A5BE0417BE9010E1
:1099F00078127CB07C717F07128FC2120549BD3688
:109A00000802D200A200DA3B227EB38E64B40106C3
:109A10007EB32E75605B7EB38E557E1F2D26B411EE
:109A20000F6D227E1409C41236957DC37422800FF7
:109A30007E2432C87E1442681236957DC374117A32
:109A4000B38E557E1F2D2A7E24FFFF7E1403E8125D
:109A500036957EA3699C7EB3699BA47DD51ED41EDA
:109A6000D4BDDC500375E9FF1ED4BDD3500375E9A6
:109A7000FF22CAF86DFF7DEF7EB36766B402627E97
:109A8000B3696EB4015B6C99800B129AEBBD0E0842
:109A9000027DE00B90129AE438F07DFEBEF4038460
:109AA0000812BEF405DC180C9EF7697C1EF41EF447
:109AB0001EF4800ABEF405DC08089EF7697C1EF4DB
:109AC0001EF46C998016129AEB7E17697C2D1FBDCF
:109AD0001028077CB96C771274EB0B90129AE4385B
:109AE000E5DAF8227E736766BC79227402ACB909A4
:109AF000F56564098565657CBF7C781212E57D0398
:109B000022D2006C99802C7402ACB9090558FD0969
:109B10001558FE1212E17402ACB9492558C07DF304
:109B20009DF27D3F120549BE37677F0804C2008061
:109B30000A0B907E8358FCBC8938CC20002E6C998F
:109B400080217402ACB909056564091565651212B6
:109B5000E17402ACB9593558C0190558FD191558AA
:109B6000FE0B90129AE438DA7A7358FC7EB367667B
:109B70007005E47AB358FCA20022E47AB3678775D3
:109B800028007529007EB3699BF52A7EB3699CF590
:109B90002B7E0800287E37697E129BE5E4337AB37A
:109BA000678712CA0AE4337AB3678B129B01E433E6
:109BB0007AB3678C22129B7A12C9B6129D6A029BF5
:109BC000C17E276F961E241E24E47AB3678D7E37EC
:109BD0006768BD3238087E37676ABD32280674016F
:109BE0007AB3678D22CAD8CA797D437F70129D707F
:109BF00028266CFF801D12F28B129C1E7DD37F07DE
:109C00007C7D12CA9A5007BD4D5806D3800BD38075
:109C1000080BF01275F938DEC3DA79DAD8227CBE87
:109C20007C7D0212E5129BB5128749129C8140058A
:109C3000E47AB367907EB367906030E47AB38ECAFB
:109C40007E088ECB7E3400021200267EA38E8E12FA
:109C50004D4C60053E441478FB7CB94EB36F957A49
:109C6000B36F95BEA0017803124FEE129C8140069F
:109C7000129C9512ECB97EB367966004E4029CD9FD
:109C8000227EB38E8F700C7E738E67BE738E904073
:109C900002C322D3227E1809467A1D287E1F2D2A50
:109CA0007F01E4029CA67CAB7F617F70129D2C7EBD
:109CB000B3699C7AB37D29129EE27AA37D2AE412CD
:109CC000F1E37E1D287A377D2E7D3F7A377D307E09
:109CD0003400101257DB0231E3CAF87CFB129D2CD2
:109CE0007E087D387E340005120026129D787E475E
:109CF00067834CFF78337A737D297AA37D287E545D
:109D000009467A577D2C7E1F2D2A7D537A577D2E4A
:109D10007E1F2D2A7D537A577D307CB9F5287E0829
:109D20007D287E187D38123284DAF8227E087D285C
:109D30007E340010E4020026129E5E129D30129EB8
:109D4000A5129EB6A203129ECA7A737E577E3480F5
:109D5000007A377E5EA20492057E087E540231B5F9
:109D60007E1F2D2E129D386CFF22E47AB3678A2263
:109D70007E736766BE7000227EA3699B7E73699CBA
:109D8000229001B3E493604F129D786C6680230AA1
:109D9000262E2401B41274DE7C5BAC573E247E0F69
:109DA0002D2E2D120B0A207E3002AC3659217D2833
:109DB0000B60BCA638D96D226C6680177E3002AC71
:109DC0003649417D287DF2129DDA1B0A400A172D83
:109DD000210B60BCA638E5227DF43EF47E0F2D2ECB
:109DE0002D1F229001B3E4936052129D786D227D65
:109DF000426C668024129DD80B0A100A062E0401BC
:109E0000B47A11827A0183E4937C1B7402AC1B59EF
:109E1000107D280A172D410B60BCA638D87D426CF6
:109E20006680157E5002AC5649227D28129DD81BB3
:109E30000A200A272D420B60BCA638E72212CF78F1
:109E4000129DE312BC73129D81129E577EB38EC980
:109E5000B4010302C8012274017AB38EE2227F6149
:109E60007F707E087E54227A1D44C201C2027E2F7A
:109E70002D2E7F027F12129E5E129D30129EA57AB9
:109E8000B37E56129EB6A201337C7B3E703E7012AA
:109E90009EDB7A737E577E3480307A377E5E7E0812
:109EA0007E540232E87E73699C7A737E557E7369B4
:109EB0009B7A737E54227D3D7A377E587E1D447A8C
:109EC000377E5A7D3F7A377E5C22337C6B3E60A2C0
:109ED00001E4337C7B3E703E704C76A202E4334C4E
:109EE0007B227EB3699B7AB37D2822CA3B129EE215
:109EF0007ED3699C7EF42E7A6CCC80320A3C6D2233
:109F00002F112E2400FF2E1807B30B1A501BF850E8
:109F10000BF57EA00180110A3C6D222F112E24002A
:109F2000FF2E18074B12F36EBCDA38EB0BC07EB372
:109F30007D28BCBC38C66CCC12F23B2E0400FF2E30
:109F40000807D37E0BE07F012E0400FF2E0807D404
:109F5000129FEE0AEF2D4E2E2400FF2E1807D57EFD
:109F60001BB01A2B7D343E342E342E7A0B38E02D64
:109F7000E21B38E00BC0BEC00878BD7EF4339A6C9B
:109F8000CC801B6CAA80110A3A6D222F112E24005E
:109F9000FF2E18076B12F36EBCDA38EB0BC07EB3E2
:109FA0007D28BCBC38DD6CCC12F23B2E0400FF2EA9
:109FB0000807EB7E0BE07F012E0400FF2E0807EC64
:109FC000129FEE0A1F2D412E2400FF2E1807ED7E52
:109FD0001BB01A1B7D243E242E24339A0B28302DCF
:109FE000311B28300BC0BEC00640BDDA3B227E0BC1
:109FF000F07C9EAC9D227CAB7EB3677C6027B40175
:10A00000097EB36766BEB002681B7EB36766B402A2
:10A0100014740DA409B565E6BEB014280874047A5A
:10A020000BB07A1BB022CA797CABD2006C99804805
:10A030007EF00DACF909B7679BBCBA783949576710
:10A0400099BD503810BD51400C49176797BD123863
:10A0500004BD135002C20030001849376797BE3460
:10A0600002C6500EBE3401682808BE540073500268
:10A07000C200A200800C0B907EB3696DBCB938B0F1
:10A08000A200DA79227F717F603033067EB38E8E34
:10A0900070097E088BFD12A12F212A6C110A311242
:10A0A00067C06009E40A3119B38BFD80730A310976
:10A0B000B38BFD606B7E700DAC712E348C8B7E2368
:10A0C000696D7CB2047AB3696D7E300DAC23126683
:10A0D000EA7E900DAC9149348C8B7408ACB17F56FC
:10A0E0002DB57935000249348C8D2D5D7D4C79324A
:10A0F000000474010A3112A1370A3109038BC10A25
:10A100001119018BD52E348BFD7E39B0147A39B0FC
:10A110007E3400017CB160053E341478FB1267E1A7
:10A120000B10A5B90A028002019D7EB3696D227EE3
:10A1300034000AE40200262D3F7D2E7A1BB022CA8D
:10A14000D8CA797F717F607E378C074D33780241A2
:10A150006A6CDD0A3D1267C0700241617E34000105
:10A160007CBD60053E341478FB5E378C0778024175
:10A17000616CEE0A3E1267C070267E3400017CBE20
:10A1800060053E341478FB5E378C0778137408AC96
:10A19000BD7F1612A27CBEB003680CBEB00168077A
:10A1A0000BE0BEE00A40CCBEE00A503B74010A3E20
:10A1B00012A1377408ACBD7F162D357408ACBE7F74
:10A1C000062D1574081204186CFF8014740DACBFB2
:10A1D0000975679BBC7D780619E5679B80650BF068
:10A1E00012A26F38E7805C6CFF80177E700DAC7F29
:10A1F0000953679BBC5D780874FF19B3679B8007A0
:10A200000BF012A26F38E47EB3696D147AB3696DF6
:10A210007E700DAC7F2E3467977E147D4E740D12C8
:10A2200003F77E63696D7E700DAC6712A283AC3F4D
:10A230001266EA7E347D4E7E23696D7E300DAC233E
:10A240001266EAE40A3D12A1377E347FFF7408AC3F
:10A25000BD7F062D15793000027F062D157930005F
:10A26000040BD0BED00A68022153DA79DAD8227EF4
:10A2700073696DBC7F227408ACBC7F172D3529B182
:10A280000001222E3467977E300D22CA797CEB9034
:10A290000203E4937CFB7E700DAC7F7E087D287406
:10A2A000FF120026E46C777C6E12A3097C7E7C6F23
:10A2B00012A3097C1B6C0080366C998017740DAC5E
:10A2C000B909A57D2C7E300DAC300981679BBC8A15
:10A2D00068060B90BC1938E5BC1978117E700DAC7E
:10A2E0007012A283AC312E147D281267C80B00BCFB
:10A2F000F038C6740DACBFCA597E187D287E086838
:10A300009B1205241BFDDA79227E087D28CA69CAC2
:10A31000F87F707C867CF77CAB6C9961CD7C3F616B
:10A32000C57E100DAC190920689F7E100DAC130975
:10A33000B0679BBCB2680261C3BE20FF780261C3F4
:10A340007ED008ACD209B6691D700A7D302E346704
:10A35000976D22800B7E700DAC792E34689B6D2238
:10A360002911000412A3DF391600040B1A0012A3EE
:10A37000DF1B6A006901000212A3DF790600027E7A
:10A38000100DAC130910679C12A3DF391600057E6F
:10A39000100DAC130910679D12A3DF391600067E5D
:10A3A000100DAC130910679E12A3DF391600077E4B
:10A3B000100DAC130910679F12A3DF391600080BAC
:10A3C000A080080B30BC83280261210B909002030F
:10A3D000E493BCB92802611D7CBADAF8DA69227EFE
:10A3E000D00DACDA7F672DD622CA797EF3696D7EF7
:10A3F000E3696E7CBF7C7E12A42A7CBF12A28B4CC8
:10A40000EE781412A6D8CA597E1867977E08689B02
:10A410001205241BFD800B7EB3697470057CBF128E
:10A42000A4847CBF12A704DA79227C677C7BA5BF59
:10A43000000DBE60002805E47AB3697402A6E3A5A6
:10A44000BE00126CAA800912A6CF1962689F0BA0E9
:10A45000121CBC38F26CAA80267E300DAC3A2E1449
:10A4600067970B18201223801B18207E300DAC3A02
:10A470002E1467990B18201223801B18200BA0BCE8
:10A480007A38D622CA3B7CFB6CEE80716CDD80167C
:10A49000740DACBD0965689F740DACBE0975679BF2
:10A4A000BC6768070BD012A50438E512A504285133
:10A4B000740DACBD09C5689F12A6C6493567999D44
:10A4C000321205497DD3740DACBD4925689B740DCE
:10A4D000ACBE1266032DD37408ACBC09B5691DB4BB
:10A4E000010E6DCC7402ACBC59C56F9F59C57397F2
:10A4F0007D3D7CBD7C5E7C4C12A50C0BE0BCFE3827
:10A500008BDA3B22900203E493BCBD2202A50FCA62
:10A510003B7CC47CE57CFB7DF37EE4FFFC7E5369E1
:10A520009B0A551B54F5287E53699C0A251B247CE5
:10A53000D57E5359590A057D201B24680B1B2468BE
:10A54000120B257819E48018E47AB359417E04008F
:10A55000408015E47AB359417E040010800A7401EA
:10A560007AB359417E0400703E043E043E043E042A
:10A570003E04BE0411E828067E0411E8800ABE04E9
:10A5800001FE50047E0401FEBD0338067E14010066
:10A5900080196D227C567C676C777D101203707D6C
:10A5A00013BE14001050047E1400107402ACBC4999
:10A5B000057397BD0F280649156F9F800459156FC5
:10A5C0009F59F57397BE14010028047E1401007E84
:10A5D000B35946B4010B7E73696DBE7002400F80A3
:10A5E000097E73696DBE700528041E141E14BE1406
:10A5F000001050047E1400107E700DAC7E0953676D
:10A600009E09A3679FBE50024027E5280A0B1B0541
:10A610000A25BD20181BBEA00240160A0D1B050A04
:10A620002ABD20180CBE14008028107E14008080E3
:10A630000ABE14009C28047E14009C740DACBF4913
:10A6400025689B493367971265F712A6B77E700D90
:10A65000AC7F4903689B740DACBE49256797BD204C
:10A66000280F7D532E54689B7D202D2F1B58208052
:10A67000092E34689B9D0F1B3800740DACBF12A6C9
:10A68000C61265F312A6B77E500DAC5F4932689DC5
:10A69000740DACBE49E56799BDE3280F7D022E0419
:10A6A000689D7D132D1F1B081080092E24689D9D19
:10A6B0003F1B2830DA3B227D31AD3F7C767C650A3A
:10A6C000247DF35DFE224925689D740DACBE227E7B
:10A6D00060FF7E500DAC5A22900203E4937CAB7471
:10A6E0000DA422121FB97402AC7B7E087397E4128A
:10A6F0000026900203937C7B7402AC7B7E086F9FE4
:10A70000E40200266CAA80637E500DAC5A49326880
:10A710009B120B5B593267977E500DAC5A493268D9
:10A720009D120B5B593267997E900DAC9A09B46803
:10A730009F19B4679B7E900DAC9A09B468A019B4B8
:10A74000679C7E900DAC9A09B468A119B4679D7E90
:10A75000900DAC9A09B468A219B4679E7E900DACB6
:10A760009A09B468A319B4679F0BA0121CBC38984F
:10A77000227CAB7C177E9008AC9A1914691E7E90DF
:10A7800008AC9A1914691DBE247FFF68097E100861
:10A79000AC1A5920691FBE147FFF68097E5008ACAF
:10A7A0005A59126921BE340001781212A7BE5943CA
:10A7B000691F7E347FFF7408A459356921227E44C5
:10A7C0007FFF7E7008AC7A220A3B09B38BE922CA6C
:10A7D0003B6D887D987E73696D7A7137BE700028F5
:10A7E0001A7E3778B60B347A3778B6BE34006428D0
:10A7F0000E7E3400647A3778B680047A8778B67E25
:10A80000B35960B40104740380077EB378656005B2
:10A81000147AB378657E876F9DBE878E8928107EF7
:10A8200084FFFF9E876F9D2E878E890B8480087E14
:10A83000878E899E876F9D7D387CC77E878E897ABB
:10A84000876F9D7EB36974600302B1C2C22A7E84A1
:10A8500067977E087D6D12A12FC2007AB36F9C6C42
:10A86000EE02B03012F0E009F20004BEF00A40033C
:10A8700002B02E12F213B402028002E1817402AC23
:10A88000BF7DA52EA4788E0BA8300B341BA8307E7C
:10A890003073AC3F2E1473D36D007A0D2E12F32B50
:10A8A000491573AB490573AD12CF827DA312F0E059
:10A8B00012F32B491578664905786812CF827A35EC
:10A8C0002C7E7002AC7F7D132E1478A20B18202DE5
:10A8D0002A1B1820492378A2BE240FA028087E2412
:10A8E0000FA0592378A27AC37D2812F0E009320024
:10A8F000067A337D2A7AA77D317E152C7A177D332F
:10A900000B28107A177D35492200027A277D3749B6
:10A9100023788E7A277D39493378A27A377D3D7442
:10A9200004ACBF493573AB7E477D359D437A477D87
:10A930002D492573AD7E377D379D327A377D2F0ABD
:10A940003F09A37851BEA000280512B1DC80097E22
:10A95000087D3F12F4096D990A3F09A37851BEA002
:10A9600002401212F3CA2E34FFD27E147D567417A1
:10A9700012044180077E087D5612F4096D337A3542
:10A980002A75290080127EA12912F3CA69310009B3
:10A990002E352A7A352A05290AFF097F7851BE719A
:10A9A0002938E3BE7000280A0A277E352A8D327ABC
:10A9B000352A7EE52A7AE77D3BC201C202C203C284
:10A9C00004C205098F78B84C88680261047406AC2B
:10A9D000BC7DE52EE40014BDE95006BDEA5002D26C
:10A9E0002A7EA37D3F7406A4BE577D4850197EA3DE
:10A9F0007D567406A4BE577D5F500C7EE77D52BE27
:10AA0000E400142802D202A202E4337AB37D2B744C
:10AA10001EACBC7DE52DE9BDEA5004D20480127E57
:10AA2000340003AD39BD3A5008BEA4006E2802D2EE
:10AA300005300406D2037464801430050F3002061A
:10AA4000C203740A8008D20374C8800274147AB3F3
:10AA50007D2920030241DC7EE77D3BBEE4000A281D
:10AA60007B7EE77D52BEE4000A28717EE77D69BEE9
:10AA7000E4000A28677EC77D442EC77D4CBEC40013
:10AA80000058026DCC7EB77D462EB77D4EBEB40019
:10AA90000058026DBB12F2247D1C7D0B12CF827D0B
:10AAA000C37EE77D54BEE40FA0400A7E277D527E20
:10AAB00034000A80177E937D2ABE900A7E277D523D
:10AAC00028067E34000680047E340003AD327DD338
:10AAD000BDDC2808C20374287AB37D297EB36F9C3D
:10AAE000B4010BC20312F485746E7AB37D29740E1F
:10AAF000ACBC7A5535BE5400C828297EE400C87A1B
:10AB0000E53580207D3F2E3478B87CB8147A39B092
:10AB10007E3400B47A353574787AB37D29D203E473
:10AB20007AB37D2BA203E4337AB37D2C0A4F09A4B8
:10AB3000785B4CAA78607E3535BD3A500930030603
:10AB4000740119B4785B7E377D39BE340003282246
:10AB5000BE340019501CBEA4008C3802A16D7E07C3
:10AB60007D487E14000AAD10BD1A4002A16DD201CD
:10AB7000A16DBE3400036802A16DBEA4008C380232
:10AB8000A16D7E277D487E34000FAD32BD3A400274
:10AB9000A16DD201A16DBEA0016802A1457E377DE5
:10ABA00069BE340003502C7E277D48BE24005050DF
:10ABB000227E277D39BE24001450187E277D61BE79
:10ABC00024001E500E7E277D4ABE24005050047D76
:10ABD000D981957E277D39BE24000A50137E277DBA
:10ABE00052BE24000828097E537D2ABE500F40190A
:10ABF0007E277D52BE24000F283BBE34000F28352F
:10AC00007E737D2ABE700A502C7E737D3F0A077DBD
:10AC1000198D107D011E0412F400BED400782804A2
:10AC20007ED40078BE700A286CBED4005050667E78
:10AC3000D4005080607E737D3F0A077E177D488D6B
:10AC4000107D0112F4007EA37D417402A47E737D09
:10AC50002A0A37BD35081FBE24001E50197E537DB9
:10AC6000580A259D32120549BE3400050808BED495
:10AC700000C85021800F7E737D2ABE700F280CBE45
:10AC8000D400C828107ED400C8800ABED40078281A
:10AC9000047ED40078BDDA2804D201806E7E35357A
:10ACA000BD3A5008300305740312F21D7E377D391A
:10ACB000BE34001E50557E73702DBE7002282C7E4F
:10ACC000B37D4270267E377D61BE340032501C1247
:10ACD000F22412BB9D50347E73702EBE7002280485
:10ACE000D2018027740212F21D80207E377D61BE62
:10ACF00034001E50167E377D33BE34001E500C7E4D
:10AD00003778B6BE3400785002D2010AFF098F7836
:10AD10005BBE8001782212F2247E177D637E077D60
:10AD20006512CF82BE34003C5009C201E40AEF191B
:10AD3000BE785112F4858035BE80037830740119D5
:10AD4000BF785B80280A3F09B3785BB4021F7E732B
:10AD50007D560A277E377D5F8D327D231E240A3C77
:10AD6000AD327DD3BDDA2802D20112F21C7496AC4A
:10AD7000BC7A5532BE540500280D7EB37865700745
:10AD80007E3405007A35327E3532BD3A500C7E373E
:10AD90007D39BE3400022802D20130016B12F21C50
:10ADA0007548017E340002124FCD7E047FFF7D1076
:10ADB00012661A7E700DAC7E12A283AC3F2E147EFA
:10ADC00085740D1203F7740212B1D37E347FFF74C1
:10ADD00004ACBF593571D375290080197E7129746F
:10ADE0000DAC7B0953689FBC5F780874FF19B3688A
:10ADF0009F800C0529900203E493BEB12938DDE55C
:10AE000037BEB000280215370A3F09A3785B4CAA69
:10AE10007802E108BEA00178377E277D39BE240084
:10AE20000278127E5004AC5F491273AB7A15444924
:10AE30002273AD80397E277D4C7A25447E277D4E56
:10AE40007A25467E277D447A25387E277D468045B3
:10AE5000BEA00278437E277D39BE240003381974D2
:10AE600004ACBF492573AB7A2544492573AD7A25D7
:10AE7000466D227A2538801D7E277D637A25447EA3
:10AE8000277D657A25467E277D5B3E247A25387EA0
:10AE9000277D5D3E247A253A7EC5382EC5447EB591
:10AEA0003A2EB5466D227A253C7E1765607A1540AC
:10AEB0007A253E7E2765627A25426D22BD2C0804E4
:10AEC0007DC280097E2540BD2C58027DC27E253E74
:10AED000BD2B08047DB280097E2542BD2B58027D22
:10AEE000B27E500DAC5E7D122D180B18007404ACB0
:10AEF000BF590573AB49010002590573AD1B18C05A
:10AF00002D2859B20002801612F0E00B284074047C
:10AF1000ACBF594573AB49220002592573AD09B343
:10AF20007851B40539752900801A7EA1297417A4B7
:10AF30007E0D2E7F102D352E3400172D157417120F
:10AF400004180529E529BEB00440DF7E347D287E43
:10AF50000D2E2E14005C741712046602B02E7E347F
:10AF60007D280A2F09A278517417A47E0D2E2D1565
:10AF700074171204660A3F2E34785112F47D02B021
:10AF80002E12F213704E12F4750B38107E5004AC72
:10AF90005F5912786612F4754933000259327868A5
:10AFA000591273AB593273AD6D337E5002AC5F5999
:10AFB0003278A2E40A1F19B1785119B1785B7E1476
:10AFC00000015912788E593278A274010A3E19B3E1
:10AFD00078B8805A12F213B401540A4F09B4785B5E
:10AFE000B4014B7E73696EBE700128427E7073ACF3
:10AFF0007F2E3473D36D227A1D2E09A47851BEA002
:10B0000000280512B1DC80026D99BE9403E8501E41
:10B010007E9004AC9F493473AB740DACBF59357E40
:10B0200085493473AD59357E87740112B1D30BE075
:10B03000BEE00A500302A8647E73696DBE713728B2
:10B0400009E5377AB3696D1266F320000221BD6C01
:10B05000DD7534007E087D7712A12F7E087D811278
:10B0600067D86CEE80517E700DAC7E09F3679BBE95
:10B07000F00A504174010A2F19B27D777E9008AC16
:10B080009F0914691D4C116804A5B9020B2E346781
:10B090009712B1C50BD0801DA5B901197E700DACFA
:10B0A0007E2E3467977E3134740DAC3B2E147E03B4
:10B0B0001203F705340BE0BEE00A40AA6CEE2175DE
:10B0C0000AAE09BA7D6D70022173752800216AE508
:10B0D000280AAB09BA7D7760022168740119BA7D2C
:10B0E000777E700DAC7E2E347E8512B1C57EA12890
:10B0F0007E900DAC9D19A47D8549F47D817EA128AB
:10B100007404A459F5786649A47D8359A5786859D3
:10B11000F573AB59A573AD6CAAE5280AEB19AE78A7
:10B1200051E419BE785B6D447EA1287402A4594590
:10B1300078A27E3400015935788E740119BE78B832
:10B140000AEE09BE7D6DB40105754801800A09BE8D
:10B150007D6DB4020F75480012677AE5287D1F7D6A
:10B160000A12661A0BD0800B0528E528BEB00A50DB
:10B170000201CF0BE0BEE00A500201C06CEE801A63
:10B180007E700DAC7E2E347E030A2E0A0D2D027EBB
:10B1900014000DAD1012B1CA0BE0E534BCBE38E0AE
:10B1A0006CEE80107E300DAC3E7D312E347D8112F0
:10B1B00066EA0BE0BEE00A40EB7AD3696DE47AB34D
:10B1C0007396DA3B227E300DAC3D2E147D81740DDA
:10B1D0000203F70A3F19B37D6DD200227417A47ED3
:10B1E0001D2E2D352E34FFE97E147D3F7417120479
:10B1F000417E977D48226CAA7E63702CE40A461932
:10B20000B4702F19B470396C7780487E500DAC57EC
:10B210004922679712B2A1592170437E500DAC5755
:10B220004922679912B2A1592170450A262E24702D
:10B230002F12B2997E500DAC570942679B7E500881
:10B24000AC4509B2691D70090A262E24703912B264
:10B25000990B707EB3696DBCB738B07EB3702C04A7
:10B260007AB3702CB40A05E47AB3702CE47AB37024
:10B270002E6C770A270962702FBC6A28027CA60A06
:10B2800027096270392E63702E7A63702E0B70BEA0
:10B29000700A40DF7AA3702D227E29B0047A29B08B
:10B2A000220A160901702F7E1004AC017E3028ACF2
:10B2B000362D10226CAA6C7780357E500DAC574924
:10B2C00042679749226799BE44002328207E17656C
:10B2D000609E140023BD142814BE240016280E7E80
:10B2E0001765629E140016BD1228020BA00B707E1B
:10B2F00063696DBC6738C37CBA227E08702C7E34CB
:10B3000001A7E40200267F707C9B7EA00A7E302885
:10B31000AC3919A171FCE419B171FD740119B17155
:10B32000FEE419B171FF19B1720029770005197196
:10B330007201297700061971720219B172037E0435
:10B340007FFF590172040B7A305931720669070088
:10B350000259017208593172125901721419B172ED
:10B360001F5931720A5901720C5931720E5901720A
:10B37000106937000B69270009593172225921726F
:10B380002022CA3B7EB36979F53475460A7E686926
:10B390001D7E58679775470A7548057E8400647A54
:10B3A000853C7E9765607D399E3400647A353E7AAF
:10B3B00085407E7765627D879E8400647A85426DD4
:10B3C000887A85446CDD02BACC7E700DAC7D7F75C9
:10B3D0002DF329C70004BEC00A400302BACA0B7A83
:10B3E00020BE25442804BD2940057532018003751F
:10B3F000320069270002BD282804BD2740057533A7
:10B400000180037533007408ACBC7F062D157E0BDC
:10B41000B0B40202800302BAAF7E5028AC5C09B21D
:10B42000721F60164902720E0B7A109D107A152C4D
:10B43000492272107F052D1380197428ACBC492550
:10B44000720612BAD70B0A309D327A352C12BB5CC9
:10B4500012BAD712BB557A352E7E352C1205497A91
:10B4600035287E352E1205497A352A7428ACBC4918
:10B4700025720C12BAD712BB5512BAE84925720AC6
:10B48000740DACBD2D5B7D4A0B2A30126FA77A3547
:10B490003012BAD729B00005F53629B00006F537C5
:10B4A0006930000B692000097A1D387E7028AC7C59
:10B4B00009537201BE51365006E53619B3720109BF
:10B4C000537202BE51375006E53719B3720209B301
:10B4D00071FDBEB0FA50082E3471FD047A39B07C8B
:10B4E000BC12A7C8600A7428ACBC09B571FCF5464B
:10B4F0007535007E3028AC3C09A171FF4CAA784913
:10B50000E534BEB00840107E0530BE040050503116
:10B5100075351E8034802AE534BEB00540137E05A3
:10B5200030BE04003C5005753514801D75350A8009
:10B5300018E534BEB00340117E0530BE0400325021
:10B540000575350F80037535074CAA6802C1C80917
:10B550007171FDBE70124002C115094171FC7E502F
:10B5600003AC457E71367402AC7BBD235810E536C2
:10B57000BEB0282809128000197171FC800F097172
:10B580007201BE70195006740A19B171FCE536BE1D
:10B59000B050500F7D012E0472037E09B0047A0969
:10B5A000B08005E419B1720309717201BE705038A0
:10B5B00002C1B709617203BE60034002C1B70A3716
:10B5C000E5360A0B2E040014BD03481209717202FD
:10B5D0000A477EA1377402A4BD544802C1B77E3524
:10B5E0002A7D232E2528BE240064500A6D227A2548
:10B5F000287A252A80117E25281E241E247A2528B3
:10B600001E341E347A352A7EA0027E7028AC7C1946
:10B61000A37200C1B7E536BEB078281B7E3530BEB8
:10B6200034007850797EB3594770057EA028806930
:10B630007EA00A80648067E536BEB06E281B7E352A
:10B6400030BE34006E50577EB3594770057EA01E41
:10B6500080477EA00680428045E536BEB064281B48
:10B660007E3530BE34006450357EB3594770057E58
:10B67000A01480257EA00680208023E536BEB05031
:10B68000282A7E3530BE34004650137EB3594770A9
:10B69000057EA00A80037EA00612BAF580197E34CA
:10B6A0007FFF7428ACBC5935720A800B12F20ABEB7
:10B6B000A147280312F0BF12F39BBE3400045008C8
:10B6C0006D337A35287A352A12BB070B1A10BE154E
:10B6D0003C4013BE153E380E69310002BE35404075
:10B6E00005BE35422804D2008002C2007E44000319
:10B6F0007E7D387F177D1412036712F2A5BF1058A4
:10B7000005753564E1AF7F072F0012F03BBF01588C
:10B7100002803112F03B7D141203677F017E1D38D9
:10B720002F112F11BF10582175350A12F39BBE340B
:10B730000064507B12F3F7BE34001E5072E536BE33
:10B74000B050286B75353280667EB3594770191238
:10B75000BB10605B12F20ABEA00A28057E700A8048
:10B760003BBEA0022849804412BB1060427428AC42
:10B77000BC09B5721F701A12F3F7BE3400055011E0
:10B7800012F03B7E0D389F10BE18019008037535EE
:10B790001E12F20ABEA01E280E7E701E7E5028AC1D
:10B7A0005C197271FC8008BEA002280312F0BF3041
:10B7B000000C12BB10B4010675350012BAF212F279
:10B7C000A57E1D382F107E0800021203C37428AC1A
:10B7D000BC593572225925722012F39B7428ACBCD7
:10B7E0005935720412BB070B1A307428ACBC59359A
:10B7F000720E12BB07693100027428ACBC59357255
:10B80000107428ACBC097571FCBE713550067EA160
:10B810003512BAF57CBC12A7C860067EA14612BAE2
:10B82000F57439ACBC09B58988B40A0312BAF27E42
:10B830007028AC7C095371FC0A25BE2528380221EA
:10B8400037BE252A3802213712BAD712BAFF69301B
:10B8500000027428ACBC5935721412BB106002018E
:10B86000FC12BB229D217428ACBC5925721612BB58
:10B870005C9D327428ACBC593572187428ACBC4934
:10B880001572167E04001012BB495935721A12BB8C
:10B89000194D337826BE140000080E7E3400017462
:10B8A00028ACBC5935721A8012BE140000580C7EA8
:10B8B00014FFFF7428ACBC5915721A7428ACBC492B
:10B8C00015721812BB495935721C7428ACBC490555
:10B8D000721C4D007826BE140000080E7E04000184
:10B8E0007428ACBC5905721C8012BE140000580CA0
:10B8F0007E34FFFF7428ACBC5935721CE532BEB0F3
:10B9000001680912BB2212BB071B1A10E533BEB037
:10B9100001680F7428ACBC4935720812BAD7793067
:10B9200000027E7028AC7C09B37200600241CA74C8
:10B930000119B3720041CA6CAA7E7028AC7C19A3AD
:10B94000721F7428ACBC4925721212BAD70B0A3088
:10B950009D327A354D7428ACBC4925721412BB5502
:10B960007A354F12BB1912BAE812BB2B481D7E70F4
:10B9700028AC7C4923721A7A25517D132E14721635
:10B980000B18209E255112BB3F80056D337A35512F
:10B9900012BAE012BB35481D7E7028AC7C49237278
:10B9A0001C7A25537D132E1472180B18209E2553D4
:10B9B00012BB3F80056D337A35537E7028AC7C49CD
:10B9C0002372062E254D2E25517A254949137208DA
:10B9D0002E154F2E15537A154BBE24000058056DB9
:10B9E000227A25497E276560BE254950037A25497C
:10B9F0007E254BBE24000058056D227A254B7E27FC
:10BA00006562BE254B50037A254B12BAD712BAFF96
:10BA100069200002592372144933721A12BAE812CB
:10BA2000BB2B481E12BAD70B0A20BE240040281296
:10BA30007E3765602E34FFC1BD2350067E35491B1D
:10BA40000A3012BAE012BB35482012BAD76920007A
:10BA500002BE24004028137E3765622E34FFC1BD2C
:10BA60002350077E354B793000027EA0017E70287E
:10BA7000AC7C19A371FFE419B3720012BAD70B0A98
:10BA80002059237206692000025923720809A37104
:10BA9000FCBEA1474008E54819B371FC802CBEA04C
:10BAA0000128272E3471FC7CBA147A39B0801B74BB
:10BAB00008ACBC7F162D357E1BB0700E7CBC7E7032
:10BAC0000DAC7D7F052D1312B3060BD012A50428F3
:10BAD0000302B3C9DA3B22740DACBD7F052D1522DC
:10BAE0007428ACBC4935721C1205497D137428AC0E
:10BAF000BC227EA0017E7028AC7C19A371FC220BB5
:10BB00000A205923721222740DACBD7F152D3522E7
:10BB10007428ACBC09B571FF227428ACBC493572DD
:10BB20001A227428ACBC49157206224935721612C5
:10BB30000549BD312249357218120549BD31221B14
:10BB40001820740119B3721F227D317D2012032445
:10BB50007428ACBC22693000029D32227428ACBC2F
:10BB600049257208226CAA7E34FFFF7E5004AC5A2D
:10BB700059326FFA59326FFC59326FBD59326FBF6B
:10BB80007E3002AC3A59316FE67E347FFF59327114
:10BB9000D3593271D50BA0BEA00A40CB227D127DB5
:10BBA000036CAA6C99803212BBEC2D32492370438E
:10BBB0007D301265F712BBEC7DE32DE2492E704516
:10BBC0007D319D321205497DE3BEF400645008BE0C
:10BBD000E400645002D3220B900A3A09B3702FBCE0
:10BBE000B938C40BA0BEA00A40B9C3227E5004AC31
:10BBF000597E7028AC7A227EB37396BEB0FA500597
:10BC0000047AB373962274017AB367967EB367871A
:10BC1000B40105E47AB3679612BC3A2805E47AB316
:10BC200067967EB32E747005E47AB367967EB3038D
:10BC3000D7B40105E47AB36796227E73696EBE704D
:10BC40000022D200E47AB367907AB367937EB36739
:10BC500088B4010674017AB367907EB3678C700272
:10BC6000C2007EB32E747002C200200005E47AB3D5
:10BC7000679022CA3B7E3408257E2400FF7E147D17
:10BC80002874241204417E3408497E2400FF7E1467
:10BC90007D4C74241204417532006D337A35377E41
:10BCA000A3699D7AA1397EB3699E7CEB7E18042638
:10BCB0007F417E187DE27F510B357F515E70FE6DB6
:10BCC000227F517AE145C201C202D2037F057E1F65
:10BCD0002D2E7CBA12CFC0C2007EB3696E60087E82
:10BCE000B38EDE6002D2006CFF0A0F09308EDC0AD0
:10BCF000530A3E1B34BD53582009708EDDAC7E7D47
:10BD0000032D057A053A7D403E447E7F2D2E7F67C8
:10BD10002DD4691600021B6A100BF07E187E087A7B
:10BD20001D3C7E347E0A7E2400007A1D3C5E70FE3F
:10BD30006D227A1D3C7E187E2E7A1D407E347E3028
:10BD40007E2400007A1D405E70FE6D227A1D407ECA
:10BD5000187D707A1D2A7E347D727E2400007A1D43
:10BD60002A5E70FE6D227A1D2A7EB3699BF5296CCE
:10BD7000FF803F12F32349107D282E140BB812EFD9
:10BD80003EACAF49157D4C2E140BB812EF347E1427
:10BD90000BB87EA002ACAF7E1D3C2D351B1A107E69
:10BDA00014F4487EA002ACAF7E1D402D351B1A1046
:10BDB0000BF0E529BCBF38BB3000067E1D40129E4B
:10BDC000677E187DBC7A1D2E7E347DBE7E240000E9
:10BDD0007A1D2E5E70FE6D227A1D2E12F343D20361
:10BDE000C2047E0D2E129D60802512F3237E1D2E2F
:10BDF0002D300B1A100B1412EF3EACAF7E1D2E2D02
:10BE0000350B1A007E14FFFF9D1012EF340BF0E586
:10BE100029BCBF38D512F343C203D2047E08040004
:10BE2000129D6080167EA002ACAF49350400BE347E
:10BE30007FFF780575320180080BF0E539BCBF380B
:10BE4000E4E532B401057E1D2E80047E1804007ADC
:10BE50001D337E0D33A200E43312C76CE4337AB392
:10BE60008EDE6CFF02C0517C7FAC7E3E342E3404EB
:10BE7000266D227F4112F3237F752DF00B7AD0BE01
:10BE8000D40014581F7EB35962B401182000030275
:10BE9000C04F7E2D332D500B2A309E340BB81B2AF9
:10BEA0003002C04F302C31BED407D008097E1403B5
:10BEB000201B7A10E13ABED403E8080A7E14025827
:10BEC0007F152D308052BED40000180302C04F7E73
:10BED0001401F412EEEF80407E3402587A353A7E37
:10BEE0003401907DE37E34012C7DF37EB38E8FB4DC
:10BEF000021A7E353A2E3400C87A353A7D3E2E3409
:10BF000000C87DE37D3F2E3400C87DF3BED407D04A
:10BF1000080B7E153A12EEEF1B1A10801DBED403DB
:10BF2000E8080812EEEF1B1AE0800FBED4000018DC
:10BF30000302C04F12EEEF1B1AF07EB38E8F700A11
:10BF40007E14019012EEEF1B1A107EB38EDE600A93
:10BF50007E14029412EEEF1B1A1030000A12F1EE5A
:10BF60009E340BB81B0A307EA0027C9FAC9A7E6D7B
:10BF7000337F162D340B1A207F052D140B0A40BD7C
:10BF80004258097EA002ACAF7F16801912EEEF0B6B
:10BF90001A306D449D4312F1EEBD43080D7EA002A0
:10BFA000ACAF7E1D332D351B1A4012C1567D430E9A
:10BFB000347A3537BE440000483830001B752800FD
:10BFC000800F12F29808077D369D3412C14C12C1C1
:10BFD0002ABEE12838EC8077752800800E12C14314
:10BFE000080612C1331B4A6012C12ABEE12838ED8F
:10BFF000805D30002F752800802312F298581BBEF8
:10C000006400C8580D12C13A48087E3400C77D63E9
:10C01000800312C1337D3612C14C12C12ABEE12801
:10C0200038D8802B752800802112C1435819BE646E
:10C0300000C8580D12C13A48087E3400C77D63809D
:10C040000312C1331B4A6012C12ABEE12838DA0B41
:10C05000F0E539BCBF280302BE677EB38EDE6050B8
:10C0600074027C7EAC7B1B347A35377EF0018034E1
:10C0700012C156BE34012C08217E05377DF03EF4F6
:10C080007E2F2D2E7F622DDF0B6A20BE24006408D8
:10C09000097D329E3400641B6A300A3E2E35377AA1
:10C0A00035370BF0E5390A2B1B240A3FBD3248C057
:10C0B0003000067E1D3C129E677EB38EDE604E6CA5
:10C0C000FF80447CBFACBE7A55377D153E144901D4
:10C0D0000946BE040000182D1212EFBE34000008FD
:10C0E000247D301205497ED5377D5D3E547E5F2D1F
:10C0F0002E7F752DF50B7A20BD3208097D125E1456
:10C10000000F1B7A100BF0E529BCBF38B66CFF6D31
:10C11000110A3F09138EDDAC1E09738EDC12C16457
:10C120000BF0BEF00140E8DA3B227F140B357F4173
:10C130000528227D369D347D63227D369D34BE34B4
:10C1400000C8220B4A307D63BE6537222E340BB8FF
:10C150007D631B4A60227EA002ACAF7E1D332D356D
:10C160000B1A30222D033E047E1F2D2E2D301B1A5C
:10C1700010227C6B6CAA7E5008AC5719A2691EE491
:10C1800019B2691D740DACB60905679E09A5679FB4
:10C190007439AC7B491389BD7E13699EAC010A3AA0
:10C1A00002C164CA3B7F707EF3696D6CEE803E74A1
:10C1B0000DACBE09D5679B5ED00F0A3E2D3F7D2E8C
:10C1C0007E1BC0BEC00178097CBE7C7D12C6E580A6
:10C1D0001ABEC00278097CBE7C7D12C1F4800CBE00
:10C1E000C00378077CBE7C7D12C1720BE0BCFE38B8
:10C1F000BEDA3B22CA797CF77CEB7E900DAC9E497F
:10C200003467977E5039AC5F5932899F49146799DA
:10C21000591289A17EB35947700E495289A149022A
:10C2200089B22D051E048004490289B2495289B0A1
:10C230009D35593289A39D107439ACBF591589A514
:10C240007439ACBF491589A37E44000C12C3411256
:10C25000C3387439ACBF495589A74D55781CBE14F5
:10C26000000008097E34000112C338800DBE14009E
:10C2700000580712C348591589A77439ACBF49152E
:10C2800089A7BE140000080FBE14000358217E3495
:10C29000000312C3388018BE1400005812BE14FFE9
:10C2A000FD080C7E14FFFD7439ACBF591589A774C5
:10C2B00039ACBF491589A512C34112C35112C35AE3
:10C2C0004D33781CBE14000008097E34000112C3EF
:10C2D00051800DBE140000580712C348591589A992
:10C2E0001267EA7E300DAC3E1266EA740DACBE09F0
:10C2F00065679E0975679F12C6B2ACB60A4712C63B
:10C30000BF7E300DAC3E590167996CAA7E7008ACB7
:10C310007F19A3691EE419B3691D7E700A7439ACD4
:10C32000BF19758988494167975945899B491167A4
:10C33000995915899DDA79227439ACBF593589A785
:10C34000227D317D240203247E14FFFF7439ACBFAB
:10C35000227439ACBF593589A9227439ACBF49352B
:10C3600089A922CA69CAF87CF77CAB7E7039AC7F98
:10C3700049F3899F7E500DAC5A49E267979DEF497A
:10C380003389A149F267999DF37E7039AC7F4933B7
:10C3900089A71205497DD312C52CBD3D48477E10A3
:10C3A00039AC1F490089A77E2400027D3E12032478
:10C3B0007D437D3012C53808027D0412C52C7DD323
:10C3C0007D30120549BDD358097E1039AC1F490094
:10C3D00089A37E5039AC5F2E2489A30B28309D3071
:10C3E0001B283080026D007E7039AC7F493389A9EB
:10C3F0001205497DD312C520BD3D48477E3039AC7A
:10C400003F491189A97E2400027D3F1203247D4308
:10C410007D3112C53808027D1412C5207DD37D31CF
:10C42000120549BDD358097E3039AC3F491189A561
:10C430007E5039AC5F2E2489A50B28309D311B28F6
:10C440003080026D117E7039AC7F4923899B2D2E7F
:10C450002D204933899D2D3F2D31BE2400005802E7
:10C460006D227EF4029212C50EBDF238047E27655D
:10C4700060BE34000058026D337EF402A012C50E77
:10C48000BDF338047E3765627ED00DACDA49F667BD
:10C49000977ED039ACDF59F6899F7ED00DACDA4952
:10C4A000F667997ED039ACDF59F689A17ED00DAC04
:10C4B000DA592667977E500DAC5A593267997E70CB
:10C4C0000DAC7A493367977E5039AC5F5932899BFE
:10C4D000740DA4493567997439ACBF5935899D7479
:10C4E00039ACBF493589A712C516493589A312054C
:10C4F00049BD3F581412C35A12C516493589A512B1
:10C500000549BD3F580312C545DAF8DA69227EE4D1
:10C5100000FF0B7AF0221205497DF37439ACBF227B
:10C520007E7039AC7F493389A50205497E7039ACEC
:10C530007F493389A30205491205497DD37D341211
:10C540000549BD3D226CAA7E7039AC7F19A389884C
:10C5500022CAF812C61350134C1168057EA0088039
:10C56000037EA00412C5477401800E12C5A75007B0
:10C5700012C545740280027401DAF822CAF812C6A4
:10C580001350134C1168057EA00880037EA004128E
:10C59000C5477401800E12C5A7500712C545740225
:10C5A00080027401DAF8227CB07C7F6C667C5102D8
:10C5B000D137CAF812C61350114C1168057EA00875
:10C5C00080037EA00412C54780377CBF1286CF50FF
:10C5D000117EA0017E70027E5039AC5F1972898D88
:10C5E000802C12C5A7500512C545801F7E9039AC1E
:10C5F0009F09B4898D600F7D342E34898D147A396A
:10C60000B07EA0018008E419B489887EA0027CBABB
:10C61000DAF8227C167CF77C0B7CBF7C3B12C719B6
:10C620004002C3227439ACB309558989BE50B4386D
:10C63000090925898ABE200B2802D3220965898B26
:10C64000BE60B438090975898CBE700B2802D322EC
:10C65000BE50282807BE20092802D322BE60282801
:10C6600007BE70092802D322BE50502807BE2007FB
:10C670002802D322BE60502807BE70072802D322AA
:10C68000BE50822807BE20052802D322BE60822821
:10C6900007BE70052802D322BE50962807BE20038D
:10C6A0002802D322BE60962807BE70032802D32238
:10C6B000C3227439ACBF491589BD7EB3699E222D52
:10C6C000543E547E1F2D2E2D351B1A10227C177CB4
:10C6D000B112C61B500C7EA0087E7039AC7119A334
:10C6E00089887401227CAB7EB3696DBEB0002828B6
:10C6F000147AB3696D7E60FF740DA41965679B7E23
:10C7000060037408ACB71965691D7CB71267817E38
:10C71000B38BC0047AB38BC0227CAB7E735947BE07
:10C7200070026804A5BF04107E5039AC5A096289B2
:10C73000B7BE60085034C322BE70016804A5BF03B1
:10C740001B7E7039AC7A09B389B70A2B7EB3699D19
:10C750000A3B9E340008BD230810C3227439A40983
:10C760007589B8BE70055002C322D322CA797CFBFA
:10C770007F707E3407FD7E2400FF7E147E54741487
:10C780001204417E3408117E2400FF7E147E6874FA
:10C79000141204417E087E547EA0047EB3699DB4C9
:10C7A00010077E087E687EA0034CFF68067E440B5F
:10C7B000B880456D4480416CFF6CEE1A2A3E243EE1
:10C7C000240A3E2D322D317D207E1B607E7002AC0E
:10C7D000672D3F7D2E0B1A309D341205497DD3BE47
:10C7E000D4009608020BF00BE0BEE00478CDBEF05A
:10C7F000024003D380081BA0BEA00058BAC3DA7958
:10C80000227EA3699E7E3002AC3A7D013E0449300F
:10C8100004263E347E2704263E242D234931042855
:10C820002D327E24000512032459310426227EB3C2
:10C8300003DE601F7EB303DF70197EB303E1B40132
:10C84000127EB303E0147AB303E070077401127729
:10C85000D6C286227EB303DE60167EB303DF70107D
:10C860007EB303E1700A74017AB303E17AB303E0A3
:10C87000226D337A3703DCE47AB303DA7AB303DB6D
:10C880007AB303D77AB303D87AB303D922CAF87E2E
:10C8900083699B7EF3699C7E3402D37E2400FF0B68
:10C8A0001AF07EA303DA7AA1287AA12A7EB303DBE9
:10C8B000F529F52BBEA0002831BCA8502D7E93038E
:10C8C000DA1A191B147C93801C6C00800E7CB91240
:10C8D000C9AB48057A912880060B00BCF038EEBC45
:10C8E000F028071B90BE900058DF0A581B547E7337
:10C8F00003DA0A17BD1558260A570B547C1B801AF9
:10C900006C00800C12C9A948057A112A80060B0018
:10C91000BCF038F0BCF028060B10BC8138E27E7306
:10C9200003DBBE70002833BC7F502F7E9303DB1ADD
:10C93000191B147C93801E6C1180107CB17C7912C1
:10C94000C9AD48057A912980060B10BC8138ECBC32
:10C950008128071B90BE900058DD0A5F1B547E7330
:10C9600003DB0A17BD1558260A570B547C0B801A97
:10C970006C11800C12C9A948057A012B80060B1096
:10C98000BC8138F0BC8128060B00BCF038E2E528F9
:10C990007AB303E4E52A7AB303E5E5297AB303E23F
:10C9A000E52B7AB303E3DAF8227CB17C701212E54E
:10C9B000120549BD3F22E47AB367887EA36767BE4C
:10C9C000A000281D7E2769807E340006AD327E24BB
:10C9D0000004120324BE376770080674017AB36737
:10C9E000887EB36788B40121BEA000281CBEA003C6
:10C9F00050177EB36766B401109002AEE493BEB3E5
:10CA000065646805E47AB36788227E37676A2E37E3
:10CA10006768BE3767812802D322C3226C336C2239
:10CA200080207CB212111A60177402ACB20915652D
:10CA300064090565657CB17C7012CA4D50020B30EB
:10CA40000B207E736766BC7238D87CB322BE70013F
:10CA500028237E63699E0A261B250A37BD32581596
:10CA6000BEB00128107EA3699D0A2A1B250A3BBD82
:10CA7000325802D322C3220B0A30BE378E57280603
:10CA80009E378E5780026D331B0A30227E0803EFDB
:10CA900002CA777E08858002CA777C677E0B70BCED
:10CAA0007B381A29700002BC7B281229700001BC57
:10CAB00076380A29700003BC762802D322C3227C70
:10CAC0007B6C336CAA741EAC7B092339656C117EB8
:10CAD000701EAC71090339650A300A229D321205B5
:10CAE000497C07BC3050047C307CA10B10BE100385
:10CAF00040DD7CBA22CAF812CB60C21F7EB3396413
:10CB0000605B7EF339620BF0BEF00340026CFF12F3
:10CB10004FCD60053E241478FB7E73395E6C665CF5
:10CB200075BE34000008090BF0BEF00340026CFF34
:10CB30007EA33961BCAF78127EB33963047AB3390E
:10CB4000630BF0BEF00340026CFF12CB6938077C28
:10CB5000BA12CABF7CFB124FE57AF3395DDAF822CC
:10CB60007E7359C37A7339DB229002E5E493BEB336
:10CB70003963227CA77C3B1287F77802814E7EB313
:10CB80008E8FB401028002814E7EB36F937002815A
:10CB90004E7EB35960BEB0017802814EBEA00178CE
:10CBA00002814E12CCCF7CB37C7A12CCE37EB339B7
:10CBB000641BB16833046802814E7E7339617A73F5
:10CBC0003962E47AB339636CAA6D337E901EAC9AF5
:10CBD0005934396759343969E419B439660BA0BE40
:10CBE000A00378E5740280627EA33962741EA449B2
:10CBF0003539672E3739DDBE347FFF500B7D452E2A
:10CC00004439671B483080087E447FFF59453967A7
:10CC100049453969BE4739DD50087E3739DD593518
:10CC200039697E73395D7A73396212CB69381F12A4
:10CC3000CC71BEB0FF681230200F7E73396112CC08
:10CC40004F12282EE47AB339BFE47AB3396422CA8A
:10CC5000F87CFBBEF0035016BE70035011D20412D4
:10CC600028A112CB60124FE57AF33961D21DDAF8B0
:10CC7000226C777E08FFFF6C667E4400017CB66004
:10CC8000053E441478FB7EB3395E0A2B5D24BE2436
:10CC90000000080312CCC17EB33961BCB678031220
:10CCA000CCC17E501EAC5649F239676DEEBF705054
:10CCB000047F077C760B60BE600340BD7CA77CBA16
:10CCC000227E24FFFF7E901EAC9659243967227E77
:10CCD0003402E31209717A37395F7E3403207A37E0
:10CCE00039D7227C577C4BC2017E3739DD7CB412A8
:10CCF0007477400122A5BD00028002A1B1D2017E5D
:10CD0000B339646002A1B17EB339F9047AB339F959
:10CD10007EB339F8047AB339F8BEB0144005E47A2A
:10CD2000B339F87E47395F7D243E243E24BD23502D
:10CD3000047408800A7D243E24BD23500E74047EB2
:10CD40005339F80A2519B239C0801DBD43500E74FD
:10CD5000017E7339F80A4719B439C0800BE47EA309
:10CD600039F80A3A19B339C06CAAE40A4B09743984
:10CD7000C02CA704B414F4BEA0084021E47AB3394F
:10CD8000F97EB339BF44017AB339BF74017AB3393C
:10CD9000647E0839C07E340014E40200267E7339B4
:10CDA000F9BE7020400B74207AB339F9E47AB339B4
:10CDB000BF227CAB6C77BCA7782A7E638E880A067C
:10CDC000122EA612CE407E081DC65912397959027C
:10CDD00039777E0822E65912397D5902397B7E085F
:10CDE0002806804A7E5004AC5A0A172D212E2400B2
:10CDF000E41274DE7C6B7EB38E880A0B122EA612B0
:10CE0000CE400A067E140F60AD107DF12EF43A007C
:10CE10006DEE59F2397959E239777DF12EF43F20E0
:10CE200059F2397D59E2397B2E1444406D00591274
:10CE300039815902397F0B70BE70035002A1B622AE
:10CE40007E501EAC575912397559023973227C979E
:10CE50007C8B7EB36F9360637EB339DC12CEF112AC
:10CE6000CEBC2E3402D7123DF87E2339F77E300235
:10CE7000AC232E1402D71281E9BD32683E4C88786B
:10CE800015BE9002741E7807A449F53981800EA45E
:10CE900049F539798007741EA449F5397D12CEE031
:10CEA00012CEC47E1F2D2E7A377D2C7D3F7A377DA2
:10CEB0002E1257E47E087D280231E3227CAB7E707F
:10CEC00002AC7A22E47AB37D2A7AB37D2B6D337A71
:10CED000377D32227E087D287E340010E412002641
:10CEE0007E73699C7A737D297E73699B7A737D2832
:10CEF000227C7B6CAA6C667E3002AC362E1402D784
:10CF000012793F0A27BD2178047CA680070B60BEFA
:10CF1000600340E37CBA227CAB6D336C5512CF5F6B
:10CF20004911792A591039E312CF5F4941792ABD55
:10CF30004328027D3449117934591039ED7E30028D
:10CF4000AC357E1014AC1A2D0149107934BD13286C
:10CF5000027D310B50BE500540C37A3739E1227E45
:10CF60001002AC157E3014AC3A2D10227E0839DD4B
:10CF70007E34001AE4020026E47AB3678E7AB3673F
:10CF80008F227E542D327A577F097E542D5A7A573C
:10CF90007F0B7E542D827A577F0D74017AB37F0701
:10CFA0007AB37F087A372D327A272D347A172D5AA3
:10CFB0007A072D5C7E087F071232FF7E372D822292
:10CFC0007A377E587D317A377E5C7AB37E54E54578
:10CFD0007AB37E557E3480207A377E5EA203E412D7
:10CFE0009ECA7A737E577E087E540232E86CAA7E0F
:10CFF0005039AC5A0972899ABE70FF50060B7019ED
:10D0000072899A0BA0BEA00A40E522CA3B7CD67C5E
:10D010000B6DBB7DAB7E4400644C5568076CEE7EA7
:10D02000F00180107E13699E0A517D751B747CEFA0
:10D030001B557CFB7A01327A01337EC1328011129A
:10D04000D0DA58117AC13312D0E608022DBE1BC0C7
:10D05000BEC00058EA7A01327C10E5321A1B0B146C
:10D060007CC3801012D0DA58137C1C12D0E6080260
:10D070002DBE0BC07E73699DBC7C18E87CB07E71B0
:10D08000337C616C557E43699D0AF41BF47D1F124D
:10D0900097E919A3898CBDBA50167D3A6D227404A4
:10D0A0002F111478FB7D1B0B141203707F6180021B
:10D0B0009F664DAA78049F6680104DBB780280065B
:10D0C000BE6800FF28047E6800FF7D3D7CA77E705F
:10D0D00039AC7D19A3898BDA3B227CBC7C7E121291
:10D0E000E57DF3BD4F222DAF7CBC7C7F1212E57D28
:10D0F000E3BEE4000022CAD8CA797CE77CDB74393D
:10D10000ACBE09B5898E70046CFF80037EF0017C93
:10D11000BD7C7E12D3BB5003D3800E12D3587C5FEC
:10D1200012D1375003D38001C3DA79DAD8227CBC1C
:10D130007C7D6C667E5001CA3B7CD57CC67CF77CCE
:10D14000EBC2007E34000A7A353212D446680EBE35
:10D1500060036809BE60026804A5BE041412D2937D
:10D16000126DEA9D3D7A3534126E6A9D3D7D838055
:10D170001212D293126DEA9D3D7D83126E6A9D3D1F
:10D180007A353412D28009A3898FBEA0036805BE08
:10D19000A00478157E35341205497D937D3812D26E
:10D1A0008809B5898CF53680137D381205497D9341
:10D1B0007E353412D28809B5898AF536BEC00B781F
:10D1C000107D392D3ABE3400FA2802D200A2004167
:10D1D0007DBEC00178487D392D3ABE34015E2804F9
:10D1E000D200417BE536BEB0062802417B4CDD68AB
:10D1F00002417B12D28009A38988BEA0046805BEC3
:10D20000A00878067E24006480047E24003C7DB261
:10D210007DC2BDCA4004BDB95061D200805DE53613
:10D220000ADB7E15327D31AD3D7DC3BEC400325078
:10D23000067E3400327DC3BED001780CBEC40064CB
:10D2400050067E3400647DC37D2D1E240B247D3169
:10D25000AD327DB3BEB4003250067E3400327DB3B1
:10D26000BED001780CBEB4006450067E3400647DEC
:10D27000B3BDCA4004BDB95002D200A200DA3B22BD
:10D280007EA0397C7FAC7A221205497DA37EA0392D
:10D29000ACAF227EA039ACAF493589B0126DEE7DBE
:10D2A000D37EA00DACAE22CA3B7CE77CDB6CFF7E5C
:10D2B0007002AC7E09C38972BEC001783309B3899C
:10D2C00073BEB000283D2E348973147A39B07EF0D5
:10D2D000017CBD7C7E12D36D50087EA00212D31556
:10D2E000802C12D3586C5512D137502280158013E0
:10D2F000BEC00278197CBD7C7E7E600B6C5512D15D
:10D3000037500812D3137EF00280037EF0017CBFF9
:10D31000DA3B226CAA7E7002AC7E19A3897222CA03
:10D32000D8CA797CE77CDB6CFF12D313E419B3898C
:10D33000737CBD7C7E12D44EB401167CBD12D360CA
:10D34000500F7EA00112D315740A19B389737EF0B1
:10D35000017CBFDA79DAD8227CBD7C7E7E60012236
:10D3600012D396BE70052802D200A2002212D396D4
:10D37000BE700C281EE532BEB0042817E533BEB0DF
:10D38000022810E533BEB1323809E534BEB1333876
:10D3900002D200A20022C2007E1800347A1D357E1F
:10D3A0000800327E1800331213A7E5330A3BE5323A
:10D3B0000A2B2D23E5340A3B2D32227C17C2007E36
:10D3C0009039AC9109B4898FBEB0036803B4040AE4
:10D3D0000934898B09A4898C80080934898909A4B6
:10D3E000898A7E20037EB3594760037E2001A5BB56
:10D3F0000042BC2A283E092489B712D43E0923677B
:10D400009E12D4377D437E7039AC71092389B812DE
:10D41000D43E0923679F12D437BE440002500ABE8F
:10D420003400025004D200800B7E20017439AC1B02
:10D43000192089ABA200220A329D320205490A2234
:10D440007E700DAC71227E635947BE600122CAF81E
:10D450007CFB126DE67DD3740DACBF126E7D7D1327
:10D460007E2400C87E3765609E3400C87EC7656232
:10D470009EC40190BE1401902810BDC1280CBD2D82
:10D480003804BD3D500474018001E4DAF822CAF882
:10D490007C367C277C1B7E00FF7EA0FF6C99805E23
:10D4A000BC3968587E7002AC7909B365640A2B0AEE
:10D4B000319D321205497C877E7002AC7909B365D3
:10D4C000650A2B12D4377CF7BE8001380ABEF00102
:10D4D00038057EA001802FBE8002380ABEF00238D7
:10D4E000057E0002801030020DBE80033808BEF0B9
:10D4F0000338037E0003BC0A50027CA00B907EB36D
:10D500006766BCB9389A7CBADAF8227C7B7408ACBE
:10D51000B709B5691DB4012B7E63696D80157E5016
:10D520000DAC560932679BBC37780674FF19B26799
:10D530009B0B60BE600A40E67EA0037408AC7B19BA
:10D54000A3691D227C1B7E700DAC7112D6107E6308
:10D55000699DBC6B282F7E63699EBC6740271212B1
:10D56000E57D437439ACB149358995BD34580459CA
:10D5700045899549458997BE47676C58087E376746
:10D580006C5935899722CA3B7C0B7E13699D0A71C1
:10D590001B747EB35947706C7ED039ACD0091689A4
:10D5A00099BE10002802800F0916899ABE101E50DD
:10D5B0000D7E100112D6077CB012D5448046743916
:10D5C000ACB009158987BE101E50396CEE802D7ED7
:10D5D000700DAC7E09D3679B7408ACBD09B5691D9D
:10D5E000701809C3679EBEC000280FBCFC280B7EC4
:10D5F000100212D6077CB012D5440BE07E13696D81
:10D60000BC1E38CBDA3B227439ACB019158999228B
:10D6100009B3679E0973679F226C337CB312D634BB
:10D62000400A6C227439ACB31925899A0B30BE308C
:10D630000A40E8227CAB6C7780147E500DAC570911
:10D6400062679B5E600FBCA67802D3220B707EB32C
:10D65000696DBCB738E4C322CA3B7CF77CEB7550DC
:10D66000007EB35957F551740DACBE126DEA7D833F
:10D67000740DACBE126E7D7D9312F46D19A089AB52
:10D68000E419B0898619B0898E19B0898F598089BB
:10D69000AC599089AE19B089906D1159108995597E
:10D6A00010899719B089997A15327E2765607D6255
:10D6B0007A15347E5765627A5536BD6850027D868C
:10D6C0007E3536BD3950027D937A15387E34001E82
:10D6D0007A353A7E34002D7A353C12EE6B7A154A53
:10D6E0007E3400C87A35467A154C7E0400647A058B
:10D6F0004E12D4466812BE6003680DBE6002680810
:10D70000A5BE04028002E1C17A15327D657A153426
:10D710007A25367D287D897D92BE60016804A5BE8C
:10D7200003097E25369D297D92800FBE6002680424
:10D73000A5BE04067D269D287D82E55114681F1B29
:10D74000B168292403784012F13C7A253C12EE6B33
:10D750007A154A7A15467A154C7A154E804212F19E
:10D760003C7A253C12EE6B7A154A801012F12D7A24
:10D77000053C12EE6B7A154A7E0400FA7A05467A69
:10D78000154C7A054E801912F12D7A053C12EE6B7C
:10D790007A154A7E2400AA7A25467A154C7A254EB7
:10D7A000BE60036804A5BE04187CBE7C7F126C605A
:10D7B000F550BEB000280A7E3400967A35467A3598
:10D7C0004E7EB3594770497E0765627D101E14BDB9
:10D7D00019501E7D109E1400C8BD192814BE840067
:10D7E0002D282D7E1765609E14002DBD18282180E0
:10D7F0001C7D309E3400C8BD395015BE840064289D
:10D800000F7E3765609E340064BD38280312D61938
:10D810007D360E34E550BEB000284912DA9240023F
:10D8200001BABD3828057EA00180037EA00212DA6D
:10D83000547E254C2E2532BD28384C12DA815002F8
:10D84000804512DA5E384F12DA795002804812DAD7
:10D85000892804BD18405612DA715059BD28285540
:10D86000804B805112DA925051BD3828057EA001BC
:10D8700080037EA00212DA547E254C2E2532BD286C
:10D88000380512DA8150057EA004802412DA5E3851
:10D890000512DA79500512DAA5801F12DA892804F8
:10D8A000BD18400912DA71500CBD2828087EA00668
:10D8B00012DA9B80056CAA12DA547E25442E253498
:10D8C000BD292865BD3828057EA00480037EA003FD
:10D8D00012DA547E25482E2532BD2838097D269E31
:10D8E0002548BD2850057EA00480347E154012DAFC
:10D8F0006138097D269E2540BD28500512DAA58095
:10D90000287E054A2E0532BD082804BD18400D7D2D
:10D91000169E154ABD18500CBD2828087EA0061278
:10D92000DA9B80056CAA12DA547E5039AC5F09B2DA
:10D930008986600221D2BD382804740180027402F5
:10D9400019B2898F7E35382E3532BD3838097D368B
:10D950009E3538BD3850047401806C7E353A2E35C2
:10D9600032BD38381312DA69400EBD39380A7E15D7
:10D97000369E153ABD19503A7EA359474CAA780DE8
:10D98000BD38380512DA6950497402803ABEA003E6
:10D99000680FBEA004680ABEA0016805BEA0027898
:10D9A00031BD3838097D369E353ABD385024740271
:10D9B00080157E353C2E3532BD3838097D369E3592
:10D9C0003CBD385008740319B289868005E419B249
:10D9D000898F09B2898670717E35367D830E84BD4C
:10D9E00089280474038002740419B2898F7E853EED
:10D9F0002E8534BD8938097D839E853EBD895004BE
:10DA0000740180157E85402E8534BD8938097D835B
:10DA10009E8540BD895008740219B28986802A7E8D
:10DA200025422E2534BD2938079E3542BD39500E7A
:10DA30007EA0037E7039AC7F19A38986800B6CAA07
:10DA40007E7039AC7F19A3898F7439ACBF09B58951
:10DA500086DA3B227E5039AC5F19A2898E227E1570
:10DA60003A7D212E2532BD28227D169E153ABD18FD
:10DA7000227D169E154EBD18227D269E253ABD2874
:10DA8000227D269E254CBD28227E054E2E0532BDC8
:10DA900008227E25369E2546BD29227E5039AC5F60
:10DAA00019A28986227EA0057E1039AC1F19A08993
:10DAB00086227C5B6CAA7E7002AC7519A38972E425
:10DAC00019B38973227C6B6CAA7E5002AC56097222
:10DAD0008972A5BF010D7EB303D7600280097EA0C5
:10DAE000048007A5BF02037EA0087CBA227E088EB0
:10DAF000E77E34000174FF020026CA3B7F607CF59C
:10DB00007CE6BCBE5005754601800CBCBE28057580
:10DB100046FF8003754600BC7F5005754701800CA9
:10DB2000BC7F28057547FF80037547007CDB7CC7F9
:10DB30007EE47FFF61C87E087FD77E34000C74FFCF
:10DB40001200267AC37FD87AD37FDBBCED6810E55C
:10DB5000461A2B0A3D2D327A737FD77A737FDFBC4A
:10DB6000FC6810E5471A2B0A3C2D327A737FDC7A69
:10DB7000737FE07EF4D8F07548FF7545007E51450F
:10DB80007404AC5B09B27FD7BEB0FF681709727F1F
:10DB9000D8BE70FF680E1212E57DB3BDFB58057D3F
:10DBA000FB8545480545E545B403D27EA14874048C
:10DBB000A409D57FD709C57FD8BDFE580B7DEF7A64
:10DBC0006BD07E1D417A1BC0BCED68026136BCFC87
:10DBD000680261367D3EDA3B22CA3B7C3B7E23678E
:10DBE00066BE2002500280607402ACB309D5656441
:10DBF00009E565657EA0FF7EF0FF6C22803DBC32AA
:10DC000068377E1002AC1209B06564F53809C0654A
:10DC1000650A2B0A3D12DCD8F5390A2C0A3E12DCC3
:10DC2000D8F53A0A4BE5390A0B2D04BCA1280A7C29
:10DC3000A17CF285393D853A3E0B207E036766BCA8
:10DC40000238BBBEA00F28067E347FFF807C7402A2
:10DC5000ACBF096565647A613809C565657E0800F1
:10DC60003C7A0D417CBD7C7E7C5C7E08003B12DAF8
:10DC7000FA7D03E53EBEB13D502CE53CBEB0002828
:10DC80000EE53B7E713C1B7012DCD058027D0AE52C
:10DC90003CBEB0235032E53B7E713C0B7012DCD0B1
:10DCA00058267D0A8022E53BBEB000280AE53B14D9
:10DCB00012DCCD58027D0AE53BBEB011500AE53BAF
:10DCC0000412DCCD58027D0A7D30DA3B227E713CA5
:10DCD0001212E57DA3BD0A229D321205497CB722AE
:10DCE000CA3B7C057CD67CC77C1B7EB3699CF53720
:10DCF0007CBD127FFD12DEB908047A177D377402ED
:10DD0000ACBD097565647A737D287402ACBD097574
:10DD100065657A737D297AD37D2A12DEB07AC37D58
:10DD20002D12DE777C6C12DE537E187D477A1F7DC4
:10DD300033E5377E337D28AC3B7E737D290A072D82
:10DD4000107D013E04490004260B047E2400067D5C
:10DD5000301203249F227A2D316D227A277D396D6E
:10DD6000777EA37D2E80487E537D3080387E31378C
:10DD7000AC3A0A452D147D413E44494404267A4577
:10DD800035E419B17D47BE35355818BE0535081341
:10DD90007ED5357D4D1A481AC87E7D312F767A7D25
:10DDA000310B740B507E437D31BC4538C00BA07ED7
:10DDB000437D2FBC4A38B0BE740000280C7E1D3154
:10DDC0007D171203707A377D393026207CBD12DB37
:10DDD000D97A3535BE347FFF68127E377D39BE353E
:10DDE0003518097E35350B357A377D3912DEA87E38
:10DDF000737D297EB37D28127E9412E12EDA3B22B8
:10DE0000CAF87CF67C877C9B0A2F7D323E340B342B
:10DE10007CB7BCF938140AF81BF40A3F9DF30A39A1
:10DE2000BD3F18067CAB0A39801DBCF9280D0A39A4
:10DE30000A5F2D530B547CABE480100A3F0A582D27
:10DE4000530A399D537CAB9D327CB77A0BB07CBAB8
:10DE5000DAF8227E087D3012DE007AB37D317E73DF
:10DE60007D2E2E737D2F7A737D2F7E737D302E73E2
:10DE70007D317A737D3122E47AB37D329F117A1F2E
:10DE80007D3B7A1F7D3F7A1F7D437EB37D287E7365
:10DE9000699B7C617E087D2E12DE007AB37D2F7E29
:10DEA000B37D297E73699C227E187D287A1D1A22F3
:10DEB0007A037D2B7A137D2C227A377D377E176982
:10DEC00090BE177D3722D2057EA36766BEA00350A1
:10DED00002C3226C7780390A270B247C65802B7E55
:10DEE0005002AC56091265647E3002AC3709B16548
:10DEF00064BCB17802800C0952656509B16565BCE6
:10DF0000B57805C205A205220B60BCA638D10B70FE
:10DF1000BCA738C3A20522CA797E13699D7E036916
:10DF20009E6CFFE1F37E3002AC3F09A165647AA3E9
:10DF30007D2809B16565F5447E4480011A5A1B5459
:10DF4000F541E1D7854142E541BEB0005812E541B7
:10DF50001A3B7E537D281A157D519D532D51F54254
:10DF6000BE114118127E737D281A37E5411A1B9D98
:10DF7000137D539D51F542E5441A1B1B147CE3802D
:10DF8000487AE143BEE000580E1A3EE5441A1B7D74
:10DF9000519D532D51F543BC0E180CE5441A5B1AE4
:10DFA0001E9D159D51F5437E737D28BE71427807F5
:10DFB000E544BEB1436810E5427E71431212E57D2F
:10DFC000F3BDF408027D4F0BE0E5441A5B0B541AD5
:10DFD0001EBD1508AC05417E737D281A370B34E54C
:10DFE000411A1BBD131802E1447402ACBF594539F4
:10DFF0001A0BF01275F92802E125DA7922C28CC2D7
:10E00000A932CA7BCA6BCA5BCA4BCA2BCA1BCA0BD2
:10E01000C0D0C083C082C28F1257B1D082D083D00B
:10E02000D0DA0BDA1BDA2BDA4BDA5BDA6BDA7B321B
:10E03000CAB8A931CD10A931E50C1254D374017AB4
:10E04000B38E8BA9C1CDA937CD0DA937E5097401D0
:10E050007AB38E91A9C7CD75CD00DAB832CAB8CAE5
:10E0600039A9D09EA9D79E7E378E570B347A378E2A
:10E07000577E378E890B347A378E897E378EC24D24
:10E080003368061B347A378EC27EB38E596005140E
:10E090007AB38E597EB38E597002D2127E378EC0FB
:10E0A0000B347A378EC07E378E65BE34000028066A
:10E0B0001B347A378E657EB38E92BEB0FF50050456
:10E0C0007AB38E92DA39DAB832C288D2A822A9D6C7
:10E0D000CDA9D5CD22A9D6EF227E14F7F07E04007B
:10E0E000FF7E3447527E24555012E1267E3445206F
:10E0F0007E24414479300006792000047E3499332F
:10E100007E2466CC7930000A792000087E344147AD
:10E110007E24464C7930000E7920000C22693000B4
:10E12000020B0A202F12793000021B0A20227E0DDA
:10E130001A6930001569200013BE180000780C7EA3
:10E14000180001793000157920001320252074066D
:10E1500012E3AC12E2AC2F111478FB12E126740624
:10E1600012E3A412E2AC2F111478FB12E1267E7D9B
:10E170001A69B7001569A7001369370019692700E4
:10E18000177F051203C37DD36937001D6927001B64
:10E190007F051203C3302519BED4000058026DDD7F
:10E1A000BE34000058026D3312E38C59D565E0800F
:10E1B000117D2D2E24002012E38C592565E02E348C
:10E1C0000020593565E229A7000A296700037E70FF
:10E1D0000DAC6719A365E6095365E6BE502D280608
:10E1E000742D19B365E629B70002127B6A12E39D0C
:10E1F00018047EB400016CAA7E6D1A297600014CC9
:10E2000077680B7E63699E7CB614BC7B78052EA074
:10E2100006800FBE700168087CB624FEBC7B7802C5
:10E220000BA27E6B704C77680B7E63699D7CB61485
:10E23000BC7B78052EA006800FBE700168087CB6F6
:10E2400024FEBC7B78020BA20A3A6D227E33698FD2
:10E250000A136D009F0169F6001569E600137F1728
:10E260001203C37D1B6D00BF1028067D3B1A261AC2
:10E27000247E14007F1203677D1B1203707CA72984
:10E280006600037E700DAC6719A365E529A6000240
:10E290007402A409556564195365E7095565651944
:10E2A0005365E859F365EB59E365E92269300002EB
:10E2B0000B0A20227C6E7C5FCA3B7CF57CE67CD717
:10E2C0007CCB7E14005E7E0400FF12E2AC7A1D3827
:10E2D0007E1400627E0400FF12E2AC7A1D3C7540A1
:10E2E000007541007E11403E102E11417C012E0030
:10E2F00038A5E61A4B1A5C2D54F5422E103CA5E7C2
:10E300001A4B1A5D2D54F543BEE1427805BEF14328
:10E31000686112E3B4BE7142185929700007BE71DA
:10E3200042085029700008BE71431847297000093F
:10E33000BE7143083E7E73699C0A27E5421A3BADD5
:10E3400032E5431A9B2D936930000D6920000B2D97
:10E35000397E1BB0701D7D893E8449580426698032
:10E360000011BD58180D74027A1BB0E5427E71434E
:10E37000127DA50541E541B40202800241E4054059
:10E38000E540BEB002500241E1DA3B2229A700037A
:10E39000740DA4222D98E5337C701212E57DB3BE76
:10E3A000B40000227E0D1A2E14001B227E0D1A2EA0
:10E3B000140017227E0D1A29700006227EB38E905B
:10E3C000047AB38E907E738E90BE70C8280674C88F
:10E3D0007AB38E902275ECFF75EEFF75EB0375AC8A
:10E3E000C0A9D0EA53EDFEE5AD0A5B0B54F5AD755F
:10E3F000E10222759A2FA9D199A9D6DF22D2CBC2E8
:10E400008C438901758C01758A00D2A922D2CBC2B6
:10E410008E438920758D01758B00D28ED2AB22750B
:10E42000B70075B80075F70075F800A9D0B7D2B875
:10E43000A9D5B7D2BDA9D0F7D2F8A9D6F7D2FEA9EF
:10E44000D1F7C2F9A9C4B7D2BCA9C2B7C2BAA9C18F
:10E45000B7C2B9A9C3B7C2BBA9C3F7C2FB22D2E9ED
:10E46000C2C122D2CC12E49D12E49078FB7E34002B
:10E47000031B0A307E3400817E0F8ECF793000027C
:10E48000D2EBC2C36D117E1F8ECF1B1A10C2CC22DD
:10E490007E0F8ECF693000045E340002227E34008D
:10E4A000027E0F8ECF7930000422A9D099A9C6DF51
:10E4B00022C28DC28F759100C290C291A9C09322D1
:10E4C000CA39CA0B7E0F8ECF693000025E3400015C
:10E4D0006822693000045E3400016818D2CC7E34B2
:10E4E000000179300004D2CC7E0F8ECF0B0A30129F
:10E4F00057BBC2CCC2C3DA0BDA39327E0878DC7E75
:10E50000340044E41200267E3432037A3778DC6D1E
:10E51000337A3778DE7E349D007A3778E07E37694B
:10E52000DF7A3778E26D337A3778E47A3778E67EC7
:10E530003402007A3778E87E3444607A3778EA7EAD
:10E540003429017A3778EC7E340F707A3778EE7E92
:10E5500034080F7A3778F07E34C0007A3778F27E4C
:10E560003401807A3778F47E34C0007A3778F67ECA
:10E570003401007A3778F87E3400F07A3778FA7E02
:10E580003400307A3778FC6D337A3778FE7E340089
:10E590002A7A3779007E342D2D7A3779027E34112C
:10E5A000117A3779047E3411007A3779067E340186
:10E5B000237A3779087E3445677A37790A7E348939
:10E5C000AB7A37790C7E34CDEF7A37790E6D337AAA
:10E5D0003779107E3443217A3779127E3412347AB7
:10E5E0003779147E3452057A3779167E34FEDC7A18
:10E5F0003779187E34BA987A37791A7E3476547A15
:10E6000037791C7E3432107A37791E22A9D2EAA9D2
:10E61000C2EA7E3470437E0F8ED47930000E7E3491
:10E62000004E7E0F8ED4793000101227F47930001E
:10E63000127E0F8ED4793000247E0F8ED479300074
:10E64000147E3480127E0F8ED4793000267E340101
:10E65000D01209712E3400097E0F8ED47930001645
:10E660001227F4793000187E34FFFF7E0F8ED479A4
:10E6700030001A7E0F8ED47930001C7E3400147E58
:10E680000F8ED47930001E7E0F8ED4793000201288
:10E6900027F4793000227E34001F7E0F8ED479302B
:10E6A00000287E3408307E0F8ED4793000487E34C6
:10E6B00007037E0F8ED47930004A7E347F557E0F5B
:10E6C0008ED47930004C1244A17E34FFFF12213DDC
:10E6D0007E34F07F7E0F8ED479300004D20412286D
:10E6E0004E75C200A9D6C2A9D5C253C3F843C3030D
:10E6F00075C40075C50075C69075C700A9D2C2D291
:10E70000ACA9C7EA900202E4937AB38E5F22A9D53E
:10E71000CBA9D1CBA9D2CAA9D2CB22D2001253778E
:10E72000A9D0CB759F00A9D09EA9D49E7E378E8C90
:10E730000A56F59D7D53F59CA9D39EC28AD2AAA9FB
:10E74000C19EA9D09EA9D79E226CAA7E303CAC3A2D
:10E7500012E7687E34003CE41200260BA0BEA00441
:10E7600040E9227E303CAC3F2E1479526D0022C22B
:10E77000EDC2C5327EB38D6FB4013D7EA38D6D7A3F
:10E78000A38D6E7EB38D77047AB38D776C776C66CC
:10E79000800D7E5009AC5609B28D822C7B0B60BC7B
:10E7A000A650EF0A271B247EB38D770A3BBD324863
:10E7B000077CBA047AB38D6D221254E778507E3705
:10E7C0008E654D3378F8124FF97EB35960B4010865
:10E7D0007E7359440A37800C7E7359430A277E346E
:10E7E00000648D321B347A378E657E7359670A2731
:10E7F0007E378E65AD327E2400188D327A378E6575
:10E800007E378E60BE378E6550047A378E6522C2A1
:10E810000412E82D3804C20480107EA38D6D7409A3
:10E82000A449558D7A1221F39204A204227E738D9D
:10E830006CBE738D6D2274027AB38E887AB38E8F1C
:10E8400012387B7EB38E8F024BBCD2041228A112E9
:10E85000006E70FB227F210B0A205E40070B2A10FE
:10E860005E20077E2D2C0B2A305E60032D122D13A7
:10E870007E0400C97E2400A7BE1400B86808BD014C
:10E880006804BD2178020B34221226B67E703CAC9F
:10E890007F7D132E1479606D007A0D2C7D132E145C
:10E8A00079546D002E3479566D2212E8557E303C35
:10E8B000AC3F2E1479606D00227CA47C957DF3BE64
:10E8C000B0065077BEB00650726DEE806612E94514
:10E8D0009D3F1205497DD37DCE3EC47E1D312D3C2A
:10E8E0000B1A309D3F1205497DC3BDCD402A7DAE38
:10E8F0003EA449BA0E66BEB537281DBEB5395018BC
:10E900007E1D312D3A1B1AB012E93C2D3E09B35A37
:10E91000007F102D3E7A1BB012E945BD3F50127C9E
:10E92000896E80FF12E93C2D3E12E94E5CB87A39BF
:10E93000B00BE47E376F96BD3E3892220A2A7E34B1
:10E9400002D8AD32227D3E3E3449330E66222E344B
:10E950005A007E39B022E47AB303E6227EB3696DB1
:10E96000BEB00138097EA3696EBEA0012804D2376B
:10E9700080073037047002C2377EB3598B700C6D3C
:10E98000337A37894512EB0002E95612E9A47C7B01
:10E990003037026C774C77680A7A73598E74017A33
:10E9A000B3697322CAD8CA796CFF6DDD7DED7DFD38
:10E9B0007ED3696D7EE3696E7EB303E660187EC721
:10E9C00003EF4DCC780241A1BED001280241A13015
:10E9D0003606C23641A1C236BED001781DBEB00493
:10E9E000780241A17EE768197EF7681B7D3E7D2F86
:10E9F00012EB06BEB001780241A17EA303E67CBA09
:10EA0000146829146854146823147802419E0BB2C8
:10EA1000680241A1BED001680241B04CEE680241DB
:10EA2000B074017AB303E612EAB780654CDD781D55
:10EA3000BEA001780C74027AB303E67E3402F4803F
:10EA40005474047AB303E67E3402F8804812EAC0B4
:10EA50009002E712EAC968498056BED00178514C4D
:10EA6000EE784D12EAC07E3402F01209717E140273
:10EA7000F47E0400FF0B0AC09DC3BEC703EF402114
:10EA80009002E612EAC9681912EAB774037AB3036E
:10EA9000E67E3402F41209717A3703EF80127EF0B9
:10EAA00024E47AB303E66D337A3703EF7CBF800248
:10EAB0007CBFDA79DAD8227AE703E77AF703E9222A
:10EAC0007AE703EB7AF703ED22E4930A3B12EAD5E7
:10EAD0000ADB4DDD227D133E143E143E147E3703C7
:10EAE000EB9E3703E7120549BD3138127E3703ED3F
:10EAF0009E3703E9120549BD313803740122E4222F
:10EB0000E47AB38947227D137E5402E8126F9FBDD9
:10EB10003150237E5402EA126F9FBD3128187E14B3
:10EB200002EC1281E9BD32500D7E1402EE1281E931
:10EB3000BD322802E422740122E47AB3677B12EB2F
:10EB400055E41200497EB32E74B401087E736766E3
:10EB50007A73677A226CAA8009E40A4A19B465DCE0
:10EB60000BA07EB38EE1C423541F0A2B0B240A3A58
:10EB7000BD3248E512ECB96D337A3767687A37678A
:10EB80006A7A37676C7A3767707ED47D2A1ED43EE6
:10EB9000D46DCC7E1F2D2E7A377D6A7D3D7A377DF0
:10EBA0006E7E342D827A377D6C7E73699B7A737D9D
:10EBB000677E73699C7A737D667E37697E7A377D5E
:10EBC000707E3769807A377D727E3769887A377DC3
:10EBD000747E37698A7A377D767E738EE10A371BB9
:10EBE000347A737D687E738EE27A737D697E087DE8
:10EBF000667E187D781234A87E737D787A73676696
:10EC00007E737D797A7367677E377D7A7A37676836
:10EC10007E377D7C7A37676A7E377D827A37676C8C
:10EC20007E377D847D237A53676E0A367A73676FE9
:10EC30007E377D7E7A3767707E377D807D237A537D
:10EC400067720A367A7367736CAA803C7CBAC423F5
:10EC5000541F7C7B7CBA54077E44000160053E440F
:10EC60001478FB7C690A271277CD4CB67A29B07EDE
:10EC70005002AC5A49122D820A027CB119B2656465
:10EC80007CB319B265650BA07EB36766BCBA38BCAD
:10EC90006CAA801C7E9002AC9A7F162D340B1A3021
:10ECA0000A267CB519B465A07CB719B465A10BA080
:10ECB0007EB36767BCBA38DC22E47AB367667AB39E
:10ECC0006767220B0A306C771B0A300A2B0B240271
:10ECD00023350B0A303002055E60F780034E600872
:10ECE0001B0A30222D233E240A3B9D23E52C0A3BA0
:10ECF0009D23BE2400002803123AE4220B0A504E42
:10ED0000A0101B0A500B1A504E54400A1B1A500BED
:10ED10000A5030090C4EA00812ED2F4E1420058029
:10ED20000A5EA0F712ED2F5E14DFFA1B1A10221BE9
:10ED30000A500B1A10220B0A505EA0EF12ED2F5E44
:10ED400014BFF51B1A10220B0A405E80C71B0A4035
:10ED500054070A5B7D457C896C99126EF90B0A5049
:10ED60004D5412ED2F5E20E31B1A10E52A54070ABA
:10ED70001B7D017C016C113E043E040B1A104D10EA
:10ED80001B1A10220B0A305E60DF1B0A30300109AB
:10ED90000B0A304E60201B0A30220B0A3012EDABFA
:10EDA000A201E4330A2B3E240223355E70FD1B0AC8
:10EDB000302212432E79500004220B0A305E600F7D
:10EDC0001B0A300A5B1243710B0A304D351B0A30A7
:10EDD0002212432E79500004227D537E7D2C0B7A23
:10EDE000405E80077E35302D342D259E25323E2411
:10EDF0002D231B24023AE412EDD9752C2C7E303CD5
:10EE0000AC3F2E1479846D00221220B34E60801224
:10EE1000EE1F4E701012EE305E70DF1B0A30221BA8
:10EE20000A307E0F8ED42E1400140B0A305E70FE52
:10EE30001B0A307E0F8ED42E1400260B0A3022A916
:10EE4000D6CA22A9D6CB693000047E278EE3593278
:10EE50000004693000067E278EE3593200066930CF
:10EE600000087E278EE359320008227A153E7A1573
:10EE7000407A15427A15447A1548227E2F8ED80B97
:10EE80002A305E70FD1B2A307E3400017E2F8ED822
:10EE9000793200047E2F8ED80B2A30227ED3699CD3
:10EEA0000A2D1A3EAD322D356950000D6940000B18
:10EEB0002D53227E3400207E2778E01226B67E3441
:10EEC00000207E27792022123FFD7E303CAC3F7D22
:10EED000312E34797E6D227A1D2C7E0400127A0543
:10EEE000307E0400997A05322E1479826D00227EDC
:10EEF000A002ACAF7F152D35220B560B2A305E7069
:10EF0000FC4D321B2A307CB154030A2B5E240003D3
:10EF10007D52030354C07C4B6C55227DF33EF42D8F
:10EF2000F17DE00B7AD07DC33EC47F722DFC1B7A4D
:10EF3000D00B3422E5290A3B0A0F2D033E047E1D27
:10EF40002A2D301B1A1022A9D6CB7E1400217E0751
:10EF50008EE3591000027C2B6C330A372D317E175B
:10EF60008EE3227AB38D707AB38D717AB38D727A13
:10EF7000B38D7674FF7AB38D77E47AB38D78227986
:10EF80001200067D5E6D447DF55EF400035EF400C4
:10EF9000037D1F7C236C337DF1227F707D12D2CCE8
:10EFA0007E0400037E2F8ECF1B2A007E2F8ECF790A
:10EFB000320006220B560B2A305E603F4D321B2A70
:10EFC000307CB12354010A2B5E240001221200166A
:10EFD0007D3E2E340007743CACBF49257960122673
:10EFE000B60BF0227408A47DF50BF674EEACBF7D71
:10EFF000E52EE401007E303CAC3F227E0F8ED40B28
:10F00000160B0A304E60101B0A30227E2F8ECF69FD
:10F010003200045E34000222D2CC7E2400037E0F34
:10F020008ECF1B0A207E0F8ECF79300006227E0FF6
:10F030008ED4693000065E340001227428ACBC49CD
:10F0400035722249257220221212E57A353B0E34A0
:10F050000E347A353E753A00BE340078227E0B704D
:10F060007C476C55297000010A372D327E278EE3CC
:10F0700022E53D7E1D357A1BB07E153B7E1D311B82
:10F080001A10E53A220A373E343E343E343E3422EA
:10F090007C2E0BE07E300DAC232E147D62740D02AD
:10F0A00003F73E242E247D560B28304D311B28308B
:10F0B0000BA4221227677E3400277E2778EE227E5B
:10F0C0007028AC7C2E3471FC7CBA24FE7A39B022D4
:10F0D0007DF33EF42DF57DE40B7AD07DC33EC42252
:10F0E0007E500DAC5E2D28222D197D08792000025E
:10F0F000494467997E500822053A7E353BBD372248
:10F1000054030A3B7D237C456C553E243E242279E2
:10F110001200087D325E2400035E240003227E1468
:10F1200000497D5FAD517DF5AD1E7DE1227A153838
:10F130007E04000F7A053A7E040032227A15387E6A
:10F1400024000F7A253A7E240032227E1D310B1ACC
:10F15000307D730E747D232D27227D3D2E340019C2
:10F16000743CACBF49257984227D3D2E340018744F
:10F170003CACBF49257982227D3D2E340016743C7B
:10F18000ACBF4925797E227E0F8ED42E1400120B3F
:10F190000A304D35227E348D4B7E14003E740B02B6
:10F1A00003F77E0BA07C4A6C5529A000010A3A2285
:10F1B000E47AB38ED37E2F8ED86932000422E47AAB
:10F1C000B38ED37E1F8ED869310004227E278EE352
:10F1D00049320038220B560B2A105E30FC1B2A10D5
:10F1E0007D1F227AB37D2B7D3D7A377D2C227EA038
:10F1F00002ACAF7E0D332D150B0A30227A376783B0
:10F200009002BFE4937AB36785227428ACBC09A549
:10F2100071FC227408ACBF09B5691D22E40A3F19CC
:10F22000B3785B227E377D357E277D37227E70085E
:10F23000AC7C7F072D1329B00001220A3C6D227E91
:10F240001400031203677F01227E087D287E2400BC
:10F2500001120D9E7DB3227E3400027E2F8ECF7967
:10F26000320004227E1F8ECF693100045E3400021A
:10F27000227E278EE3593200066930000622AC67F1
:10F280002E3459AB6D227E088DE1227402ACBF0989
:10F29000E5656409D56565220B4A309E340BB87D5F
:10F2A00063BE6537227428ACBC49157222490572C9
:10F2B00020227E7008AC7C2D3F7D2E7A1BA0227E02
:10F2C000900DAC9A492467977E30082285393D7AA3
:10F2D000753B229DCD7F472D9C7E4BB00ACB222DC6
:10F2E000317A1BB07CBE227E3006AC3F2E1478C42F
:10F2F0006D00227E303CAC3F2E14797E6D00227E64
:10F30000303CAC3F2E1479566D00227E0F8ED42EE9
:10F310001400100B0A30227AB38D6D74FF7AB38D0E
:10F320006EE4227EA0027C1FAC1A220B28304922F8
:10F3300000027404ACBF227E300DAC3C7D312E3413
:10F340007D62227E1D2A7A1D44C201C202227ED322
:10F35000699C0A5DAD541A3F227F161203677D1F18
:10F3600002037074017AB359627AB38EC9220B1A00
:10F37000E01BF8E00BF50BA022C2AC7E0F8ED4226E
:10F3800029B000035401227E7002AC7E09B365648B
:10F3900022900205E4937AB3697B227E352A2E35CA
:10F3A00028227ED002ACDA7DF63EF4227CB87C7155
:10F3B0001212E5BD3F227CB17C7F1212E5BD3F22D7
:10F3C0007E7002AC7F09B37D28227417A47E1D2EA7
:10F3D0002D35220B160B0A305E60EF227E178EE36E
:10F3E0005921000E227E0879207E1878EE227E08B0
:10F3F00078E07E1878EE227428ACBC49357204227D
:10F400001E040A1CAD107DD1227E340017E40200D8
:10F41000267E088BC17E34000A227408ACBC7F07AC
:10F420002D15227F042D1279400004227E738DB6A3
:10F430007A736F93224D1F1B2A107D1322A9D6CBFE
:10F4400069300004224E70011B2A30E4227E278E90
:10F45000E30B283022127DA57CBE7C7F227C7F12AC
:10F460007DA57CBE227EB38D6FBEB001226CAA7ECC
:10F470001039AC1F227E700DAC7E2D38227E39B043
:10F48000047A39B022E40AEF19BE785B227F072D97
:10F49000137A0BB0227E5002AC5A3E24220E340E58
:10F4A00034BE353B227E353BBE340078227E3400AC
:10F4B000787A353E227A1D357CBC7C7D22FFFFFFA9
:10F4C000FFFFFFFFFFFFFFFFFFFFFFFFFFFFFFFF4C
:10F4D000FFFFFFFFFFFFFFFFFFFFFFFFFFFFFFFF3C
:10F4E000FFFFFFFFFFFFFFFFFFFFFFFFFFFFFFFF2C
:10F4F000FFFFFFFFFFFFFFFFFFFFFFFFFFFFFFFF1C
:020000021000EC
:10000000020A2B02D7F3010212972202D7C0D32291
:100010000225070259EF7D2302227502D7C522B2BD
:10002000862222023A457D437F1080071B447A0BCB
:10003000B00B144D4478F5220001010000010100CD
:10004000025E48027001A9D6EF2222020E000000D3
:1000500000000000000000000000FF02D9BA01FF0C
:100060000000000001FF025E48FFFF02DB3FC21EEE
:1000700022FFFF023D3101020408102040800102EE
:100080000304040302010102030404030201010248
:100090000304050403020101020304050403020131
:1000A000CAF87F20800A7E1BF07A2BF00B340B54A9
:1000B00069FFFFFC7DEF1BE479EFFFFC4DFF78E665
:1000C0007F10DAF822FF00010200FF01020001FFA9
:1000D00002000102FF7D23BE24000048037D32227E
:1000E0006D339D322200000000000000000000007F
:1000F0000000000000000000000000000002680A8C
:10010000E86C179362CA9D3509D8F627847B1CE3F7
:10011000FFFFFFFF0BF4FFFFFFFFC639FFFFF006F5
:10012000708F00FF847B01AA486302A900000000D1
:1001300000000000000000000000000000000000BF
:100140004A32320000000000000000000000000001
:10015000000000000000000000000000000000009F
:100160005869616F6D690000000000000000000028
:100170000100010101010101010101000101010171
:1001800001010101010000000808102410240000F2
:10019000010000000000000000000000000000005E
:1001A000000000000000000000000000000000004F
:1001B00000000000000102030405060708090A0BFD
:1001C0000C0D0E0F00000120012000000000012492
:1001D00001200048009100DA01230048009100DA74
:1001E00001231A050707000804001A05070701087C
:1001F00004001A050707020604001A05070703088A
:100200000301010A1E081400640DAC00C801F401CA
:10021000900190012C09C407D007D0019001900AE9
:1002200000025801050C213C000000000000000005
:10023000000000000000000000000000190B000199
:100240008701001C01840007001801020100010160
:100250000000000000000000000000001D00000081
:100260000000FF0064000000000000000000FFFF2D
:10027000000000000000000000000000000000017D
:10028000C6A50200000000000000000000000240BF
:1002900004800438021C3C3C019A01E0010001008A
:1002A000092404924141020801A401000100100048
:1002B000B40168021C000007A800640048000201A5
:1002C0000500960BB80A05060078015E01C21F40C2
:1002D00028025800C80014001A0018001103E80191
:1002E000F407D005DC040F0F005003E8005008D4D9
:1002F000000A019A019A032000C80043001E0080F2
:10030000021C00DC003C03E80492021C003C03E8F1
:100310000020041800000924006400A000A006408A
:10032000012C00000001000200030004000500068B
:10033000000700080009000A000B000C000D000E69
:10034000000F001000110012001300140015001619
:10035000001700180019001A001B001C001D001EC9
:10036000001F0020002100220023006C006B006AA7
:100370000069006800670066006500640063006251
:1003800000610060005F005E005D005C005B005A81
:1003900000590058005700560055005400530052B1
:1003A00000510050004F004E004D004C004B004AE1
:1003B000004900B500B400B300B200B100B000AF16
:1003C00000AE00AD00AC00AB00AA00A900A800A7D9
:1003D00000A600A500A400A300A200A100A0009F09
:1003E000009E009D009C009B009A00990098009739
:1003F0000096009500940093009200FE00FD00FC22
:1004000000FB00FA00F900F800F700F600F500F430
:1004100000F300F200F100F000EF00EE00ED00EC60
:1004200000EB00EA00E900E800E700E600E500E490
:1004300000E300E200E100E000DF00DE00DD00DCC0
:1004400000DB0047004600450044004300420041F5
:100450000040003F003E003D003C003B003A0039B8
:1004600000380037003600350034003300320031E8
:100470000030002F002E002D002C002B002A002918
:10048000002800270026002500240090008F008E01
:10049000008D008C008B008A008900880087008610
:1004A000008500840083008200810080007F007E40
:1004B000007D007C007B007A007900780077007670
:1004C000007500740073007200710070006F006EA0
:1004D000006D00D900D800D700D600D500D400D3D5
:1004E00000D200D100D000CF00CE00CD00CC00CB98
:1004F00000CA00C900C800C700C600C500C400C3C8
:1005000000C200C100C000BF00BE00BD00BC00BBF7
:1005100000BA00B900B800B700B6012201210120DD
:10052000011F011E011D011C011B011A01190118E7
:100530000117011601150114011301120111011017
:10054000010F010E010D010C010B010A0109010847
:100550000107010601050104010301020101010077
:1005600000FF012201210120011F011E011D011CAC
:10057000011B011A011901180117011601150114B7
:100580000113011201110110010F010E010D010CE7
:10059000010B010A01090108010701060105010417
:1005A000010301020101010000FF00D900D800D7BA
:1005B00000D600D500D400D300D200D100D000CFA7
:1005C00000CE00CD00CC00CB00CA00C900C800C7D7
:1005D00000C600C500C400C300C200C100C000BF07
:1005E00000BE00BD00BC00BB00BA00B900B800B737
:1005F00000B60090008F008E008D008C008B008A6A
:1006000000890088008700860085008400830082BE
:1006100000810080007F007E007D007C007B007AEE
:10062000007900780077007600750074007300721E
:1006300000710070006F006E006D004700460045BD
:1006400000440043004200410040003F003E003DA6
:10065000003C003B003A00390038003700360035D6
:1006600000340033003200310030002F002E002D06
:10067000002C002B002A0029002800270026002536
:10068000002400FE00FD00FC00FB00FA00F900F869
:1006900000F700F600F500F400F300F200F100F0BE
:1006A00000EF00EE00ED00EC00EB00EA00E900E8EE
:1006B00000E700E600E500E400E300E200E100E01E
:1006C00000DF00DE00DD00DC00DB00B500B400B3BD
:1006D00000B200B100B000AF00AE00AD00AC00ABA6
:1006E00000AA00A900A800A700A600A500A400A3D6
:1006F00000A200A100A0009F009E009D009C009B06
:10070000009A009900980097009600950094009335
:100710000092006C006B006A006900680067006668
:10072000006500640063006200610060005F005EBD
:10073000005D005C005B005A0059005800570056ED
:10074000005500540053005200510050004F004E1D
:10075000004D004C004B004A00490000000100021F
:100760000003000400050006000700080009000A55
:10077000000B000C000D000E000F00100011001205
:100780000013001400150016001700180019001AB5
:10079000001B001C001D001E001F00200021002265
:1007A0000023000000000000000000000000000026
:1007B0000000000000000000000000000000000039
:1007C0000000000000000000000000000000000029
:1007D0000000000000000000000000000000000019
:1007E0000000000000000000000000000000000009
:1007F00000000000000000000000000000000000F9
:1008000000000000000000000000000000000000E8
:1008100000000000000000000000000000000000D8
:1008200000000000000000000000000000000000C8
:1008300000000000000000000000000000000000B8
:1008400000000000000000000000000000000000A8
:100850000000000000000000000000000000000098
:100860000000000000000000000000000000000088
:100870000000000000000000000000000000000078
:100880000000000000000000000000000000000068
:100890000000000000000000000000000000000058
:1008A0000000000000000000000000000000000048
:1008B0000000000000000000000000000000000038
:1008C0000000C2D57CB430E708B2D56E24FFFF0B20
:1008D000247CB630E712B2D56E34FFFF0B348D3274
:1008E0006E24FFFF0B2480028D3230D5066E34FF5C
:1008F000FF0B34227D51AD037D027D21AD052D120C
:10090000AD352D21227D02AD31AD102D21226D009E
:1009100074104D00780B4D2278278D317D126D2299
:10092000227D437D326D222F112D445002A50FBF31
:100930001040049F100B901478ED7F016D227D34E0
:10094000227D417D138D247D022F004004BD044093
:10095000049D040B141478F17D237D317D106D000E
:1009600022C2D57CB030E708B2D59F229F207F02FB
:100970007CB430E713B2D59F229F217F1212091059
:100980009F229F207F02800312091030D5069F22EC
:100990009F217F12226CAA4D11681A1E54680E0BFB
:1009A00038201B18200B350B151B5478F250067E8F
:1009B00039407A1940226CAABE08000068201E54F3
:1009C0000B5450167E1B807A0B800B1C0B0C800A7C
:1009D0000B1A401B0A400B1D0B0D1B5478F2226CA6
:1009E000AA4D11681E1E54500C7E1B007A19006817
:1009F000120B1C0B140B1A001B18000B1D0B151BE4
:100A00005478F2226CAABE080000681E1E54500CD6
:100A10007E39407A0B4068120B340B0C0B38201BCC
:100A20000A200B350B0D1B5478F2227584017E448D
:100A30009FFFE47A49B01B4478F97EF88814751E4C
:100A400000751F00C220C221C222C231C223C224AB
:100A5000C225C214C215C216C217755800C226C2DA
:100A600027C228C232D233C229C22AC218C219C22E
:100A70001AD21BC22BC22C755906C234C20BC20C2F
:100A8000C20DC20EC20FC210D211C212C213C235A1
:100A9000C22DC22ED22FC2307E0400FF7E140AC4A3
:100AA0000B0A405D44681A692000020B0E0B44805B
:100AB0000A7E0BB07A29B00B240B0C1B4478F28011
:100AC000DF020FF7000187300500018732000001C7
:100AD000873A000001873D0C000187410300018730
:100AE00045000002875144400001875A00000187F9
:100AF0006300000187640000018773000002877CA7
:100B000000000001877E010001877F00000139FF9E
:100B1000010001872F0000015939FF000201000088
:100B2000000001019E000001027600000102770032
:100B3000001459CB01010101010101010101010072
:100B40000000000202020202001459EB030300003D
:100B50000003030000000303000000010101010184
:100B60000001881200003C878100000000000000A6
:100B70000000000000000000000000000000000075
:100B80000000000000000000000000000000000065
:100B90000000000000000000000000000000000055
:100BA0000000000000000187BD00000187BE1100A9
:100BB000018635000001715AFF000177C400000270
:100BC00078150000000278210000000187FF010075
:100BD000018809000001880A010001880B0000015A
:100BE00039F800000139560000013957FF0001397A
:100BF00058FF0001395B640001395C00000187C5C2
:100C000000000287C80021000187CC01000187CFC6
:100C100004000187F001000187F300000287F4005F
:100C200020000187F600000187F700000187F90026
:100C3000000187FA00000103F5FF000203F900003C
:100C4000000480D20000C120000480DB0000C1004D
:100C50000002001280DF0002001482DF0004001A8C
:100C6000000000000001880F0100028810C300008E
:100C70000488000000C500000479A10000D0000035
:100C80000479A50000A00000047C830000B00000EF
:100C90000403FC0000C400000488050000C200003A
:100CA000000014006800AC00EF0131017401B701CD
:100CB000FA023D028002C303060349038C03D004F9
:100CC00024001D006700AA00EB012B016C01AC01A0
:100CD000ED022D026E02AE02EF032F037003B0038C
:100CE000F10431047204B204F30533057405B4054C
:100CF000F50635067606B606F70737077807B8070C
:100D0000F90839087A08BC09100014006F00AC001B
:100D1000EF0131017401B701FA023D028002C30301
:100D2000060349038C03CF042300220100230B0197
:100D300001020123010E23FF0F01FF0F22FF0F23EA
:100D4000F50001050023F60100F90101050F010579
:100D50000F23F6001108090110070A020F060B0302
:100D60000E050C040D040D000F0708010E06090204
:100D70000D050A030C040B000000000BB80BB80BA8
:100D8000B80BB80BB80BB80BB80BB80BB80BB80B4B
:100D9000B80BB80BB80BB80BB80BB80BB80BB8F452
:100DA00048F448F448F448F448F448F448F448F463
:100DB00048F448F448F448F448F448F448F448F453
:100DC00048F4480000006C00B500FE012200D90084
:100DD0009000470047009000D9012200FE00B500B6
:100DE0006C000012DE69E47AB386CE7AB3872F02F4
:100DF0000DF512383D740F7AB36F947AB36F952264
:100E0000CA7BCA6BCA5BCA4BCA2BCA1BCA0B120F5E
:100E1000C25E340040685B0B0A305E3400406852AA
:100E20007E34004079300002302105120FCBC22100
:100E30007EB387CABEB0016803B40413120FCB306F
:100E40000D087E7387C37A7387C1E47AB387CA7E3D
:100E50001F03FC6931000A5E340FC01214331E34C4
:100E60007A7387C6E47AB303F57EB38814047AB341
:100E70008814120FC25E34000868110B0A305E3409
:100E8000000868087E34000879300002120FC25E44
:100E900034001068170B0A305E340010680E7E3480
:100EA00000107930000274027AB303F5120FC25EAB
:100EB00034002068170B0A305E340020680E7E3440
:100EC00000207930000274017AB303F5120FC25E7C
:100ED000344000682E0B0A305E34400068257E34B2
:100EE000400079300002D20C7EB387C2BEB0C85039
:100EF00005047AB387C27EB387C2B40103120DF52D
:100F0000120FDB120FC25E34200068160B0A305E2F
:100F1000342000680D7E34200079300002D20C129B
:100F20000FDB120FC25E34100068660B0A307D239F
:100F30005E241000685B5E3408002E34FFFF920FC1
:100F4000693000067D235E240001680C5E340400D5
:100F50002E34FFFF720F920F7E34080079300002AA
:100F60007EB38764B4010F74027AB387647E341051
:100F700000120FE5803DC23012DB9712539F7EB303
:100F800039FEBEB003680A123FCC7805C208124091
:100F900004120FC25E34000468190B0A305E34007C
:100FA0000468107E340004793000027EB35960700A
:100FB00002D212DA0BDA1BDA2BDA4BDA5BDA6BDAF3
:100FC0007B327E0F03FC6930000422120FEE0B0A05
:100FD00030020FD44E70021B0A302230300612D875
:100FE0003102D84A227E0F03FC79300002227E0FA4
:100FF00003FC2E140014221256891267EF12137686
:10100000121799128FF3120DE31210251261D27E7E
:10101000B3596224FD68090BB178F41211E980EF2D
:1010200012307080EACA797EB3875ABEB001780266
:1010300021597E1F03FC69A100065EA40800680216
:10104000214A6CEE1211C17E34F4B17E087C877E99
:1010500024000612115C7DB3BEB4000678040BE0D8
:1010600080070BF0BEF00340DEBEB4000678106CC3
:10107000FF1211D0197A87650BF0BEF00678F212D4
:1010800011C17E34F3127E087C877E240009121180
:101090005C7DB3BEB4000978040BE080070BF0BEA2
:1010A000F00340DEBEB4000978106CFF1211D019B5
:1010B0007A87460BF0BEF00978F21211C17E34D265
:1010C000027E087C877E24000212115C7DB3BEB4D0
:1010D000000278040BE080070BF0BEF00340DEBE98
:1010E000B4000278106CFF1211D0197A876D0BF0E2
:1010F000BEF00278F21211C17E34F3901211D7784B
:10110000040BE080070BF0BEF00340ECBEB400011E
:1011100078087E737C877A7387451211C17E34F319
:10112000B31211D778040BE080070BF0BEF0034038
:10113000ECBEB4000178087E737C877A738732BE78
:10114000E005780674017AB3875A7EB3875AB401F2
:10115000087E7387457A73596CDA792212E37280BC
:10116000496D337E2F88007932000A12E2F012E8CE
:10117000347AB38804800A12E43868051237F7809D
:101180000512E3D968F112E5597E6F8800693600CF
:10119000045E34000278F27EB38804701169360070
:1011A0000A6C667A7B700BF41B144D1178B3021134
:1011B000B16D337E2F88001B2A30C2CC7D329D3129
:1011C000227E087C877E340009E41200266CFF2210
:1011D0000AAF097A7C87227E087C877E2400011270
:1011E000115C7DB3BEB400012230260C7EB359A938
:1011F000B40105125079800312393BC226D28612FF
:1012000010257EB339FEB401028002418C1267F8CA
:1012100012604DE41270A312DC39123F4B1234B845
:101220007E34020B1212D81237B9124B4E123332DF
:10123000126C5A12174A40CA1291D67EB3595FB443
:101240000102D2867EB36993700612143E12DF96B5
:1012500012991A12666012174A40A774011212A05E
:10126000122C4E12A719129FD774021212A012A7A5
:10127000FC74031212A012AE3474041212A012777E
:10128000781260161247311200074102D20412315F
:1012900049125FFE0212977E7359627A7339FE22F9
:1012A00024FD680A0BB1781CE47AB369772212AF87
:1012B000FA12BA1812BD287AB3697912BEB2127640
:1012C00066027F87227E3402157E2400FF0B1A30CF
:1012D0007A3769827E3402177E2400FF0B1A30228F
:1012E000900203E4937AB3697A12E6AC7E34020D7D
:1012F0001212D87A37697C7E34020F1212D87A37EC
:10130000697E7E3402111212D812153A7A3769803A
:101310001212C57A3769847E3402191212D8121556
:101320003A7A3769867E34021B1212D812E6EC1222
:1013300012D812153A7A37698A90024FE4937AB339
:10134000698E900206E4937AB3698FBEB01450069A
:1013500074147AB3698F7E3402071212D87A37690F
:10136000907E34021F1212D87A37698CE47AB369FE
:10137000927AB36993227E34020D1212D81214337A
:101380007A73593B7E34020F1212D812171A7A73ED
:10139000593C7E3402151212D81214337A73593D17
:1013A0001212D412171A7A73593EE47AB3593F7E57
:1013B00034021F1212D81214337A7359407E34004B
:1013C0006ACA397E3402237E2400FF7E0859411206
:1013D00000A01BFD74557AB3596FE47AB359587461
:1013E000037AB3595974027AB35957227E34020DE5
:1013F0001212D87A37697C7E3402211212D87A37D9
:10140000010012E6AC7E34020F1212D87A37697EE0
:101410007E34021B1212D812E6EC1212D812153AC0
:1014200012142B1217127A73593C227A37698A7E6A
:1014300037697C1E341E341E341E341E34227EB3A3
:10144000598B600A1213ECE47AB388138034126C5F
:10145000C37E3402111212D812153A7A3769807E8F
:10146000B36998701D7EB3881370177E3402211201
:1014700012D8BE37676C280A7EB3696E70047A375B
:10148000697C7EB3594760447EB359581BB1680DDF
:101490000478397E37697C7D133E14800A7E376973
:1014A0007C7E140003AD137E04000A8D109D317AFA
:1014B00037697C7D232E2400327A2701009E340078
:1014C000327A37697E12153A7A3769807EB3594687
:1014D00060577E27697C7E34000AAD321214377A59
:1014E00037697C7D232E2400647A2701007E5769AA
:1014F0007E7E04000AAD507D250E240E240E247A33
:1015000027697E7E176988AD107D210E240E240E7A
:10151000247A2769886D229E2769887A27698A122A
:1015200014331217127A73593C7EB3593FBEB0AAD6
:1015300068071212C57A376984226E34FFFF0B34B4
:1015400022CA797E9769D77A977C897EF3699C6DE8
:10155000AA7404ACBF7A577C8B7D852E877C897AF0
:10156000877C8D7E1F03FC698100187A877C877ECB
:10157000E369991237E96D88C1B17E087C8F12E763
:101580003D1268C76DBB0A3FAD3B2D3A1217367E40
:1015900024000160053E241478FB7D3F12143512AF
:1015A0001725BEB4000478DE6DBB0A3FAD3B2E3775
:1015B0007C8B1217367E24000160053E241478FBD4
:1015C0007D3F121435121725BEB4000578DC6DBBC3
:1015D0000A3FAD3B2D391217367E24000160053ECF
:1015E000241478FB7D3F1214353E342E347CBD121A
:1015F000172BBEB4000478D86DBB0A3FAD3B2E3725
:101600007C8D1217367E24000160053E241478FB81
:101610007D3F1214353E342E347CBD12172BBEB4E0
:10162000000578D612E4807E087C8F12230312E432
:10163000807E087CBD1224F1125A91300F0F7E0873
:101640003A007E34052074FF120026806CA9D7EA88
:101650006DBB0A3FAD3B7D232D2A12E3A52D0A1257
:10166000E46E2D2912E6C00BB4BEB4000478E36D1D
:10167000BB0A3FAD3B7D232E277C8B12E3A52E07B3
:101680007C8B12E46E2E277C8D12E6C00BB4BEB4A8
:10169000000578DDA9C7EA0BA47E377C8B0B347A72
:1016A000377C8B0B947E377C8D0B347A377C8D0B9B
:1016B000840A3FBD382802A17A6D887DA80A2E1BB6
:1016C000240A3FAD327D932E977C89803C6DBB8090
:1016D0002C0A5FAD5B7D152D1A3E1449313A007D11
:1016E000299D253E2449223A0059213A000A5FAD3E
:1016F0005B7D199D153E1459313A000BB40A1EBD8D
:101700001B38CE0BA40B940B840A3FBD3838BEDACD
:1017100079227A73593B7E37697E0E340E340E344B
:101720000E340E34223E342E347C8F0B38E04DE2E2
:101730001B38E00BB4223E342E3403227E2400FFFB
:101740000B1AF07D5F5E54000F227EB32E7470146E
:101750007EB35960BEB003680B12C72912129712EC
:10176000479ED322C3227E3402B91212D87A376739
:101770007F7E3402BB1212D87A3767817E3402BD75
:101780001212D812E5239002C0E4937AB36786E47C
:101790007AB3678A7AB3678B221250C31287FB121F
:1017A00059BD1248A91217661212E01288A51275C7
:1017B0001612CE09123FD91239D80217BDD227D23C
:1017C0002812A3A77E182E7A7A1F03E67E18339A72
:1017D0007A1F03EA22CA3B7EF387F07E3008AC3FD3
:1017E00009C159AB09D159AC7E040008CA092E14AD
:1017F00059AB6D007E1886FF1200A01BFD7408AC6B
:10180000BF09E559AF74EEACBE7D952E940100740E
:1018100003121FA21219735E340100680D5E84FE6C
:10182000FF7A8787587CBF121FFC1219735E340041
:101830000168355E84FFFE7A8787587EB386FF1283
:10184000000E50187EB386FF12D309500F7EB38668
:10185000FF126549124864121EE7800C7408ACBF81
:1018600019C559AB7AC386FF1219735E340002683A
:101870002C5E84FFFD7A8787587EB387001227F895
:10188000500F7EB387001265F2124864121EE78083
:101890000C7408ACBF19D559AC7AD38700121973F0
:1018A0005E340004684F5E84FFFB7A8787584E845D
:1018B00002007A8787587CBF1248087E303CAC3ED5
:1018C0001222A97403ACBF12E23D7E303CAC3E1242
:1018D000E6947408ACBF12E17B7D392E34000674A7
:1018E0003CACBE121FED7D390B35743CACBE4925B6
:1018F00078B512197E12196C5E24001068125E70A1
:10190000EF7A3787587EB387017E738702128FFC88
:1019100012196C5E24004068115E70BF7A378758D8
:101920007CBF0A0F124EEB12257212196C5E240056
:1019300080680A5E707F7A37875812250712196C03
:101940005E240400680E5E60FB7A3787587EB3869B
:10195000D812D0CA12196C5E242000680C5E60DFB9
:101960007A3787587CBF125189DA3B227E378758F5
:101970007D23227E8787587D3822492578E37D1292
:1019800012E6FE1B1A1022CA3B300002A173740338
:10199000121FA27E347C877E2415157E7400B91B2D
:1019A00038200B351B7478F712E8137E2400B91227
:1019B000230712E8131224F17EB387F7B401417EA6
:1019C0000F03FC6930001C7A3787366930001A7AB9
:1019D00037873B693000127A378755693000147AAF
:1019E0003787617E34003F7930001A1256547930BF
:1019F000001C7E34002012E6DA7E34000112E50F6E
:101A0000E47AB3874074037AB387417AB387307E30
:101A10009387F74C99781DE5C27AB3873F12E4A308
:101A200043C3201237C443C3C01237C443C2401259
:101A300037C48008BE9001780312E4A37EB387F711
:101A4000B40106A9D09EA9D49E125654793000162E
:101A50007E3401CE1212D82E3400097E0F03FC7999
:101A600030001812253C7403121FA27E34001F128E
:101A70001EE07A373F7612E80A4E5001121EC37EEE
:101A8000340025121EE07A373F2E12E8015E240052
:101A90009F4E4076121EC37E340027121EE07A3716
:101AA0003F3212E7F85E24F64F4E24600F121EC339
:101AB0007E340001121EE07A373F3612E7EF5E24D3
:101AC000C0004E50C2121EC37E34002A121EE07A9D
:101AD000373F3812E7E65E500F4E5020121EC37E8D
:101AE0000F03FC6930004C7A37875D7E5387300ADC
:101AF000557D25123C502D256C774D327930004CA8
:101B0000121EDC7D035E040002121F8A7D135E1428
:101B10000002121EDC7A373F2A12E7DD121FF44D55
:101B20002112197E121F8A7A373F2C12E7D4121F16
:101B3000F44D20121ED37E340028121EE07A373F67
:101B40003412E7CB5E24F7EF4E4008121EC37E34FA
:101B5000001B121EE07A373F4412E7C25E40DF12DC
:101B60001FDB121EE07A373F487E3400177EB387B2
:101B700031543F0A2B121EC37E340026121EE07A17
:101B8000373F3012E7B95E24F1DF121EC36D331206
:101B90001EE07A373F4A6D337E273F4A5E247FFD41
:101BA000121EC37E340021121EE07A373F4C12E72A
:101BB000B05E40EF12197E7E340021121F8E7A37FC
:101BC0003F4E12E7A75E40EF121ED37E3400141280
:101BD0001EE07A373F4612E79E5E24FC00121FD3B8
:101BE000121EE07A373F5C7E3400027E5387330A50
:101BF0005512531C7E273F5C5E2408004D254E5035
:101C00002E121EC37E340016121EE07A373F521287
:101C1000E7955E24F8004E50C4121EC37E340018AF
:101C2000121EE07A373F5812E78C5E24FC004E50BB
:101C3000DA121EC37E340019121EE07A373F5A12A0
:101C4000E7835E24FC004E240190121FCB121EE09D
:101C50007A373F567E34001A6D22121EC36D777D8F
:101C6000672E640006121FBA59323F3A7D273E2480
:101C700049323F3A59323F200B74BE74000578DF79
:101C80007EB387F77E083F26700712E6C77401808F
:101C90000512E6C774027E70011252B77E083F2813
:101CA000740112529E7E083F2874011252637E73A3
:101CB00087570A377A373F207E3400067E273F2039
:101CC000121EC37E3400097E273F26121EC37E34B7
:101CD000000A7E273F28121EC36D777D672E6400A1
:101CE0000B121FBA59323F5E121FE359323F641282
:101CF0001F8378E77E34000B7E241111121EC37EF1
:101D000034000C7E240001121EC37E3401FB121E1F
:101D1000E07D737E34000D7D27121EC36D777D67D5
:101D20002E640039121FBA59323F6A121FE359322A
:101D30003F70121F8378E77E340039121FC47E344F
:101D4000003A121FC47E34003B7E24500512197ED7
:101D50007E3400397E241234121ED37E34003A7E43
:101D6000242345121ED37E34003B7E241005121E10
:101D7000D3C1C07EA387F74CAA78247EB3873FF5F2
:101D8000C27E7387427CB754C04CB7F5C37CB7544E
:101D9000204CB7F5C37CB754074CB7F5C3800BBED6
:101DA000A00178067EB38742F5C312E3BC12E80AAD
:101DB000121EC312E801121EC312E7F8121EC3124C
:101DC000E7EF121EC312E7E6121EC312E3BC12E7CE
:101DD000DD12197E12E7D4121ED312E7CB121EC3F6
:101DE00012E7C2121FDB7E273F48121EC312E7B95B
:101DF000121EC36D337E273F4A121EC312E7B01274
:101E0000197E12E7A7121ED312E79E121FD37E2758
:101E10003F5C121EC37E3400107E273F50121EC34B
:101E200012E795121FCB7E273F56121EC312E78C76
:101E3000121EC312E783121EC37E3401D01212D8C1
:101E4000125648793000187EB387F7B4011C7E37EC
:101E5000873612E6D17E37873B12E7457E378755B6
:101E600012E6DA7E37876112E50F6D777D672E64A3
:101E70000006121F9B49223F3A121EC30B74BE7408
:101E8000000578E86D77121F9549223F5E12197E92
:101E9000121F9549223F64121F8078EA6D777D6793
:101EA0002E640039121F9B49223F6A12197E121FAD
:101EB0009B49223F70121F8078E412231D122507D0
:101EC000DA3B227D027D537D2012197E7D357D20F7
:101ED000021ED37D1212E6F51B1A10227E3400205A
:101EE00012E6FE0B1A3022CAF86CFF74EEACBF7D0E
:101EF000D52ED4010012E7680AC73EC43EC43EC4D2
:101F00000BC6097559AC0AB73EB43EB43EB40BB625
:101F10007EA4002C7AA52F7EA400087AA53112E5B4
:101F2000DB7D3C7D2B12E1FD7D3C7D2B1222DC7D97
:101F30003C7D2B742A12E1A012E658492578DD1267
:101F4000197E12E64D492578E112197E129062AC95
:101F5000BF12197A12E658492578DD121ED312E60F
:101F60004D492578E1121ED3129062ACBF49257805
:101F7000E3121ED30BF0BEF0045002C1EBDAF822DC
:101F8000121ED30B74BE740003227E34002012E6AE
:101F9000F50B1A30227D672E64000B7D367D273EBF
:101FA00024227CAB7E08783F7CBA12E1B87E0878A8
:101FB0007F12E1B81242B5021ED37D36121EE07DBB
:101FC000273E24227E24432102197E121EC37E3422
:101FD000001A22121EC37E34000222121EC37E3457
:101FE0000017227D36121F8E7D273E242249257838
:101FF000BD02197E5E247DFD4E405822CA797CEBDD
:102000001227EF7E738705197559B17E340005CA12
:10201000397E3005AC3E2E1459CB6D007E18870EEC
:102020001200A01BFD1227B91222BC12E59A2E3411
:10203000000B7E303CAC3F2E1478C76D007E240030
:10204000031222EE1224F1DA79221252D9795000C9
:102050000422CA3B7CEBBEE004400241721227EF2F
:10206000BEF00440024172097559AB0A473E443E36
:10207000443E440B467A4527097559AC0A673E64CD
:102080003E643E640B667E503CAC5F2E2478B10B00
:1020900028304E70011B28307408ACBE097559B247
:1020A0002E70FF920112229A6D0012E2257E900896
:1020B000AC9E09B459AEF5297E703CAC7F7D1312FD
:1020C00022B52E3478E36D2209B459AD12906B120B
:1020D00022B07E35271222851222A47D3612228B51
:1020E0007E303CAC3F12E6947408ACBE12E17B1229
:1020F00022A47403ACBE12E23D1265B26D3312002D
:10210000167E303CAC3F12525C7E7005AC7E09B34B
:1021100059EB097359EC1252B77E303CAC3F125266
:102120005C7405ACBE09B559ED1252891222CC0976
:10213000B559EE12529E1222CC09B559EF125263D4
:10214000126591120016D2011222E212E1D012277A
:10215000B91222BC7E503CAC5F2E2478C50B2830CF
:102160007E340002743CACBF593578CD743CACBFB2
:10217000593578CF6D33743CACBF593578D17E3446
:102180002205743CACBF593578D37E340006743CCC
:10219000ACBF593578D57E340012743CACBF59358C
:1021A00078D7743CACBF593578D9743CACBF59353D
:1021B00078DB7E340808743CACBF593578DD6D336C
:1021C000743CACBF593578E57E340001743CACBF3B
:1021D000593578DF7E340C1C743CACBF593578E13E
:1021E0007E503CAC5F2E2478E30B28304E34419671
:1021F0001B28307E341F00743CACBF593578E7BED5
:10220000E00378197E340351743CACBF593578C172
:102210007E3404041222917E34042980077E340A1D
:1022200019122291743CACBF593578EB7E34002CE6
:102230007A352F7E3400087A353112E5DB7E35277A
:102240007D2612E1FD7E35277D261222DC7E352794
:102250007D26742A12E1A07403121FA212E59A12BD
:10226000229A6D007E24001E1222EE7E24000312AC
:1022700024F1DA3B220B0A305E34FC001B0A304D9D
:10228000321B0A302212E1F302227C12E1F3022215
:102290007C743CACBF593578E9227E303CAC3F2E93
:1022A0001478B1227E303CAC3F2E1478B56D0022FC
:1022B0007E303CAC3F2E1478B36D00227408ACBE67
:1022C00009B559B11252D979500004227E303CAC84
:1022D0003F2E1478C56D007405ACBE2212279B7585
:1022E0002F2C7E303CAC3F2E1478E36D002212235D
:1022F000077D3B2E34000B7E3006AC3F2E14782336
:102300006D00227E2400177D533E542E54A0006D94
:10231000446D33800312E333BD3240F922CA796D34
:10232000EE7403121FA27EC769D97ED769D72DDC50
:102330007E087DF912E73D6DAA801E7DBA3EB44944
:10234000BB69F31224EA7E14000160053E14147880
:10235000FB7D2B1224E112E492BDCA38DE7DAC80F5
:102360002B7DCA3EC449BC69F31224EA7E240001D5
:1023700060053E241478FB7D3B1214353E342E3428
:102380007DF90B38C04DC21B38C00BA4BDDA38D163
:102390006DAA801E7D3A3E342E34019212E45C60B8
:1023A000053E341478FB1224DB3E242E247DF912E2
:1023B000E637900191E4930A3BBD3A38D76DAA8085
:1023C0001E7D3A3E342E3401A312E45C60053E3497
:1023D0001478FB1224DB3E242E247E2712E637904D
:1023E00001A2E4930A3BBD3A38D76D337DF37DE318
:1023F0007DA37DBA1EB41EB47D2A7CB57E1778718C
:1024000060051E141478FB5E14000F7E2778751289
:10241000E73478027DFB7D2A7CB57E1778836005E2
:102420001E141478FB5E14000F7E27788712E734A1
:1024300078027DEB0BA6BEA4000F40B612E5A77D87
:10244000E17DA37DBA2EB401247D5A2D5F12E504EF
:102450003E4449747DF95E54000F60051E74147883
:10246000FB1224EA0A1F60053E141478FB7D2B1230
:1024700024E13E242E247DF90B28304D311B2830D9
:102480007D5A2D5E12E5043E4449747E275E540059
:102490000F60051E741478FB1224EA0A1F60053EC3
:1024A000141478FB7D2B1224E112E492BEA40024C4
:1024B00078916DAA7E9400EEAD9A2E94011E7D391E
:1024C0007E087DF91223037D397E087E271224F1D0
:1024D0000BA4BEA4000440DCDA79227D136E14FF45
:1024E000FF1E241E241E241E24227D5B5E54000F2A
:1024F000227D533E542E54B0006D446D3380031240
:10250000E333BD3240F9227EB769D77EA769D9127D
:10251000E5B46D221224F17E3401007E0869F37D5A
:102520002A1224F112E72B2E1469F36D007D2B1271
:10253000230712E62C7E24000402230712E722124E
:10254000E5B47E2400041223077E3401047E1403C4
:10255000227E0400FF7D2A12230712E72B2E14038C
:10256000227E0400FF7D2B1224F112E62C6D220244
:1025700024F1CA3B7F607CAB6DEEBEA0044002C17B
:10258000807408A409B559AFF5347403121FA21260
:10259000E7222DBA7E0879A97E34016D74FF1200FE
:1025A000267E087B167E34016D1200266D77801121
:1025B0007D373E34492369F312276E19727B160B5F
:1025C00074BDA738EB7D7A80117DA73EA4492A69A6
:1025D000F312276E197279A90B74BDB738EB6D33FE
:1025E0007DF37DE37D737D271E241E247CAF7E0753
:1025F00078717CBA60051E041478FB5E04000F7EBF
:1026000017787512E71978027DF27E0778837CBA15
:1026100060051E041478FB5E04000F7E1778871295
:10262000E71978027DE20B76BE74000F40B812E520
:10263000A77DE17D737D372D3F097379A919777ADD
:10264000CD7D372D3E09737B1619777C3A0B74BE0E
:1026500074002478E07ED13474EEACDB2E6401008B
:102660002E6400357E087F5F7E1879A912274612F6
:1026700023077E087F5F7E187B161227461224F1FF
:10268000DA3B22CA797F717EA0256C776C666C5527
:102690006C44E1227C97AC9A0AD42D4D7EF049AC73
:1026A000F77DD7A5BC000B7EC401241227347DC75B
:1026B000802AA5BC12127EC401471227347DB77E42
:1026C000C401481227768014A5BC24157EC4016B72
:1026D0001227347DB77EC4016C12277612275F80E3
:1026E0003FBE4012501E7EB401259DBD0AC62DCBB3
:1026F0001227367DB77EA401269DAD0AC612275447
:102700000B61801C7EB401499DBD0AC52DCB1227EB
